:020000040800F2
:1000000000500020351B0008BD1A0008BF1A000868
:10001000C11A0008C31A0008C51A00080000000031
:10002000000000000000000000000000C71A0008E7
:10003000C91A000800000000CB1A0008CD1A0008F9
:100040007D1B00087D1B00087D1B00087D1B000830
:100050007D1B00087D1B00087D1B00087D1B000820
:100060007D1B00087D1B00087D1B00087D1B000810
:100070007D1B00087D1B00087D1B00087D1B000800
:100080007D1B00087D1B00087D1B00087D1B0008F0
:100090007D1B00087D1B00087D1B00087D1B0008E0
:1000A0007D1B00087D1B00087D1B00087D1B0008D0
:1000B0007D1B00087D1B00087D1B00087D1B0008C0
:1000C0007D1B00087D1B00087D1B00087D1B0008B0
:1000D0007D1B0008DD1A00087D1B00087D1B000841
:1000E0007D1B00087D1B00087D1B00080000000030
:1000F0000000000000000000000000000000000000
:0C01000000000000000000005FF808F1A3
:10010C0010B5054C237833B9044B13B10448AFF345
:10011C0000800123237010BD0400002000000000AB
:10012C00D81B000808B5034B1BB103490348AFF3B8
:10013C00008008BD0000000008000020D81B00084B
:10014C00034613F8012B002AFBD1181A013870470B
:10015C0010B5044600F060FD4FF47A73B0FBF3F079
:10016C0000F088F8002221464FF0FF3000F042F8F2
:10017C00002010BD074A08B51368032043F0100394
:10018C00136000F025F80020FFF7E2FF01F084FB7C
:10019C00002008BD00200240024A1368013313609E
:1001AC00704700BF20000020014B1868704700BF4B
:1001BC002000002013B50190FFF7F6FF0446FFF76F
:1001CC00F3FF019B001B9842F9D302B010BD000055
:1001DC00074A0002D36800F4E06023F4E0631B04D8
:1001EC001B0C43F0BF6343F400330343D3607047ED
:1001FC0000ED00E0174B30B5DC68C4F30224C4F109
:10020C000703251D042B28BF0423062D4FF00105E1
:10021C0098BF002405FA03F303F1FF3388BF033CB6
:10022C001940A14005FA04F4013C2240002842EA9E
:10023C0001024FEA0212AFBF00F16040064B00F022
:10024C000F00D2B2A5BFD2B200F561401A5480F8AB
:10025C00002330BD00ED00E014ED00E00123420965
:10026C0000F01F0003FA00F0014B43F82200704726
:10027C0000E100E00138B0F1807F0AD2F021064B9A
:10028C00064A586082F823100020072298601A60F2
:10029C0070470120704700BF10E000E000ED00E067
:1002AC00044B04281A680CBF42F0040222F004022A
:1002BC001A60704710E000E0704708B5FFF7FCFFCC
:1002CC0008BD00002DE9F74F00221646654BDFF8FC
:1002DC00A4E1DFF8A4C14FF001080C6808FA06F895
:1002EC0008EA0404A0457FD14D68122D00F0AF80C0
:1002FC0000F28880022D00F0A7807CD8002D00F041
:10030C008E80012D00F09E804FF00F09FF2C93BFC3
:10031C00824606F18045083DD0F800B092BFB5008A
:10032C00D0F804B0AD0009FA05F82BEA080802FA77
:10033C0005F588BF00F1040A48EA0505CAF8005023
:10034C00D1F804A01AF0805F4ED0474D464FAD69EE
:10035C0026F0030845F00105BD61BD6908F1804830
:10036C0005F00105019508F5803806F0030B019D99
:10037C004FEA8B0BD8F8085009FA0BF925EA090952
:10038C003A4DA84268D005F58065A84266D005F5BF
:10039C008065A84264D005F58065A8420CBF032592
:1003AC00042505FA0BF545EA0905C8F808501D683F
:1003BC001AF4803F14BF2543A5431D605D681AF4F1
:1003CC00003F14BF2543A5435D609D681AF4801F50
:1003DC0014BF2543A5439D60DD681AF4001F14BFAC
:1003EC002C4325EA0404DC600136102E7FF473AF35
:1003FC0003B0BDE8F08F032D22D0112D84D1CA6833
:10040C00043281E71A4FBD4209D012D8DFF86C9044
:10041C004D4504D009F580394D457FF475AF8A6898
:10042C00C2B1012A0CBFC0F81080C0F81480082299
:10043C006AE77545F3D06545F1D0DFF84490EBE7FA
:10044C00002261E7CA685FE7CA6808325CE7CA68DD
:10045C000C3259E7042257E70025A2E70125A0E753
:10046C0002259EE7000401400010024000080140F4
:10047C00000021100000311000003210000011109B
:10048C00000022100AB1016170470904FBE7C36840
:10049C005940C1607047000070B5044600285FD019
:1004AC0090F8353003F0FF021BB980F8342001F0CE
:1004BC0031FA2423226884F835301368294E23F04E
:1004CC000103136000F0AEFB6368274DB342B0FB31
:1004DC00F5F588BF4FF49671226888BF6943556063
:1004EC0085BF4FF47A75B1FBF5F1691C0131B3424C
:1004FC00116220D85B00B0FBF3F0C0F30B03032BAD
:10050C0098BF0420216AE369D0610B431360E16852
:10051C00236900200B439360A16963690B43D3608B
:10052C00136843F0010313602023A06384F8353073
:10053C0084F8360070BDA16859B903EB4303B0FBD6
:10054C00F3F040F40040C0F30B03002B08BF012074
:10055C00D8E719214B43B0FBF3F040F44040F2E7ED
:10056C00012070BDA086010040420F0003682DE9F8
:10057C00F743DE07054634D42B689C0700F1A780AF
:10058C002B681A0723D5AA69BE4C0123BE49002A41
:10059C0000F0158193FAA3F2B2FA82F241F82230FC
:1005AC00FFF702FE0226074696FAA6F396FAA6F382
:1005BC00626A96FAA6F3B3FA83F303F01F0322FAE6
:1005CC0003F3DB0740F1F4800120FFF7F3FD2B6808
:1005DC00590700F11481EA69002A40F09381002048
:1005EC0020E0A84C636803F00C03042B07D063686D
:1005FC0003F00C03082B18D16368D80315D54FF4FE
:10060C00003393FAA3F2226893FAA3F3B3FA83F3B9
:10061C0003F01F0322FA03F3D907ADD56B68002B47
:10062C00AAD1012003B0BDE8F0836B68B3F5803F1D
:10063C001CD1236843F480332360FFF7B5FD4FF4DE
:10064C000036074696FAA6F3226896FAA6F3B3FA92
:10065C0083F303F01F0322FA03F3DA078CD4FFF7BA
:10066C00A3FDC01B6428EDD90320DBE703BB236883
:10067C004FF4003623F480332360236823F4802363
:10068C002360FFF791FD074696FAA6F3226896FAC7
:10069C00A6F3B3FA83F303F01F0322FA03F3DB0789
:1006AC007FF56AAFFFF780FDC01B6428ECD9DBE750
:1006BC00B3F5A02F236803D143F480232360B8E75C
:1006CC0023F480332360236823F48023B4E76D4C38
:1006DC00636813F00C0F07D0636803F00C03082B4E
:1006EC0020D16368DF031DD4022393FAA3F222689E
:1006FC0093FAA3F3B3FA83F303F01F0322FA03F381
:10070C00DE0702D52B69012B8BD12168F82393FAD4
:10071C00A3F3B3FA83F26B69934021F0F80213430D
:10072C0023602DE72A69012302B393FAA3F2B2FAEC
:10073C0082F2920002F1844202F584021360FFF708
:10074C0033FD0226074696FAA6F3226896FAA6F31C
:10075C00B3FA83F303F01F0322FA03F3D807D4D4BC
:10076C00FFF722FDC01B0228EDD97DE793FAA3F316
:10077C00B3FA83F39B0003F1844303F584031A60FB
:10078C00FFF712FD0226074696FAA6F3226896FAA0
:10079C00A6F3B3FA83F303F01F0322FA03F3D9078A
:1007AC007FF5EEAEFFF700FDC01B0228ECD95BE72E
:1007BC00FFF7FAFCC01B02287FF6F6AE54E793FA5B
:1007CC00A3F3B3FA83F341F82320FFF7EDFC0226E1
:1007DC00074696FAA6F396FAA6F3626A96FAA6F379
:1007EC00B3FA83F303F01F0322FA03F3D8077FF560
:1007FC00EEAEFFF7D9FCC01B0228EAD934E7214C36
:10080C00224EE36943F08053E361E36903F08053C4
:10081C000193019B336843F480733360FFF7C4FC8E
:10082C0007463368DA0526D5EB68012B30D1236AED
:10083C0043F001032362FFF7B7FC02268146B04662
:10084C0041F2883796FAA6F396FAA6F3002B55D008
:10085C00226A98FAA8F3B3FA83F303F01F0322FA7F
:10086C0003F3DB073FF5B7AEFFF79EFCA0EB0900E7
:10087C00B842E7D9F8E6FFF797FCC01B6428D0D93B
:10088C00F2E600BF001002408004424200700040BB
:10089C0033BB236A022623F001032362236A374603
:1008AC0023F004032362FFF77FFC41F28839804672
:1008BC0096FAA6F396FAA6F313B3226A97FAA7F35D
:1008CC00B3FA83F303F01F0322FA03F3D8077FF57F
:1008DC0082AEFFF769FCA0EB08004845E8D9C3E6F7
:1008EC00052B236A03D143F0040323629FE723F013
:1008FC0001032362236A23F004039BE7626AA8E7DF
:10090C00626ADBE7444C636803F00C03082B3FF48A
:10091C0088AE022A4FF0807359D193FAA3F3B3FA3D
:10092C0083F300229B0003F1844303F584031A60D4
:10093C00FFF73AFC4FF00076074696FAA6F32268CA
:10094C0096FAA6F3B3FA83F303F01F0322FA03F328
:10095C00D90736D42B6AB3F5803F05D16268A968F4
:10096C0022F400320A4362606268696A22F47412EB
:10097C000B43134363604FF0807393FAA3F3B3FA02
:10098C0083F301229B0003F1844303F584031A6073
:10099C00FFF70AFC4FF00075064695FAA5F322689E
:1009AC0095FAA5F3B3FA83F303F01F0322FA03F3CA
:1009BC00DA073FF514AEFFF7F7FB801B0228ECD9E2
:1009CC0052E6FFF7F1FBC01B0228B6D94CE693FAAE
:1009DC00A3F3B3FA83F300229B0003F1844303F5E2
:1009EC0084031A60FFF7E0FB4FF00075064695FA9A
:1009FC00A5F3226895FAA5F3B3FA83F303F01F036A
:100A0C0022FA03F3DB077FF5EAADFFF7CDFB801B82
:100A1C000228ECD928E600BF0010024030B5204B6C
:100A2C0087B002AC03F110052246186859680833E8
:100A3C0003C2AB421446F7D101238DF804300223D4
:100A4C00184C8DF80530616801F00C03082B24D18B
:100A5C004FF4701393FAA3F3B3FA83F201F4701307
:100A6C00D34006AA134413F8100CCB0313D56368B8
:100A7C004FF4003292FAA2F2B2FA82F203F400338B
:100A8C00D34006AA134413F8142C074BB3FBF2F310
:100A9C00584307B030BD054BFAE70348F9E700BFF0
:100AAC00F01B00080010024000127A0000093D0003
:100ABC00554A2DE9F0411368064603F007038B42B3
:100ACC000D4630D3326894073AD4D00740D44E4AFE
:100ADC00136803F007039D42C0F0848032684B4CCE
:100AEC0012F0040F40F08980130706D56368326951
:100AFC0023F4605343EAC2036360FFF78FFF63681C
:100B0C00F02292FAA2F2B2FA82F203F0F003D3408E
:100B1C003F4AD35CD8403F4B18600020FFF718FBCE
:100B2C000020BDE8F081136823F007030B4313602A
:100B3C00136803F007039942C4D00120BDE8F0818B
:100B4C003249B0684B6823F0F00303434B60BCE7B9
:100B5C0072682E4C012A28D14FF4003393FAA3F17A
:100B6C00216893FAA3F3B3FA83F303F01F0321FA7A
:100B7C0003F3D907E1D5636841F2883823F0030306
:100B8C001A436260FFF710FB73680746012B12D102
:100B9C00636803F00C03042B99D0FFF705FBC01B13
:100BAC004045F5D90320BDE8F081022A0CBF4FF077
:100BBC0000730223D2E7022B0FD1636803F00C03FE
:100BCC00082B84D0FFF7F0FAC01B4045F5D9E9E7B4
:100BDC00FFF7EAFAC01B4045E4D8636813F00C0F2A
:100BEC00F6D174E7136823F007032B4313601368E3
:100BFC0003F007039D42A0D170E76368F16823F40A
:100C0C00E0630B4363606FE700200240001002407A
:100C1C00081C000800000020014B1868704700BF3A
:100C2C0000000020084B4FF4E0625B6892FAA2F2DD
:100C3C00B2FA82F203F4E063D340044AD35C044A70
:100C4C001068D840704700BF00100240181C000804
:100C5C0000000020084B4FF460525B6892FAA2F23D
:100C6C00B2FA82F203F46053D340044AD35C044AD0
:100C7C001068D840704700BF00100240181C0008D4
:100C8C0000000020036A70B523F001030362036ABD
:100C9C00446882690D6822F073022A438D6823F040
:100CAC0002032B430A4DA8420BD1CD6823F0080355
:100CBC002B438E694D6924F44074354323F00403AF
:100CCC002C43446082614A684263036270BD00BF7A
:100CDC00002C0140036A70B523F480730362036A2D
:100CEC004468C2690D6822F073022A438D6823F4AC
:100CFC00007343EA05230B4DA8420DD1CD6823F4B4
:100D0C00006343EA05238E694D6924F4405435434E
:100D1C0023F4806344EA05144460C2614A68C263E8
:100D2C00036270BD002C0140036A30B523F480537C
:100D3C000362036A4468C2690D6822F4E64242EA1F
:100D4C0005228D6823F4005343EA0533064DA8426F
:100D5C0002BF4D6924F4804444EA85144460C261A6
:100D6C004A680264036230BD002C0140184A0368D3
:100D7C0090420AD0B0F1804F07D0A2F59432904245
:100D8C0003D002F58062904215D14A6823F07003BB
:100D9C0013430F4A90420AD0B0F1804F07D0A2F50E
:100DAC009432904203D002F58062904203D1CA681B
:100DBC0023F44073134303608B68C3620B68836234
:100DCC00034B984204BF0B690363012343617047D3
:100DDC00002C014010B50446A0B190F8393003F056
:100DEC00FF021BB980F8382000F0B6FD0223206802
:100DFC0084F83930211DFFF7B9FF0123002084F856
:100E0C00393010BD012010BD036A70B523F01003FA
:100E1C000362036A446882690D6822F4E64242EA7E
:100E2C0005228D6823F0200343EA05130B4DA842DD
:100E3C000DD1CD6823F0800343EA05138E694D690B
:100E4C0024F44064354323F0400344EA85044460B1
:100E5C0082614A688263036270BD00BF002C01404E
:100E6C0038B590F838300446012B4FF0020025D0ED
:100E7C00012384F8390084F838300C2A18D8DFE8BC
:100E8C0002F0071717171E1717172F171717400001
:100E9C002068FFF7F7FE236809699A6942F0080297
:100EAC009A619A6922F004029A619A690A439A61DA
:100EBC000123002084F8393084F8380038BD2068CC
:100ECC00FFF7A2FF236809699A6942F400629A61EC
:100EDC009A6922F480629A619A6942EA0122E6E7F1
:100EEC002068FFF7F7FE23680969DA6942F0080207
:100EFC00DA61DA6922F00402DA61DA690A43DA614A
:100F0C00D6E72068FFF710FF23680969DA6942F415
:100F1C000062DA61DA6922F48062DA61DA6942EA43
:100F2C000122ECE710B50124036A8C4023EA040388
:100F3C000362036A8A401A43026210BD10B504466C
:100F4C0001220068FFF7EEFF2368064A0020934257
:100F5C0002BF5A6C42F400425A641A6842F0010211
:100F6C001A6010BD002C014090F8383010B5012BE0
:100F7C004FF0020316D080F8393091E81800234363
:100F8C008C6802682343CC6823430C6923434C6967
:100F9C00896923430B435364012380F839300023C0
:100FAC0080F83830184610BD90F8383010B5012B49
:100FBC004FF0020318D080F8393003680C685A6877
:100FCC00496822F070025A605A6822435A609A6843
:100FDC0022F080029A609A680A439A60012380F892
:100FEC003930002380F83830184610BD2DE9F04711
:100FFC000568C2682B69016923F4405313432B61C4
:10100C008368EA680B43416922F4B05222F00C0267
:10101C000B431343EB606B69826923F440731343F6
:10102C006B61404B81469D424FF0190446D1FFF74E
:10103C0011FE04FB00F3D9F804604FF06408B6000D
:10104C00B3FBF6F3B3FBF8F31E01FFF703FE6043AB
:10105C00D9F804309B00B0FBF3F7FFF7FBFD6043BE
:10106C00D9F804309B00B0FBF3F3B3FBF8F308FBA7
:10107C0013731B013233B3FBF8F303F0F007FFF7E4
:10108C00E9FD6043D9F804209200B0FBF2FAFFF7B7
:10109C00E1FD6043D9F804309B00B0FBF3F3B3FBE4
:1010AC00F8F308FB13A31B013233B3FBF8F303F083
:1010BC000F033B433344AB60BDE8F087FFF7B2FD51
:1010CC0004FB00F3D9F804604FF06408B600B3FBDE
:1010DC00F6F3B3FBF8F31E01FFF7A4FD6043D9F858
:1010EC0004309B00B0FBF3F7FFF79CFD6043D9F88D
:1010FC0004309B00B0FBF3F3B3FBF8F308FB137362
:10110C001B013233B3FBF8F303F0F007FFF78AFD52
:10111C006043D9F804209200B0FBF2FAFFF782FD8D
:10112C00B7E700BF00380140F8B504460E46154637
:10113C00FFF73AF807462268136836EA030301D131
:10114C000020F8BD6B1CF7D0C5B923680320DA6802
:10115C0022F08002DA60DA6822F02002DA60DA68C3
:10116C0022F48072DA605A6922F001025A6101237A
:10117C0084F83930002384F83830F8BDFFF714F8C0
:10118C00C01B8542D7D2E0E710B5044630B390F8C7
:10119C00393003F0FF021BB980F8382000F054FC02
:1011AC000223226884F83930D368204623F4005394
:1011BC00D360FFF71BFF236800201A6922F49042CA
:1011CC001A615A6922F02A025A61DA6842F4005212
:1011DC00DA600123E06384F8393010BD012010BDC2
:1011EC0070B50D4690F839100446C9B201291E4657
:1011FC0001D022294DD1002D49D0002A47D094F896
:10120C003830012B45D0012384F838300023E363B8
:10121C0094F83930A284222B0CBF32231223E2849F
:10122C0084F83930E28C8AB9324640212046FFF7E7
:10123C007BFFC0B994F83930322B0CBF2223012329
:10124C0084F83930002384F8383070BDA368013A33
:10125C00B3F5805FE2844FF08001324620460DD119
:10126C00FFF762FF08B1032070BD2B882268C3F31F
:10127C0008035360236943B90235D3E7FFF754FFE2
:10128C000028F0D123682A785A600135CAE701207A
:10129C0070BD022070BD704770477047026813B56F
:1012AC0011680446C907D36805D5DB0542BFC36B7B
:1012BC0043F00103C36311685369880703F001030A
:1012CC0004D51BB1E16B41F00401E16311684907DE
:1012DC0004D51BB1E16B41F00201E1631168080711
:1012EC0004D51BB1E36B43F00803E3631168D368C7
:1012FC00890633D5980631D594F8393003F0EF03CD
:10130C00222B2BD1A3682169B3F5805FA36A76D118
:10131C00526800296FD1C2F3080223F8022BA36292
:10132C00E38D013B9BB2E385C3B923682046DA68A1
:10133C0022F02002DA6094F83920322A17BFDA68DA
:10134C00122322F48072DA601FBF5A6922F0010264
:10135C005A61012384F83930FFF79EFF236819681E
:10136C00DA68090622D5100620D594F8392002F047
:10137C00DF02122A1AD1A268B2F5805F226A4CD120
:10138C001188C1F3080159602169002943D1023247
:10139C002262E28C013A92B2E2843AB9DA6822F023
:1013AC008002DA60DA6842F04002DA601968DA68C2
:1013BC00490610D552060ED5DA68204622F04002B6
:1013CC00DA6094F83930322B0CBF2223012384F8D5
:1013DC003930FFF760FFE36B5BB1236820461A6876
:1013EC0001925B680193019B012384F83930FFF76C
:1013FC0054FF02B010BDD2B223F8012B8FE721B9F4
:10140C00591C5268A1621A708AE75268591CA16271
:10141C0002F07F02F7E70132BAE7511C2162127821
:10142C005A60B6E740B9CAB24FF4004100F18040AF
:10143C0000F58830FFF726B8012804D1CAB24FF462
:10144C0000510448F6E7022803D1CAB24FF4804198
:10145C00F7E770470010014038B50324144D012202
:10146C004FF480412846FFF70DF86420FEF7A2FEEA
:10147C0000224FF480412846FFF704F80121002098
:10148C00FFF7D0FF6420FEF795FE00210846FFF71A
:10149C00C9FF01210846FFF7C5FF6420FEF78AFE4D
:1014AC0000210120FFF7BEFF013CD8D138BD00BFA1
:1014BC000010014010B50421084C0948FFF73EFD0F
:1014CC0008210848FFF73AFD08212046FFF736FDB2
:1014DC002046BDE810400C21FFF730BD2400002051
:1014EC00540100209C00002008B500F075F8FFF7AF
:1014FC00E1FFBDE80840FFF7AFBF000008B5FFF7FC
:10150C00F3FF044C204600F0ABF96420FEF752FECA
:10151C00F8E700BF001C000808B501224FF4004199
:10152C001148FEF7AFFF00224FF480410E48FEF742
:10153C00A9FF00224FF400510B48FEF7A3FF0A4C01
:10154C0020464FF40041FEF7A2FF20464FF48041A5
:10155C00FEF79DFF20464FF40051FEF798FFC82080
:10156C00FEF728FEECE700BF00100140012310B588
:10157C0090B00A9310230B93002302240E934FF484
:10158C00601306A806940D940F93FEF7EFFF08B1B5
:10159C00FFF7C2FF0F2301934FF480630390059074
:1015AC00214601A802940493FFF782FA044600280E
:1015BC00EED1FFF731FB4FF47A73B0FBF3F0FEF78B
:1015CC0059FE0420FEF76CFE224621464FF0FF30F8
:1015DC00FEF710FE10B010BD2DE9F041AEB0FEF7D5
:1015EC00C9FDFFF7C3FF8F4B4FF460419A698E48DA
:1015FC0042F010029A619A69012402F010020092E2
:10160C00009A9A69022542F004029A619A69874FFE
:10161C0002F004020192019A9A6942F008029A615E
:10162C009B69002203F008030293029BFEF72AFF3A
:10163C00002220217E48FEF725FF4FF4604327A9A6
:10164C007948279328942A95FEF73CFE2023784866
:10165C0027A9279328942A95FEF734FE7548764BD4
:10166C004FF4804280E88800002302618360C360ED
:10167C0043618361C3610362FEF70EFF08B1FFF79C
:10168C004BFF4FF4E1324FF00C086C4B6C499860F7
:10169C00D86018619861D861184683E80600C3F8D1
:1016AC001480FFF771FD0028E9D14FF47A76654C70
:1016BC00654BA06020616061204684E82800E660EC
:1016CC00FFF788FB0028DAD109900A9009A9204677
:1016DC00FFF76AFC0028D2D1602721902290249039
:1016EC0025902690424620A920462097FFF7B8FB6C
:1016FC000028C4D14FF400532790289029902A90A9
:10170C002B902D9027A920462C93FFF72DFC80467B
:10171C000028B4D1204600F063F94FF080434B4CC5
:10172C00204684E82801E660C4F81080FFF752FBDD
:10173C000028A4D10790089007A92046FFF734FC95
:10174C0000289CD11A901B901D90042219A92046A8
:10175C001997FFF785FB0746002890D1204600F02B
:10176C003FF93B483B4BC66080E8A8000761FFF798
:10177C0031FB002883D1002305A935480593069336
:10178C00FFF712FC00287FF47AAF602613901490B8
:10179C001690082212A92E481296FFF761FB00281A
:1017AC007FF46DAF0C2212A92948FFF759FB0546AF
:1017BC0000287FF464AF264800F012F90223264C6F
:1017CC00264A204684E80C004FF47A73A560E36047
:1017DC002561FFF7FFFA00287FF451AF03900490C6
:1017EC0003A92046FFF7E0FB00287FF448AF0C90DC
:1017FC000D900F9008220BA920460B96FFF730FB9B
:10180C0000287FF43CAF0C220BA92046FFF728FBE5
:10181C0000287FF434AF204600F0E2F82EB0BDE88B
:10182C00F08100BF0010024000100140801A060039
:10183C00000801406000002000540040D800002047
:10184C000038014018010020002C014054010020F8
:10185C009C000020000400402400002000080040F0
:10186C0010B50A4C0146204600F0A8F92046FEF7B8
:10187C0067FC214682B232230548FFF7B1FCBDE874
:10188C0010404FF400510348FEF701BEF401002054
:10189C00D8000020001001401D4B07B59A690320A9
:1018AC0042F001029A619B6903F001030193019BD1
:1018BC00FEF78EFC00226FF00B001146FEF79AFC2F
:1018CC0000226FF00A001146FEF794FC00226FF024
:1018DC0009001146FEF78EFC00226FF00400114641
:1018EC00FEF788FC00226FF003001146FEF782FC25
:1018FC0000226FF001001146FEF77CFC00224FF035
:10190C00FF301146FEF776FC03B05DF804FB00BF18
:10191C00001002407FB502680C4B9A4213D1C023D1
:10192C00029312230393032302A909480593FEF79C
:10193C00C9FC084BDA6942F40012DA61DB6903F482
:10194C0000130193019B07B05DF804FB00540040A9
:10195C00000C01400010024003681D4A84B0934201
:10196C000BD11C4B9A6942F400629A619B6903F497
:10197C0000630093009B04B07047B3F1804F0BD110
:10198C0003F50433DA6942F00102DA61DB6903F032
:10199C0001030193019BEEE70F4A93420AD10D4BD1
:1019AC00DA6942F00202DA61DB6903F002030293A6
:1019BC00029BE0E7094A9342DDD1064BDA6942F01B
:1019CC000402DA61DB6903F004030393039BD2E79F
:1019DC00002C0140001002400004004000080040B0
:1019EC001FB50368134A93420CD14FF40063009364
:1019FC0002236946104801930393FEF763FC05B07C
:101A0C005DF804FBB3F1804F02D102230093F0E7A1
:101A1C000A4A934207D10323009302236946019398
:101A2C0003930748E9E7074A9342E8D14FF4407320
:101A3C00F2E700BF002C0140000801400004004008
:101A4C00000C01400008004010B50268164B86B02F
:101A5C009A4227D103F558439A6902A942F480426D
:101A6C009A619B69114803F480430193019B4FF4E5
:101A7C000073029302230393032300240593FEF7C0
:101A8C0021FC4FF4806302A9084802930394049448
:101A9C00FEF718FC252022462146FEF7ABFB25203D
:101AAC00FEF7DCFB06B010BD003801400008014019
:101ABC007047FEE7FEE7FEE7FEE7704770477047AA
:101ACC0008B5FEF769FBBDE80840FEF7F6BB000061
:101ADC000148FFF7E3BB00BFD80000200F4B1A688A
:101AEC0042F001021A6059680D4A0A405A601A689D
:101AFC0022F0847222F480321A601A6822F4802256
:101B0C001A605A6822F4FE025A604FF41F029A605F
:101B1C004FF00062034B9A60704700BF0010024008
:101B2C000000FFF800ED00E0002103E00B4B5B58D8
:101B3C00435004310A480B4B42189A42F6D30A4AD6
:101B4C0002E0002342F8043B084B9A42F9D3FFF71A
:101B5C00C5FF00F00FF8FFF7D1FC7047281C0008F8
:101B6C000000002004000020040000205802002087
:101B7C00FEE7000070B500250C4E0D4CA41BA41004
:101B8C00A54209D100F022F800250A4E0A4CA41BEC
:101B9C00A410A54205D170BD56F8253098470135E3
:101BAC00EEE756F8253098470135F2E7201C00087F
:101BBC00201C0008201C0008241C0008034611F8F7
:101BCC00012B03F8012B002AF9D17047F8B500BF9F
:101BDC00F8BC08BC9E467047F8B500BFF8BC08BC02
:041BEC009E4670475A
:101BF00002030405060708090A0B0C0D0E0F10104E
:101C000048656C6C6F210A000000000000000000B5
:101C10000102030406070809000000000102030492
:041C20003101000886
:041C24000D010008A6
:041C280000A24A04C8
:0400000508001B359F
:00000001FF
