:020000040800F2
:1000000000500020B5520008315200083352000859
:10001000355200083752000839520008000000002D
:100020000000000000000000000000003B5200083B
:100030003D520008000000003F52000841520008F5
:10004000FD520008FD520008FD520008FD52000854
:10005000FD520008FD520008FD520008FD52000844
:10006000FD520008FD520008FD520008FD52000834
:10007000FD520008FD520008FD520008FD52000824
:10008000FD520008FD520008FD520008FD52000814
:10009000FD520008FD520008FD520008FD52000804
:1000A000FD520008FD520008FD520008FD520008F4
:1000B000FD520008FD520008FD520008FD520008E4
:1000C000FD520008FD520008FD520008FD520008D4
:1000D000FD52000851520008FD520008FD52000870
:1000E000FD520008FD520008FD520008000000000B
:1000F0000000000000000000000000000000000000
:0C01000000000000000000005FF808F1A3
:1001100010B5054C237833B9044B13B10448AFF341
:1001200000800123237010BD280200200000000081
:100130002476000808B5034B1BB103490348AFF30D
:10014000008008BD000000002C020020247600087A
:10015000034613F8012B002AFBD1181A0138704707
:1001600081F0004102E000BF83F0004330B54FEA68
:1001700041044FEA430594EA050F08BF90EA020FD5
:100180001FBF54EA000C55EA020C7FEA645C7FEA68
:10019000655C00F0E2804FEA5454D4EB5555B8BF8B
:1001A0006D420CDD2C4480EA020281EA030382EAFC
:1001B000000083EA010180EA020281EA0303362D8E
:1001C00088BF30BD11F0004F4FEA01314FF4801C61
:1001D0004CEA113102D0404261EB410113F0004F73
:1001E0004FEA03334CEA133302D0524263EB43032A
:1001F00094EA050F00F0A780A4F10104D5F1200EC8
:100200000DDB02FA0EFC22FA05F2801841F1000122
:1002100003FA0EF2801843FA05F359410EE0A5F1F6
:1002200020050EF1200E012A03FA0EFC28BF4CF027
:10023000020C43FA05F3C01851EBE37101F00045DD
:1002400007D54FF0000EDCF1000C7EEB00006EEBEA
:100250000101B1F5801F1BD3B1F5001F0CD3490874
:100260005FEA30004FEA3C0C04F101044FEA4452CB
:1002700012F5800F80F09A80BCF1004F08BF5FEA52
:10028000500C50F1000041EB045141EA050130BD32
:100290005FEA4C0C404141EB010111F4801FA4F1D5
:1002A0000104E9D191F0000F04BF01460020B1FA2A
:1002B00081F308BF2033A3F10B03B3F120020CDA62
:1002C0000C3208DD02F1140CC2F10C0201FA0CF040
:1002D00021FA02F10CE002F11402D8BFC2F1200CA5
:1002E00001FA02F120FA0CFCDCBF41EA0C0190405B
:1002F000E41AA2BF01EB0451294330BD6FEA0404A4
:100300001F3C1CDA0C340EDC04F11404C4F120028E
:1003100020FA04F001FA02F340EA030021FA04F3A0
:1003200045EA030130BDC4F10C04C4F1200220FAF7
:1003300002F001FA04F340EA0300294630BD21FA35
:1003400004F0294630BD94F0000F83F4801306BFFB
:1003500081F480110134013D4EE77FEA645C18BFEF
:100360007FEA655C29D094EA050F08BF90EA020F86
:1003700005D054EA000C04BF1946104630BD91EA7E
:10038000030F1EBF0021002030BD5FEA545C05D181
:100390004000494128BF41F0004130BD14F58004C0
:1003A0003CBF01F5801130BD01F0004545F0FE4134
:1003B00041F470014FF0000030BD7FEA645C1ABF69
:1003C000194610467FEA655C1CBF0B46024650EAA0
:1003D000013406BF52EA033591EA030F41F40021CC
:1003E00030BD00BF90F0000F04BF0021704730B552
:1003F0004FF4806404F132044FF000054FF0000127
:1004000050E700BF90F0000F04BF0021704730B5E7
:100410004FF4806404F1320410F0004548BF4042BC
:100420004FF000013EE700BF42004FEAE2014FEA11
:1004300031014FEA02701FBF12F07F4393F07F4FEC
:1004400081F06051704792F0000F14BF93F07F4F1E
:10045000704730B54FF4607401F0004521F0004161
:1004600020E700BF50EA010208BF704730B54FF0E7
:1004700000050AE050EA010208BF704730B511F0EC
:10048000004502D5404261EB41014FF4806404F124
:1004900032045FEA915C3FF4DCAE4FF003025FEAA6
:1004A000DC0C18BF03325FEADC0C18BF033202EB2E
:1004B000DC02C2F1200300FA03FC20FA02F001FA88
:1004C00003FE40EA0E0021FA02F11444C1E600BF27
:1004D00070B54FF0FF0C4CF4E06C1CEA11541DBFDA
:1004E0001CEA135594EA0C0F95EA0C0F00F0DEF8A5
:1004F0002C4481EA030621EA4C5123EA4C5350EA8A
:10050000013518BF52EA033541F4801143F48013DA
:1005100038D0A0FB02CE4FF00005E1FB02E506F06B
:100520000042E0FB03E54FF00006E1FB03569CF0C0
:10053000000F18BF4EF0010EA4F1FF04B6F5007FC6
:1005400064F5407404D25FEA4E0E6D4146EB060638
:1005500042EAC62141EA55514FEAC52040EA5E50C1
:100560004FEACE2EB4F1FD0C88BFBCF5E06F1ED86B
:10057000BEF1004F08BF5FEA500E50F1000041EBA2
:10058000045170BD06F0004646EA010140EA02004F
:1005900081EA0301B4EB5C04C2BFD4EB0C0541EA71
:1005A000045170BD41F480114FF0000E013C00F386
:1005B000AB8014F1360FDEBF002001F0004170BDAA
:1005C000C4F10004203C35DA0C341BDC04F11404C3
:1005D000C4F1200500FA05F320FA04F001FA05F24F
:1005E00040EA020001F0004221F0004110EBD3701C
:1005F00021FA04F642EB06015EEA430E08BF20EA48
:10060000D37070BDC4F10C04C4F1200500FA04F3EA
:1006100020FA05F001FA04F240EA020001F000417C
:1006200010EBD37041F100015EEA430E08BF20EAEF
:10063000D37070BDC4F1200500FA05F24EEA020E37
:1006400020FA04F301FA05F243EA020321FA04F066
:1006500001F0004121FA04F220EA020000EBD3701D
:100660005EEA430E08BF20EAD37070BD94F0000F1D
:100670000FD101F00046400041EB010111F4801F51
:1006800008BF013CF7D041EA060195F0000F18BF02
:10069000704703F00046520043EB030313F4801F3E
:1006A00008BF013DF7D043EA0603704794EA0C0FF8
:1006B0000CEA135518BF95EA0C0F0CD050EA41060E
:1006C00018BF52EA4306D1D181EA030101F000418B
:1006D0004FF0000070BD50EA410606BF10461946B3
:1006E00052EA430619D094EA0C0F02D150EA0136BF
:1006F00013D195EA0C0F05D152EA03361CBF104600
:1007000019460AD181EA030101F0004141F0FE419E
:1007100041F470014FF0000070BD41F0FE4141F422
:10072000780170BD70B54FF0FF0C4CF4E06C1CEA22
:1007300011541DBF1CEA135594EA0C0F95EA0C0FD7
:1007400000F0A7F8A4EB050481EA030E52EA033592
:100750004FEA013100F088804FEA03334FF08055B3
:1007600045EA131343EA12634FEA022245EA1115E0
:1007700045EA10654FEA00260EF000419D4208BF91
:10078000964244F1FD0404F5407402D25B084FEA3E
:100790003202B61A65EB03055B084FEA32024FF4EA
:1007A00080104FF4002CB6EB020E75EB030E22BF47
:1007B000B61A754640EA0C005B084FEA3202B6EB07
:1007C000020E75EB030E22BFB61A754640EA5C00B6
:1007D0005B084FEA3202B6EB020E75EB030E22BF46
:1007E000B61A754640EA9C005B084FEA3202B6EB47
:1007F000020E75EB030E22BFB61A754640EADC0006
:1008000055EA060E18D04FEA051545EA16754FEA67
:1008100006164FEAC30343EA52734FEAC2025FEA85
:100820001C1CC0D111F4801F0BD141EA00014FF014
:1008300000004FF0004CB6E711F4801F04BF0143E5
:100840000020B4F1FD0C88BFBCF5E06F3FF6AFAE01
:10085000B5EB030C04BFB6EB020C5FEA500C50F191
:10086000000041EB045170BD0EF0004E4EEA113114
:1008700014EB5C04C2BFD4EB0C0541EA045170BD1B
:1008800041F480114FF0000E013C90E645EA060E5F
:100890008DE60CEA135594EA0C0F08BF95EA0C0F8D
:1008A0003FF43BAF94EA0C0F0AD150EA01347FF4D5
:1008B00034AF95EA0C0F7FF425AF104619462CE7AC
:1008C00095EA0C0F06D152EA03353FF4FDAE10460F
:1008D000194622E750EA410618BF52EA43067FF460
:1008E000C5AE50EA41047FF40DAF52EA43057FF4F0
:1008F000EBAE12E74FF0FF3C06E000BF4FF0010CFB
:1009000002E000BF4FF0010C4DF804CD4FEA410C5E
:100910007FEA6C5C4FEA430C18BF7FEA6C5C1BD02B
:1009200001B050EA410C0CBF52EA430C91EA030FAC
:1009300002BF90EA020F0020704710F1000F91EA09
:10094000030F58BF994208BF90422CBFD8176FEAD7
:10095000E37040F0010070474FEA410C7FEA6C5CA5
:1009600002D150EA013C07D14FEA430C7FEA6C5CAC
:10097000D6D152EA033CD3D05DF8040B704700BFD8
:100980008446104662468C461946634600E000BF26
:1009900001B5FFF7B7FF002848BF10F1000F01BDF8
:1009A0004DF808EDFFF7F4FF0CBF012000205DF8C3
:1009B00008FB00BF4DF808EDFFF7EAFF34BF012048
:1009C00000205DF808FB00BF4DF808EDFFF7E0FFE1
:1009D00094BF012000205DF808FB00BF4DF808ED32
:1009E000FFF7CEFF94BF012000205DF808FB00BF99
:1009F0004DF808EDFFF7C4FF34BF012000205DF87B
:100A000008FB00BF4FEA410C7FEA6C5C02D150EA60
:100A1000013C0AD14FEA430C7FEA6C5C02D152EAF6
:100A2000033C02D14FF0000070474FF001007047C7
:100A30004FEA4102B2F1E04324BFB3F5001CDCF100
:100A4000FE5C0DD901F0004C4FEAC0024CEA507038
:100A5000B2F1004F40EB830008BF20F00100704767
:100A600011F0804F21D113F13872BCBF01F000406A
:100A7000704741F480114FEA5252C2F11802C2F19C
:100A8000200C10FA0CF320FA02F018BF40F001001D
:100A90004FEAC1234FEAD32303FA0CFC40EA0C00CF
:100AA00023FA02F34FEA4303CCE77FEA625307D10C
:100AB00050EA01331EBF4FF0FE4040F44000704743
:100AC00001F0004040F0FE4040F40000704700BFDD
:100AD00080F0004002E000BF81F0004142001FBFF3
:100AE0005FEA410392EA030F7FEA226C7FEA236CFC
:100AF0006AD04FEA1262D2EB1363C1BFD2184140F1
:100B000048404140B8BF5B42192B88BF704710F086
:100B1000004F40F4000020F07F4018BF404211F029
:100B2000004F41F4000121F07F4118BF494292EA91
:100B3000030F3FD0A2F1010241FA03FC10EB0C00BD
:100B4000C3F1200301FA03F100F0004302D549424A
:100B500060EB4000B0F5000F13D3B0F1807F06D3F7
:100B600040084FEA310102F10102FE2A51D2B1F1EF
:100B7000004F40EBC25008BF20F0010040EA0300E4
:100B80007047490040EB000010F4000FA2F1010291
:100B9000EDD1B0FA80FCACF1080CB2EB0C0200FA1B
:100BA0000CF0AABF00EBC25052421843BCBFD04069
:100BB0001843704792F0000F81F4000106BF80F4E3
:100BC00000000132013BB5E74FEA41037FEA226CA6
:100BD00018BF7FEA236C21D092EA030F04D092F071
:100BE000000F08BF0846704790EA010F1CBF0020A5
:100BF000704712F07F4F04D1400028BF40F0004002
:100C0000704712F100723CBF00F50000704700F021
:100C1000004343F0FE4040F4000070477FEA226248
:100C200016BF08467FEA23630146420206BF5FEA19
:100C3000412390EA010F40F4800070474FF0000319
:100C400004E000BF10F0004348BF40425FEA000CE0
:100C500008BF704743F0964301464FF000001CE088
:100C600050EA010208BF70474FF000030AE000BFDE
:100C700050EA010208BF704711F0004302D540421C
:100C800061EB41015FEA010C02BF8446014600208E
:100C900043F0B64308BFA3F18053A3F50003BCFAA9
:100CA0008CF2083AA3EBC25310DB01FA02FC634456
:100CB00000FA02FCC2F12002BCF1004F20FA02F25D
:100CC00043EB020008BF20F00100704702F1200250
:100CD00001FA02FCC2F1200250EA4C0021FA02F2B1
:100CE00043EB020008BF20EADC7070474FF0FF0CB6
:100CF0001CEAD0521EBF1CEAD15392EA0C0F93EAB1
:100D00000C0F6FD01A4480EA010C400218BF5FEA52
:100D100041211ED04FF0006343EA501043EA5111C5
:100D2000A0FB01310CF00040B1F5000F3EBF4900BF
:100D300041EAD3715B0040EA010062F17F02FD2AC3
:100D40001DD8B3F1004F40EBC25008BF20F00100A6
:100D5000704790F0000F0CF0004C08BF49024CEABD
:100D6000502040EA51207F3AC2BFD2F1FF0340EA4F
:100D7000C250704740F400004FF00003013A5DDCC0
:100D800012F1190FDCBF00F000407047C2F1000201
:100D9000410021FA02F1C2F1200200FA02FC5FEAEE
:100DA000310040F1000053EA4C0308BF20EADC7038
:100DB000704792F0000F00F0004C02BF400010F4AA
:100DC000000F013AF9D040EA0C0093F0000F01F057
:100DD000004C02BF490011F4000F013BF9D041EA79
:100DE0000C018FE70CEAD15392EA0C0F18BF93EA7B
:100DF0000C0F0AD030F0004C18BF31F0004CD8D1A5
:100E000080EA010000F00040704790F0000F17BF2B
:100E100090F0004F084691F0000F91F0004F14D071
:100E200092EA0C0F01D142020FD193EA0C0F03D1C9
:100E30004B0218BF084608D180EA010000F00040CC
:100E400040F0FE4040F40000704740F0FE4040F4A7
:100E5000400070474FF0FF0C1CEAD0521EBF1CEA46
:100E6000D15392EA0C0F93EA0C0F69D0A2EB030264
:100E700080EA010C49024FEA402037D04FF08053FE
:100E800043EA111143EA10130CF000408B4238BFC3
:100E90005B0042F17D024FF4000C8B4224BF5B1AD1
:100EA00040EA0C00B3EB510F24BFA3EB510340EA1F
:100EB0005C00B3EB910F24BFA3EB910340EA9C00CD
:100EC000B3EBD10F24BFA3EBD10340EADC001B013D
:100ED00018BF5FEA1C1CE0D1FD2A3FF650AF8B42E1
:100EE00040EBC25008BF20F0010070470CF0004CEE
:100EF0004CEA50207F32C2BFD2F1FF0340EAC25019
:100F0000704740F400004FF00003013A37E792F0D9
:100F1000000F00F0004C02BF400010F4000F013A37
:100F2000F9D040EA0C0093F0000F01F0004C02BF32
:100F3000490011F4000F013BF9D041EA0C0195E79B
:100F40000CEAD15392EA0C0F08D142027FF47DAF34
:100F500093EA0C0F7FF470AF084676E793EA0C0F24
:100F600004D14B023FF44CAF08466EE730F0004C22
:100F700018BF31F0004CCAD130F000427FF45CAFB2
:100F800031F000437FF43CAF5FE700BF4FF0FF3C20
:100F900006E000BF4FF0010C02E000BF4FF0010C73
:100FA0004DF804CD4FEA40024FEA41037FEA226C3C
:100FB00018BF7FEA236C11D001B052EA530C18BF5E
:100FC00090EA010F58BFB2EB030088BFC81738BFC3
:100FD0006FEAE17018BF40F0010070477FEA226CB1
:100FE00002D15FEA402C05D17FEA236CE4D15FEAAD
:100FF000412CE1D05DF8040B704700BF84460846E1
:101000006146FFE70FB5FFF7C9FF002848BF10F1A1
:10101000000F0FBD4DF808EDFFF7F4FF0CBF0120E6
:1010200000205DF808FB00BF4DF808EDFFF7EAFF70
:1010300034BF012000205DF808FB00BF4DF808ED2B
:10104000FFF7E0FF94BF012000205DF808FB00BF20
:101050004DF808EDFFF7D2FF94BF012000205DF8A6
:1010600008FB00BF4DF808EDFFF7C8FF34BF0120B3
:1010700000205DF808FB00BF4FEA4002B2F1FE4FCE
:101080000FD34FF09E03B3EB12620DD94FEA00234A
:1010900043F0004310F0004F23FA02F018BF404223
:1010A00070474FF00000704712F1610F01D142020A
:1010B00005D110F0004008BF6FF0004070474FF0BE
:1010C0000000704742000ED2B2F1FE4F0BD34FF03A
:1010D0009E03B3EB126209D44FEA002343F00043AE
:1010E00023FA02F070474FF00000704712F1610FD1
:1010F00001D1420202D14FF0FF3070474FF00000A3
:10110000704700BF10B5044601F066F84FF47A73DB
:10111000B0FBF3F000F088F8002221464FF0FF30DA
:1011200000F042F8002010BD074A08B513680320FC
:1011300043F01003136000F025F80020FFF7E2FFF2
:1011400003F06AFF002008BD00200240024A136835
:1011500001331360704700BF44020020014B186840
:10116000704700BF4402002013B50190FFF7F6FF5F
:101170000446FFF7F3FF019B001B9842F9D302B02E
:1011800010BD0000074A0002D36800F4E06023F4B9
:10119000E0631B041B0C43F0BF6343F400330343C1
:1011A000D360704700ED00E0174B30B5DC68C4F346
:1011B0000224C4F10703251D042B28BF0423062D98
:1011C0004FF0010598BF002405FA03F303F1FF3344
:1011D00088BF033C1940A14005FA04F4013C2240B9
:1011E000002842EA01024FEA0212AFBF00F160405C
:1011F000064B00F00F00D2B2A5BFD2B200F561409D
:101200001A5480F8002330BD00ED00E014ED00E03A
:101210000123420900F01F0003FA00F0014B43F8DC
:101220002200704700E100E00138B0F1807F0AD26F
:10123000F021064B064A586082F82310002007224E
:1012400098601A6070470120704700BF10E000E00E
:1012500000ED00E0044B04281A680CBF42F00402C1
:1012600022F004021A60704710E000E0704708B5F1
:10127000FFF7FCFF08BD00002DE9F74F00221646DE
:10128000654BDFF8A4E1DFF8A4C14FF001080C685A
:1012900008FA06F808EA0404A0457FD14D68122D2B
:1012A00000F0AF8000F28880022D00F0A7807CD88B
:1012B000002D00F08E80012D00F09E804FF00F0970
:1012C000FF2C93BF824606F18045083DD0F800B060
:1012D00092BFB500D0F804B0AD0009FA05F82BEACA
:1012E000080802FA05F588BF00F1040A48EA050576
:1012F000CAF80050D1F804A01AF0805F4ED0474DD4
:10130000464FAD6926F0030845F00105BD61BD6992
:1013100008F1804805F00105019508F5803806F0D0
:10132000030B019D4FEA8B0BD8F8085009FA0BF913
:1013300025EA09093A4DA84268D005F58065A8421A
:1013400066D005F58065A84264D005F58065A842A1
:101350000CBF0325042505FA0BF545EA0905C8F875
:1013600008501D681AF4803F14BF2543A5431D6033
:101370005D681AF4003F14BF2543A5435D609D6876
:101380001AF4801F14BF2543A5439D60DD681AF43D
:10139000001F14BF2C4325EA0404DC600136102E24
:1013A0007FF473AF03B0BDE8F08F032D22D0112D71
:1013B00084D1CA68043281E71A4FBD4209D012D8DD
:1013C000DFF86C904D4504D009F580394D457FF428
:1013D00075AF8A68C2B1012A0CBFC0F81080C0F88E
:1013E000148008226AE77545F3D06545F1D0DFF82F
:1013F0004490EBE7002261E7CA685FE7CA680832F9
:101400005CE7CA680C3259E7042257E70025A2E7D7
:101410000125A0E702259EE70004014000100240DC
:1014200000080140000021100000311000003210BF
:1014300000001110000022100AB101617047090478
:10144000FBE7C3685940C16070470268536913F4F1
:1014500080630DD0536923F4806353610423836355
:10146000202380F83530002380F834300120704785
:10147000184670472DE9F0410C46064615461F46B2
:10148000FFF76CFE8046200CA4B215B3C5B22CE069
:101490007A1C0FD047B9202386F83530002303206B
:1014A00086F83430BDE8F081FFF758FEA0EB080065
:1014B0008742F0D33368012D0CBF5B699B6934EA26
:1014C000030314BF01230023002BE1D10020BDE85A
:1014D000F081C5B2EEE77B1C07D0002FDBD0FFF711
:1014E0003DFEA0EB08008742D5D33368012D0CBF29
:1014F0005B699B6934EA03030CBF01230023002BC3
:10150000E9D1E3E72DE9F0410D4604461646FFF721
:1015100025FE0746C5F30748ADB22368B8F1010FB1
:101520000CBF5A699A6935EA020214BF01200020F3
:1015300008B9BDE8F0815A69520512D51A68012030
:1015400042F400721A605A6922F480625A610423DC
:10155000A363202384F83530002384F83430BDE8B9
:10156000F081731CD9D046B9202384F8353000238C
:10157000032084F83430BDE8F081FFF7EFFDC01B95
:101580008642CAD2F0E770B504460D46FFF7E6FD85
:10159000064623685B691B0601D5002070BD204606
:1015A000FFF753FFA0B96A1CF3D05DB9A36B03200A
:1015B00043F02003A363202384F83530002384F80C
:1015C000343070BDFFF7CAFD801B8542E1D2EDE7E4
:1015D000012070BDF7B5154602681F4613680E4618
:1015E00043F4807313604FF00111089B00220446FE
:1015F000FFF740FF60B9236806F0FE061E61089AF7
:1016000017492046FFF77EFF28B1A36B042B15D0A6
:10161000032003B0F0BD236808995A69204601925F
:101620009B690193019BFFF7AEFF48B1A36B042BAD
:10163000EED12268136843F4007313600120E8E7D9
:10164000012F236802D1EDB21D61E2E72A0A1A6177
:1016500008992046FFF797FF0028E7D12368F2E7B3
:1016600002000100F7B51F46036815461A680E46CA
:1016700042F480621A601A684FF0011142F48072DD
:101680001A60089B00220446FFF7F4FE78B923682D
:10169000F6B206F0FE021A612849089A2046FFF7C2
:1016A00031FF38B1A36B042B01D1012000E00320EE
:1016B00003B0F0BD236808995A69204601929B69DE
:1016C0000193019BFFF75FFF40B1A36B042BEED1A9
:1016D0002268136843F400731360E6E7012F236860
:1016E00021D1EDB21D6108992046FFF74CFF02465B
:1016F0000028EAD1216820460B6843F480730B6010
:10170000089B4FF00111FFF7B5FE0028CFD12368E9
:1017100046F001061E61089A08492046FFF7F2FECE
:101720000028BFD1C4E72A0A1A6108992046FFF7AA
:101730002AFF0028C9D12368D3E700BF02000100B7
:1017400070B504460D46FFF709FD06462268536949
:1017500013F0400301D0002070BD5169C9060BD5BC
:101760005169012021F0100151612022A36384F806
:10177000343084F8352070BD5DB9A36B032043F08D
:101780002003A363202384F83530002384F8343009
:1017900070BDFFF7E3FC801B8542D7D2EDE7000068
:1017A00070B5044600285FD090F8353003F0FF0292
:1017B0001BB980F8342003F06DFC2423226884F8E0
:1017C00035301368294E23F00103136000F00AFD41
:1017D0006368274DB342B0FBF5F588BF4FF49671AF
:1017E000226888BF6943556085BF4FF47A75B1FBA5
:1017F000F5F1691C0131B342116220D85B00B0FBE6
:10180000F3F0C0F30B03032B98BF0420216AE369B4
:10181000D0610B431360E168236900200B439360A0
:10182000A16963690B43D360136843F0010313603C
:101830002023A06384F8353084F8360070BDA16899
:1018400059B903EB4303B0FBF3F040F40040C0F39D
:101850000B03002B08BF0120D8E719214B43B0FB35
:10186000F3F040F44040F2E7012070BDA086010093
:1018700040420F002DE9F74F9B4690F83530044663
:10188000202B894692460C9FBDF8346003D002207D
:1018900003B0BDE8F08F57B34EB342F2107301228C
:1018A0002F49FFF7E7FD80460028F0D194F8343047
:1018B000012BECD00125226884F834501368494686
:1018C00023F400631360212384F83530402384F827
:1018D00036300E9BA063009352465B462046FFF7CE
:1018E00079FE88B1A36B84F83480042B15D10120D4
:1018F000CEE722683B7813615169731E49079BB29A
:101900000DD41E4601375EB10E992046FFF73BFE0F
:101910000028EED0A36B042B1BD00320B8E793B9AB
:101920000E992046FFF72FFE0028F3D12268136896
:1019300043F400731360202384F8340084F83530B6
:1019400084F83600A4E77B78023E1361B6B2023712
:10195000D9E72268136843F400731360C7E700BF38
:10196000020010002DE9F04F9B4690F8353089B009
:10197000202B044603919246129EBDF84C50149FB2
:1019800005D04FF0020A504609B0BDE8F08F5EB3B3
:1019900055B342F2107301226249FFF76BFD804696
:1019A0000028EED194F83430012BEAD04FF0010931
:1019B000226884F834901368039923F40063136059
:1019C000222384F835304023524684F8363000977D
:1019D000A0635B462046FFF745FE824638B1A36B05
:1019E00084F83480042B1ED14FF0010ACBE7236822
:1019F000012D1A681AD122F480621A6072B6236827
:101A00005A6905929A690592059A1A6842F4007219
:101A10001A6062B639462046FFF792FE00284DD084
:101A2000A36B202BE0D14FF0030AACE7022D23D1AA
:101A300042F400621A6072B623685A6906929A6983
:101A40000692069A1A6822F480621A6062B63B46D1
:101A5000002235492046FFF70DFD0028E3D172B67C
:101A600023681A6842F400721A601B69337062B608
:101A700023681B69737024E042F480621A605A691B
:101A800007929B690793079B032D23D9394620466C
:101A9000FFF756FE0028C3D123681B693370226804
:101AA00053695B074DBF1269731C05F1FF35B31C09
:101AB00044BF023D7270ADB21E46E5E723681B6964
:101AC0003370202384F83530002384F8363084F8CE
:101AD000343058E7022DBAD000223B461249204646
:101AE000FFF7C8FC024600289DD121680B6823F44B
:101AF00080630B6072B623680B491B692046337004
:101B00003B46FFF7B7FC00288DD123681A6842F4E2
:101B100000721A601B69737062B623681B69B37028
:101B2000CFE700BF020010000400010003682DE9A8
:101B3000F743DE07054634D42B689C0700F1A780E5
:101B40002B681A0723D5AA69BE4C0123BE49002A77
:101B500000F0158193FAA3F2B2FA82F241F8223032
:101B6000FFF7FCFA0226074696FAA6F396FAA6F3C2
:101B7000626A96FAA6F3B3FA83F303F01F0322FA1C
:101B800003F3DB0740F1F4800120FFF7EDFA2B6847
:101B9000590700F11481EA69002A40F0938100207E
:101BA00020E0A84C636803F00C03042B07D06368A3
:101BB00003F00C03082B18D16368D80315D54FF434
:101BC000003393FAA3F2226893FAA3F3B3FA83F3F0
:101BD00003F01F0322FA03F3D907ADD56B68002B7E
:101BE000AAD1012003B0BDE8F0836B68B3F5803F54
:101BF0001CD1236843F480332360FFF7AFFA4FF41E
:101C00000036074696FAA6F3226896FAA6F3B3FAC8
:101C100083F303F01F0322FA03F3DA078CD4FFF7F0
:101C20009DFAC01B6428EDD90320DBE703BB2368C2
:101C30004FF4003623F480332360236823F4802399
:101C40002360FFF78BFA074696FAA6F3226896FA06
:101C5000A6F3B3FA83F303F01F0322FA03F3DB07BF
:101C60007FF56AAFFFF77AFAC01B6428ECD9DBE78F
:101C7000B3F5A02F236803D143F480232360B8E792
:101C800023F480332360236823F48023B4E76D4C6E
:101C9000636813F00C0F07D0636803F00C03082B84
:101CA00020D16368DF031DD4022393FAA3F22268D4
:101CB00093FAA3F3B3FA83F303F01F0322FA03F3B7
:101CC000DE0702D52B69012B8BD12168F82393FA0B
:101CD000A3F3B3FA83F26B69934021F0F802134344
:101CE00023602DE72A69012302B393FAA3F2B2FA23
:101CF00082F2920002F1844202F584021360FFF73F
:101D00002DFA0226074696FAA6F3226896FAA6F35B
:101D1000B3FA83F303F01F0322FA03F3D807D4D4F2
:101D2000FFF71CFAC01B0228EDD97DE793FAA3F355
:101D3000B3FA83F39B0003F1844303F584031A6031
:101D4000FFF70CFA0226074696FAA6F3226896FADF
:101D5000A6F3B3FA83F303F01F0322FA03F3D907C0
:101D60007FF5EEAEFFF7FAF9C01B0228ECD95BE76E
:101D7000FFF7F4F9C01B02287FF6F6AE54E793FA9A
:101D8000A3F3B3FA83F341F82320FFF7E7F9022620
:101D9000074696FAA6F396FAA6F3626A96FAA6F3AF
:101DA000B3FA83F303F01F0322FA03F3D8077FF596
:101DB000EEAEFFF7D3F9C01B0228EAD934E7214C75
:101DC000224EE36943F08053E361E36903F08053FB
:101DD0000193019B336843F480733360FFF7BEF9CE
:101DE00007463368DA0526D5EB68012B30D1236A24
:101DF00043F001032362FFF7B1F902268146B046A2
:101E000041F2883796FAA6F396FAA6F3002B55D03E
:101E1000226A98FAA8F3B3FA83F303F01F0322FAB5
:101E200003F3DB073FF5B7AEFFF798F9A0EB090026
:101E3000B842E7D9F8E6FFF791F9C01B6428D0D97A
:101E4000F2E600BF001002408004424200700040F1
:101E500033BB236A022623F001032362236A374639
:101E600023F004032362FFF779F941F288398046B1
:101E700096FAA6F396FAA6F313B3226A97FAA7F393
:101E8000B3FA83F303F01F0322FA03F3D8077FF5B5
:101E900082AEFFF763F9A0EB08004845E8D9C3E636
:101EA000052B236A03D143F0040323629FE723F049
:101EB00001032362236A23F004039BE7626AA8E715
:101EC000626ADBE7444C636803F00C03082B3FF4C1
:101ED00088AE022A4FF0807359D193FAA3F3B3FA74
:101EE00083F300229B0003F1844303F584031A600B
:101EF000FFF734F94FF00076074696FAA6F322680A
:101F000096FAA6F3B3FA83F303F01F0322FA03F35E
:101F1000D90736D42B6AB3F5803F05D16268A9682A
:101F200022F400320A4362606268696A22F4741221
:101F30000B43134363604FF0807393FAA3F3B3FA38
:101F400083F301229B0003F1844303F584031A60A9
:101F5000FFF704F94FF00075064695FAA5F32268DD
:101F600095FAA5F3B3FA83F303F01F0322FA03F300
:101F7000DA073FF514AEFFF7F1F8801B0228ECD921
:101F800052E6FFF7EBF8C01B0228B6D94CE693FAED
:101F9000A3F3B3FA83F300229B0003F1844303F518
:101FA00084031A60FFF7DAF84FF00075064695FAD9
:101FB000A5F3226895FAA5F3B3FA83F303F01F03A0
:101FC00022FA03F3DB077FF5EAADFFF7C7F8801BC2
:101FD0000228ECD928E600BF0010024030B5204BA3
:101FE00087B002AC03F1100522461868596808331F
:101FF00003C2AB421446F7D101238DF8043002230B
:10200000184C8DF80530616801F00C03082B24D1C1
:102010004FF4701393FAA3F3B3FA83F201F470133D
:10202000D34006AA134413F8100CCB0313D56368EE
:102030004FF4003292FAA2F2B2FA82F203F40033C1
:10204000D34006AA134413F8142C074BB3FBF2F346
:10205000584307B030BD054BFAE70348F9E700BF26
:10206000407600080010024000127A0000093D008E
:10207000554A2DE9F0411368064603F007038B42E9
:102080000D4630D3326894073AD4D00740D44E4A34
:10209000136803F007039D42C0F0848032684B4C04
:1020A00012F0040F40F08980130706D56368326987
:1020B00023F4605343EAC2036360FFF78FFF636852
:1020C000F02292FAA2F2B2FA82F203F0F003D340C5
:1020D0003F4AD35CD8403F4B18600020FFF712F80E
:1020E0000020BDE8F081136823F007030B43136061
:1020F000136803F007039942C4D00120BDE8F081C2
:102100003249B0684B6823F0F00303434B60BCE7EF
:1021100072682E4C012A28D14FF4003393FAA3F1B0
:10212000216893FAA3F3B3FA83F303F01F0321FAB0
:1021300003F3D907E1D5636841F2883823F003033C
:102140001A436260FFF70AF873680746012B12D141
:10215000636803F00C03042B99D0FEF7FFFFC01B4C
:102160004045F5D90320BDE8F081022A0CBF4FF0AD
:1021700000730223D2E7022B0FD1636803F00C0334
:10218000082B84D0FEF7EAFFC01B4045F5D9E9E7EC
:10219000FEF7E4FFC01B4045E4D8636813F00C0F62
:1021A000F6D174E7136823F007032B431360136819
:1021B00003F007039D42A0D170E76368F16823F440
:1021C000E0630B4363606FE70020024000100240B1
:1021D000B1760008BC010020014B1868704700BFB1
:1021E000BC010020084B4FF4E0625B6892FAA2F257
:1021F000B2FA82F203F4E063D340044AD35C044AA7
:102200001068D840704700BF00100240C176000837
:10221000BC010020084B4FF460525B6892FAA2F2B6
:10222000B2FA82F203F46053D340044AD35C044A06
:102230001068D840704700BF00100240C176000807
:10224000BC010020036A70B523F001030362036A36
:10225000446882690D6822F073022A438D6823F076
:1022600002032B430A4DA8420BD1CD6823F008038B
:102270002B438E694D6924F44074354323F00403E5
:102280002C43446082614A684263036270BD00BFB0
:10229000002C0140036A70B523F480730362036A63
:1022A0004468C2690D6822F073022A438D6823F4E2
:1022B000007343EA05230B4DA8420DD1CD6823F4EA
:1022C000006343EA05238E694D6924F44054354385
:1022D00023F4806344EA05144460C2614A68C2631F
:1022E000036270BD002C0140036A30B523F48053B3
:1022F0000362036A4468C2690D6822F4E64242EA56
:1023000005228D6823F4005343EA0533064DA842A5
:1023100002BF4D6924F4804444EA85144460C261DC
:102320004A680264036230BD002C0140184A036809
:1023300090420AD0B0F1804F07D0A2F5943290427B
:1023400003D002F58062904215D14A6823F07003F1
:1023500013430F4A90420AD0B0F1804F07D0A2F544
:102360009432904203D002F58062904203D1CA6851
:1023700023F44073134303608B68C3620B6883626A
:10238000034B984204BF0B69036301234361704709
:10239000002C014010B50446A0B190F8393003F08C
:1023A000FF021BB980F8382002F096FE0223206855
:1023B00084F83930211DFFF7B9FF0123002084F88C
:1023C000393010BD012010BD036A70B523F0100331
:1023D0000362036A446882690D6822F4E64242EAB5
:1023E00005228D6823F0200343EA05130B4DA84214
:1023F0000DD1CD6823F0800343EA05138E694D6942
:1024000024F44064354323F0400344EA85044460E7
:1024100082614A688263036270BD00BF002C014084
:1024200038B590F838300446012B4FF0020025D023
:10243000012384F8390084F838300C2A18D8DFE8F2
:1024400002F0071717171E1717172F171717400037
:102450002068FFF7F7FE236809699A6942F00802CD
:102460009A619A6922F004029A619A690A439A6110
:102470000123002084F8393084F8380038BD206802
:10248000FFF7A2FF236809699A6942F400629A6122
:102490009A6922F480629A619A6942EA0122E6E727
:1024A0002068FFF7F7FE23680969DA6942F008023D
:1024B000DA61DA6922F00402DA61DA690A43DA6180
:1024C000D6E72068FFF710FF23680969DA6942F44C
:1024D0000062DA61DA6922F48062DA61DA6942EA7A
:1024E0000122ECE710B50124036A8C4023EA0403BF
:1024F0000362036A8A401A43026210BD10B50446A3
:1025000001220068FFF7EEFF2368064A002093428D
:1025100002BF5A6C42F400425A641A6842F0010247
:102520001A6010BD002C014090F8383010B5012B16
:102530004FF0020316D080F8393091E81800234399
:102540008C6802682343CC6823430C6923434C699D
:10255000896923430B435364012380F839300023F6
:1025600080F83830184610BD90F8383010B5012B7F
:102570004FF0020318D080F8393003680C685A68AD
:10258000496822F070025A605A6822435A609A6879
:1025900022F080029A609A680A439A60012380F8C8
:1025A0003930002380F83830184610BD2DE9F04747
:1025B0000568C2682B69016923F4405313432B61FA
:1025C0008368EA680B43416922F4B05222F00C029E
:1025D0000B431343EB606B69826923F4407313432D
:1025E0006B61404B81469D424FF0190446D1FFF785
:1025F00011FE04FB00F3D9F804604FF06408B60044
:10260000B3FBF6F3B3FBF8F31E01FFF703FE6043E1
:10261000D9F804309B00B0FBF3F7FFF7FBFD6043F4
:10262000D9F804309B00B0FBF3F3B3FBF8F308FBDD
:1026300013731B013233B3FBF8F303F0F007FFF71A
:10264000E9FD6043D9F804209200B0FBF2FAFFF7ED
:10265000E1FD6043D9F804309B00B0FBF3F3B3FB1A
:10266000F8F308FB13A31B013233B3FBF8F303F0B9
:102670000F033B433344AB60BDE8F087FFF7B2FD87
:1026800004FB00F3D9F804604FF06408B600B3FB14
:10269000F6F3B3FBF8F31E01FFF7A4FD6043D9F88E
:1026A00004309B00B0FBF3F7FFF79CFD6043D9F8C3
:1026B00004309B00B0FBF3F3B3FBF8F308FB137398
:1026C0001B013233B3FBF8F303F0F007FFF78AFD89
:1026D0006043D9F804209200B0FBF2FAFFF782FDC4
:1026E000B7E700BF00380140F8B504460E4615466E
:1026F000FEF734FD07462268136836EA030301D16A
:102700000020F8BD6B1CF7D0C5B923680320DA6838
:1027100022F08002DA60DA6822F02002DA60DA68F9
:1027200022F48072DA605A6922F001025A610123B0
:1027300084F83930002384F83830F8BDFEF70EFDF8
:10274000C01B8542D7D2E0E710B5044630B390F8FD
:10275000393003F0FF021BB980F8382002F034FD55
:102760000223226884F83930D368204623F40053CA
:10277000D360FFF71BFF236800201A6922F4904200
:102780001A615A6922F02A025A61DA6842F4005248
:10279000DA600123E06384F8393010BD012010BDF8
:1027A00070B50D4690F839100446C9B201291E468D
:1027B00001D022294DD1002D49D0002A47D094F8CC
:1027C0003830012B45D0012384F838300023E363EF
:1027D00094F83930A284222B0CBF32231223E284D6
:1027E00084F83930E28C8AB9324640212046FFF71E
:1027F0007BFFC0B994F83930322B0CBF2223012360
:1028000084F83930002384F8383070BDA368013A69
:10281000B3F5805FE2844FF08001324620460DD14F
:10282000FFF762FF08B1032070BD2B882268C3F355
:1028300008035360236943B90235D3E7FFF754FF18
:102840000028F0D123682A785A600135CAE70120B0
:1028500070BD022070BD90F83930DBB2012B01D081
:10286000122B28D129B322B390F83830012B22D073
:10287000012380F838300023C3638285C28590F835
:10288000392080F83830122A0CBF32222222036805
:1028900080F83920DA68816242F48072DA605A691D
:1028A000002042F001025A61DA6842F02002DA6048
:1028B00070470120704702207047704770470268D8
:1028C00013B511680446C907D36805D5DB0542BFB7
:1028D000C36B43F00103C36311685369880703F0B6
:1028E000010304D51BB1E16B41F00401E163116800
:1028F000490704D51BB1E16B41F00201E1631168A6
:10290000080704D51BB1E36B43F00803E3631168C8
:10291000D368890633D5980631D594F8393003F059
:10292000EF03222B2BD1A3682169B3F5805FA36A43
:1029300076D1526800296FD1C2F3080223F8022B26
:10294000A362E38D013B9BB2E385C3B923682046B4
:10295000DA6822F02002DA6094F83920322A17BFB0
:10296000DA68122322F48072DA601FBF5A6922F0FB
:1029700001025A61012384F8393002F0FFFA23681A
:102980001968DA68090622D5100620D594F839208E
:1029900002F0DF02122A1AD1A268B2F5805F226A21
:1029A0004CD11188C1F3080159602169002943D134
:1029B00002322262E28C013A92B2E2843AB9DA68D7
:1029C00022F08002DA60DA6842F04002DA601968C8
:1029D000DA68490610D552060ED5DA68204622F08C
:1029E0004002DA6094F83930322B0CBF22230123E5
:1029F00084F83930FFF761FFE36B5BB12368204651
:102A00001A6801925B680193019B012384F83930B5
:102A1000FFF754FF02B010BDD2B223F8012B8FE7AD
:102A200021B9591C5268A1621A708AE75268591C70
:102A3000A16202F07F02F7E70132BAE7511C21627E
:102A400012785A60B6E7000010B53B231E4A752184
:102A5000D02001F0EBFA712803D03C211A4801F094
:102A6000A7FE012380226B21D02001F0BFFA0123B1
:102A70006B211A46D02001F0B9FA012300226C2103
:102A8000D02001F0B3FA012300221921D02001F057
:102A9000ADFA012303221D21D02001F0A7FA012362
:102AA00003221A21D02001F0A1FA012310221B21B8
:102AB000D02001F09BFABDE81040012308221C2120
:102AC000D02001F093BA00BF507600087FB50023F4
:102AD0000293ADF80C3058230193234B02AA0093C4
:102AE0003B210623D02001F0D7FA9DF80A209DF85B
:102AF0000B509DF808309DF8090045EA02259DF825
:102B00000D409DF80C2040EA032044EA0224174BB4
:102B10002DB224B200B218805D809C80FEF792F83E
:102B20004FF08141FEF7E2F84FF06051FEF7DEF81A
:102B30000F4E30602846FEF785F84FF08141FEF7D2
:102B4000D5F84FF06051FEF7D1F870602046FEF7DF
:102B500079F84FF08141FEF7C9F84FF06051FEF768
:102B6000C5F8B06004B070BD50760008F0020020D7
:102B7000CC0200200023F0B585B00293ADF80C30F4
:102B80007B230193264B02AA009343210623D020E6
:102B900001F082FA9DF80A209DF80B509DF808304C
:102BA0009DF8090045EA02259DF80D409DF80C208E
:102BB00040EA032044EA02241A4B2DB224B200B2A8
:102BC00018805D809C80FEF73DF8174F1749FEF78F
:102BD0008DF84FF06051FEF789F83968FDF77CFFFA
:102BE000134E30602846FEF72DF81049FEF77EF8A8
:102BF0004FF06051FEF77AF87968FDF76DFF70606D
:102C00002046FEF71FF80949FEF770F84FF06051B3
:102C1000FEF76CF8B968FDF75FFFB06005B0F0BD76
:102C200050760008BA0200200000002000007A441C
:102C3000C00200201FB5012322223721D02001F03D
:102C4000D5F901236A211A46D02001F0CFF9AD232E
:102C50002F4A0021182001F0E9F948282C4C03D014
:102C6000AE21204601F0A4FD01230B211A461820B5
:102C700001F0BCF9012300220A21182001F0B6F965
:102C800001230F220A21182001F0B0F9B62303AA6C
:102C90000193009403231021182001F0FDF99DF801
:102CA0000C001C4C8038FDF7CDFF4FF06E51FEF745
:102CB0001DF84FF07E51FDF711FF20609DF80D00CB
:102CC0008038FDF7BFFF4FF06E51FEF70FF84FF061
:102CD0007E51FDF703FF60609DF80E008038FDF720
:102CE000B1FF4FF06E51FEF701F84FF07E51FDF746
:102CF000F5FE0123A06000220A21182001F076F9D8
:102D0000012316220A21182001F070F904B010BD29
:102D100050760008E40200202DE9FF4700233C4CD8
:102D200002932246CDF80B300221D723182001F060
:102D30007DF9C20763D5DA230094019302AA072321
:102D40000321182001F0A8F99DF80E301B0759D473
:102D50009DF80B209DF80A509DF8093045EA0225A0
:102D60009DF808009DF80D209DF80C4040EA0320D6
:102D700044EA0224274B00B22DB224B218805D80B1
:102D80009C80254BDFF8A090D3F800A0DFF89C8052
:102D9000FDF758FF5146FDF7A9FF204FD9F8001065
:102DA000FDF7A4FFD8F80010FDF796FE3968FDF78F
:102DB0009DFF1B4E30602846FDF744FF5146FDF74E
:102DC00095FFD9F80410FDF791FFD8F80410FDF72E
:102DD00083FE7968FDF78AFF70602046FDF732FFB9
:102DE0005146FDF783FFD9F80810FDF77FFFD8F8AB
:102DF0000810FDF771FEB968FDF778FFB06004B008
:102E0000BDE8F087074A538801335380F7E700BFD6
:102E100050760008B40200201C0000202C00002086
:102E2000D8020020B5130020E4020020200000207A
:102E300008B5FFF709FEFFF7FDFE044800F032FA7F
:102E4000BDE80840002000F033BA00BF9A99193F4E
:102E5000024B0348596801F033B800BF4802002014
:102E60000C000020024B0348196801F029B800BF8C
:102E700048020020140000200B4B10B59C680B4941
:102E80002046FEF7E5F848B109492046FEF7CCF8A0
:102E900020B107492046FDF721FE10BD0549204617
:102EA000FDF71AFE10BD00BF48020020000034C329
:102EB0000000B4420000874330B587B0FFF706FE3C
:102EC000FFF758FEFFF728FF02F0F0F9304C314DC4
:102ED00023682860C01AFDF7B1FE2F49FDF7BAFF3D
:102EE00000F0E6F92B682D4A23602D4C11685068DC
:102EF00005942C4C2C4BA56801F1004104956568A4
:102F000000F100400395246802949C6804F1004499
:102F100001941C6800945B68926800F0D1F9642108
:102F2000224A234BB2F90000224C90FBF1F01880AA
:102F3000B2F90200B2F9042090FBF1F092FBF1F239
:102F40009A801D4A58801188D980518892881981A9
:102F50005A811A4A1188998151889288D9811A8296
:102F6000FFF780FF1649FDF7C1FEFEF785F82080C8
:102F7000FFF76EFF1249FDF7B9FEFEF77DF860809E
:102F8000FFF77AFFFEF778F8A08007B030BD00BFEA
:102F9000540200205802002000007A44CC02002095
:102FA00048020020D8020020C0020020F0020020C9
:102FB0002614002091130020BA020020B402002041
:102FC000000020411FB58C2301930A4B03AA0093F4
:102FD00000210323EE2001F047F89DF80D009DF835
:102FE0000E3043EA00239DF80C0043EA004005B090
:102FF0005DF804FB61760008014B1868704700BF5C
:10300000F8020020000000002DE9F047744E3378EC
:10301000002B00F0AD80734B1A789A46002A00F01E
:10302000A780714A7149538909689089A1EB032EE1
:1030300080FB0E01C30D108943EA412380FB0E0182
:10304000B2F80680C40988FB0E8944EA4164CD11B8
:103050009188528809044FEA1820641840EA0960F0
:103060004FEAC23203F5FA6745F100054FEA29211C
:10307000801841F10001B7F5FA6FA7BF00239E4603
:103080005B4303EB8303BCBF4FEA630E9B10C01A84
:1030900061EBE371564BB4EB0E041B6865EBEE7508
:1030A000A0FB038903FB01994FEA585242EAC92267
:1030B000121B4FEA695363EB0503D00B40EA434010
:1030C000FDF7C0FD4B49FDF7C5FE4B4B04461860AC
:1030D0003846FDF7B7FD4749FDF7BCFE474B484969
:1030E00018602046FDF7B6FEFDF79EF938A3D3E938
:1030F000002302F0ABFD02460B4600204149FDF7DC
:1031000033F835A3D3E90023FDF7E2F9FDF790FC8E
:103110003D4C3E4B054618602746002304F14C0801
:1031200054F8041F184644F8041CFDF7D7FCA045CA
:103130000346F5D12946FD64FDF7D0FC3449FDF77F
:1031400089FE344B1860FDF797FF64235843324BD8
:10315000324A186000231178EE200122503133707A
:103160008AF8003000F042FF02F09EF82C4B186005
:1031700002F09AF82A4B2B4C1B68C01A0A2814D963
:10318000337893B9174B1D787DB9FFF71BFF0122E8
:10319000164B32701860214BEE2019782B464031C7
:1031A00000F024FF02F080F8206002F07DF8236830
:1031B000C01A0A280AD9337843B10A4C23782BB9AC
:1031C000FFF700FF0A4B186001232370BDE8F0876A
:1031D00000000060955BC83F0000000040A5E5408E
:1031E00075020020740200205C02002070020020A2
:1031F0006C0200200000C84250030020540300204D
:1032000000507D440000F03FFC0200204C030020F1
:103210000000A041F8020020A71400203800002080
:103220007C020020780200200123F0B500241A4619
:1032300085B01E21EE2000F0D9FE0A2002F038F8F9
:1032400008222546134B144F144E1A707C2304F1A8
:10325000A001019303AA0223009789B2EE208DF802
:103260000C508DF80D5000F017FF9DF80C209DF8C4
:103270000D3043EA0223A3530234102CE6D100237D
:103280000021074A42F823100133142BFAD105B06C
:10329000F0BD00BF38000020617600085C0200200D
:1032A000FC020020014B1860704700BF580300204B
:1032B000014B1860704700BF5C0300200000000055
:1032C0002DE9F04F9846A84B99B01B680E910293D8
:1032D000A54B01465B6810920193A34B0D909D682E
:1032E000DC68FDF703FD0E9906460846FDF7FEFC77
:1032F00001463046FDF7F2FB109906460846FDF7F9
:10330000F5FC01463046FDF7E9FBFDF78DF802F0CC
:1033100001FEFDF78DFB00210746FDF77BFE00282F
:1033200040F0808524990846FDF7E0FC2599064683
:103330000846FDF7DBFC01463046FDF7CFFB26993A
:1033400006460846FDF7D2FC01463046FDF7C6FBAF
:10335000FDF76AF802F0DEFDFDF76AFB0021064684
:10336000FDF758FE002840F05D854046FDF75CF80B
:103370007BA3D3E90023FDF7ABF8FDF759FB0890D9
:103380002298FDF751F876A3D3E90023FDF7A0F8C2
:10339000FDF74EFB09902398FDF746F870A3D3E99B
:1033A0000023FDF795F8FDF743FB02990A900846C4
:1033B000FDF794FB019903900846FDF78FFB294622
:1033C00005902846FDF78AFB214606902046FDF72A
:1033D00085FB029914900846FDF788FC0199804608
:1033E0000298FDF783FC29460F900298FDF77EFCBA
:1033F000019912900846FDF779FC21460790019843
:10340000FDF774FC29460B902846FDF76FFC21461A
:1034100004902046FDF76AFC39460C904FF07E5030
:10342000FDF718FD314611904FF07E50FDF712FD6B
:10343000064601462498FDF759FC314682462598F8
:10344000FDF754FC314607462698FDF74FFC5146E0
:1034500081460398FDF74AFC394613900398FDF71F
:1034600045FC494683460398FDF740FC5146064615
:103470000598FDF73BFC514615904046FDF736FC9C
:10348000594616902046FDF731FC169B014618461A
:10349000FDF722FB314616902846FDF727FC169BC8
:1034A00001461846FDF71AFB514616900798FDF79E
:1034B0001DFC169B01461846FDF710FB3946169079
:1034C0000598FDF713FC2946FDF710FC169B0146F5
:1034D0001846FDF703FB494616900598FDF706FCD4
:1034E0002146FDF703FC169B01461846FDF7F6FA48
:1034F000514616900498FDF7F9FB169B01461846B5
:10350000FDF7EAFA514616900C98FDF7EFFB169B73
:1035100001461846FDF7E0FA139917902046FDF78B
:10352000E5FB394616904046FDF7E0FB169B014649
:103530001846FDF7D3FA314616900198FDF7D6FBF1
:10354000169B01461846FDF7C7FA15990646284608
:10355000FDF7CCFB0146304608E000BFAFF300802A
:10356000399D52A246DF913F3C000020FDF7B6FA9C
:10357000394606460798FDF7B9FB01463046FDF788
:10358000ABFA394606460498FDF7B0FB01463046D3
:10359000FDF7A4FA494606460698FDF7A7FB214623
:1035A000FDF7A4FB01463046FDF798FA394606467A
:1035B0000C98FDF79BFB01463046FDF78DFA179AF4
:1035C000169011461046FDF791FB169B06461946CC
:1035D0001846FDF78BFB01463046FDF77FFAFCF7F6
:1035E00023FF02F097FCFDF723FA139B06462946BA
:1035F00003F10040FDF77AFB594613900198FDF75F
:1036000075FB139B01461846FDF768FA4946834649
:103610004046FDF76BFB01465846FDF75FFA1599EA
:1036200080462046FDF762FB01464046FDF756FA0C
:10363000494680460798FDF759FB01464046FDF78D
:103640004BFA394680460698FDF750FB2146FDF7B8
:103650004DFB01464046FDF741FA49468046049835
:10366000FDF744FB01464046FDF736FA49468046E1
:103670000C98FDF73BFB01464046FDF72FFA01464B
:103680008046FDF72BFA0B9915900846FDF726FAB0
:10369000039983462846FDF729FB01465846FDF766
:1036A0001BFA119983460D98FDF720FB01465846F9
:1036B000FDF712FA06990D902046FDF717FB0F99BA
:1036C00083460846FDF70AFA01465846FDF706FA12
:1036D000119983460E98FDF709FB01465846FDF700
:1036E000FBF941460E902846FDF700FB0499169021
:1036F0004FF07C50FDF7F0F90C99FDF7EDF93146EC
:10370000FDF7F4FA129983460B98FDF7E5F9414667
:10371000FDF7ECFA01465846FDF7E0F95146FDF792
:10372000DBF906F1004341460C9001981393FDF735
:10373000DDFA294617900198FDF7D8FA214682460E
:103740000298FDF7D3FA01465046FDF7C5F9314618
:10375000FDF7CCFA214682462846FDF7C7FA0F99B5
:10376000FDF7BCF94146FDF7C1FA01465046FDF7A9
:10377000B5F93946FDF7B0F931460F902846FDF707
:10378000B5FA079907464FF07C50FDF7A5F9049963
:10379000FDF7A2F94146FDF7A9FA0B998246129866
:1037A000FDF79CF93146FDF7A1FA01465046FDF7B9
:1037B00095F94946FDF790F9069B0D990B9003F199
:1037C0000040FDF793FA0E9981460598FDF78EFAB1
:1037D00001464846FDF782F90C9981461698FDF797
:1037E00085FA01464846FDF777F913998146204648
:1037F000FDF77CFA1799FDF771F90F99FDF776FA45
:1038000001464846FDF76AF90B9981463846FDF7AF
:103810006DFA01464846FDF761F90799129008468E
:10382000FDF75CF901464FF07E50FDF755F904991C
:1038300081460846FDF752F901464846FDF74CF926
:10384000119981461098FDF751FA01464846FDF757
:1038500043F9414683462046FDF748FA41468146F2
:103860000298FDF743FA0D9982461498FDF73EFA47
:103870000E9980460398FDF739FA01464046FDF758
:103880002DF94FF0814180460198FDF72FFA5946F6
:10389000FDF72CFA01464046FDF71EF949468046E1
:1038A0000C98FDF723FA01464046FDF717F95146FB
:1038B00080463846FDF712F90F99FDF717FA0146D1
:1038C0004046FDF70BF9314607462046FDF70EFA54
:1038D000159980460198FDF709FA01464046FDF723
:1038E000FBF80B99FDF702FA01463846FDF7F6F8AA
:1038F000314604903046FDF7F1F8314600F10048BA
:103900000198FDF7F3F9039B07460D9903F1004079
:10391000FDF7ECF90E9903901498FDF7E7F9039B76
:1039200001461846FDF7DAF84FF08141039028462A
:10393000FDF7DCF95946FDF7D9F9039B0146184616
:10394000FDF7CAF8414683462846FDF7CFF95146B0
:10395000FDF7C2F80C99FDF7C9F901465846FDF785
:10396000BDF8394682464846FDF7B8F80F99FDF78D
:10397000BDF901465046FDF7B1F83146814602983F
:10398000FDF7B4F9159906462846FDF7AFF901464B
:103990003046FDF7A1F80B99FDF7A8F90146484616
:1039A000FDF79CF80D9983460598FDF79FF90E9950
:1039B00006460698FDF79AF901463046FDF78EF85F
:1039C000414606462046FDF791F91799FDF786F81E
:1039D0000C99FDF78BF901463046FDF77FF81399F6
:1039E00006460298FDF782F91699FDF777F80F99C8
:1039F000FDF77CF901463046FDF770F8394606467A
:103A00000B98FDF773F901463046FDF767F81299F8
:103A100082460846FDF76AF9049906460846FDF70E
:103A200065F901463046FDF759F8594606465846AD
:103A3000FDF75CF901463046FDF750F85146064661
:103A40005046FDF753F901463046FDF747F8FCF7BD
:103A5000EBFC02F05FFAFCF7EBFF01464FF07E5003
:103A6000FDF7F8F9AA4906460B680A6806930B6841
:103A7000079203930B6808990593019BA54F03F1E7
:103A80000040FDF733F9099981462846FDF72EF9E4
:103A900001464846FDF720F80A9981462046FDF781
:103AA00025F901464846FDF717F84FF07C51FDF720
:103AB0001DF9314681461298FDF718F9069BD7F893
:103AC00000801946FDF712F901464846FDF704F853
:103AD0004146FDF70BF90299FDF700F80899814678
:103AE0000298FDF703F90A9906902846FDF7FEF8BB
:103AF000069B01461846D7F80080FCF7EFFF0999AE
:103B000006902046FDF7F2F8069B01461846FCF7A2
:103B1000E3FF4FF07C51FDF7E9F831460690049839
:103B2000FDF7E4F8079A1146FDF7E0F8069B014619
:103B30001846FCF7D1FF4146FDF7D8F80199FCF78C
:103B4000CDFF3B688046099902980693FDF7CEF8B1
:103B50000A9904900198FDF7C9F8049A01461046A5
:103B6000FCF7BAFF089904902046FDF7BFF8049AC5
:103B700001461046FCF7B2FF4FF07C51FDF7B6F856
:103B8000314604905846FDF7B1F80399FDF7AEF8B9
:103B9000049A01461046FCF79FFF069B1946FDF765
:103BA000A5F82946FCF79AFF0A9983460298FDF783
:103BB0009DF8099902900198FDF798F8029B01463B
:103BC0001846FCF78BFF089901902846FDF78EF800
:103BD000019B01461846FCF77FFF4FF07C51FDF733
:103BE00085F8314605465046FDF780F80599FDF702
:103BF0007DF83F6801462846FCF76EFF3946FDF721
:103C000075F82146FCF76AFF494606464846FDF727
:103C10006DF8414604464046FDF768F801462046E7
:103C2000FCF75CFF594604465846FDF75FF801462D
:103C30002046FCF753FF314604463046FDF756F860
:103C400001462046FCF74AFFFCF7EEFB02F062F962
:103C5000FCF7EEFE01464FF07E50FDF7FBF80546FF
:103C600001464846FDF742F82B4C0746206029469E
:103C70004046FDF73BF82946814660605846FDF70F
:103C800035F829468046A0603046FDF72FF80146FA
:103C9000E0604846FDF72AF8414605463846FDF7FC
:103CA00025F801462846FCF717FF0146FCF716FFEA
:103CB000FCF7BAFB01F074FF0022184BFCF708FC7C
:103CC00011A3D3E90023FCF72DFDFCF7B1FE279BE0
:103CD0001860D4F80090D4F804A049464846FDF78F
:103CE00005F8514606465046FDF700F801463046B5
:103CF000FCF7F2FEA568064629462846FCF7F6FFC3
:103D00000EE000BFAFF30080182D4454FB210940A2
:103D1000580300205C0300203C0000200080664027
:103D200001463046FCF7D8FED4F80C8006464146E2
:103D30004046FCF7DBFF01463046FCF7CFFEFCF7C0
:103D400073FB06460F4648465146FCF7CFFF4146F7
:103D500081462846FCF7CAFF01464846FCF7BEFEEE
:103D60000146FCF7BBFEFCF75FFB32463B4601F029
:103D70006BFF0022304BFCF7ABFB2DA3D3E90023F4
:103D8000FCF7D0FCFCF754FE279B58602568D4F85C
:103D9000048029462846FCF7A9FF414606464046CE
:103DA000FCF7A4FF01463046FCF798FED4F80890D3
:103DB000064649464846FCF799FF01463046FCF75F
:103DC0008BFEE468064621462046FCF78FFF01463D
:103DD0003046FCF781FEFCF727FB06460F464046BF
:103DE0004946FCF783FF214680462846FCF77EFFC4
:103DF00001464046FCF772FE0146FCF76FFEFCF7F9
:103E000013FB32463B4601F01FFF00220A4BFCF732
:103E10005FFB07A3D3E90023FCF784FCFCF708FE53
:103E2000279B986019B0BDE8F08F00BFAFF300800A
:103E3000182D4454FB21094000806640B0F8043836
:103E4000B0F8043801339BB2A0F80438B0F8023857
:103E50009BB2C154B0F802380133C3F30A03A0F88F
:103E6000023801207047B0F804389BB2A3B1B0F813
:103E70000438013B9BB2A0F80438B0F800389BB27C
:103E8000C35CDBB20B70B0F800380133C3F30A0334
:103E9000A0F800380120704718467047B0F80408B1
:103EA00080B2704700231A46A0F80038A0F8023804
:103EB000A0F80438C2540133B3F5006FFAD170474B
:103EC00070B50E464568044629464FF07E50FCF713
:103ED00003FE3146FCF70AFF064621682846FCF738
:103EE00005FF3146FCF7FAFD206070BD70B5154640
:103EF000B0FA80F20E460C4C520920464FF40041B5
:103F0000FDF79AFAB6FA86F2204652094FF480413C
:103F1000FDF792FAB5FA85F22046BDE870405209E5
:103F20004FF40051FDF788BA0010014010B503248A
:103F3000002201201146FFF7D9FF642001F0B8F9F3
:103F4000002201211046FFF7D1FF642001F0B0F9F3
:103F5000002101220846FFF7C9FF642001F0A8F9FB
:103F6000013CE5D1BDE81040012211461046FFF7A3
:103F7000BDBF0000014B1B6818647047C4140020CB
:103F8000014B1B68D8637047C4140020014B1B68A9
:103F900098637047F4150020014B1B68D863704785
:103FA0003C15002010B50421084C0948FEF7A6FA7C
:103FB00008210848FEF7A2FA08212046FEF79EFADB
:103FC0002046BDE810400C21FEF798BAC41400202A
:103FD000F41500203C15002008B500F067FCFFF741
:103FE000E1FFBDE80840FFF7A1BF000030B51D4666
:103FF000C82387B006AC04F8042D029301230A46B7
:104000000193014600940748FDF734FC18B11B21C9
:10401000054800F0CDFB15B1322001F049F907B099
:1040200030BD00BF001500207176000830B51D4678
:10403000002387B0144606AA02F8043DC823029361
:1040400001238DE80C000A4601460648FDF78AFC6C
:1040500018B12946204600F0ABFB9DF8140007B0CC
:1040600030BD00BF001500207FB5C8268DE84C008C
:104070000A46012301460748089C099DFDF772FC8A
:1040800030B12946204604B0BDE8704000F090BB36
:1040900004B070BD001500202DE9F84380460F469E
:1040A0001E460024DFF82090551E3919B44289B20B
:1040B00001DBBDE8F8834C234A464046FFF7B6FFD4
:1040C000013405F8010FF0E77176000838B53F4C70
:1040D0003F4DE078FCF796F900223E4BFCF722FBBF
:1040E000FCF7A6FC68602079FCF78CF900223A4BBB
:1040F000FCF718FBFCF79CFCA8606079FCF782F9E0
:104100000022364BFCF7E4F9FCF792FCE8602078DB
:10411000FCF778F900222F4BFCF704FBFCF788FC36
:104120002F4D68606078FCF76DF900222A4BFCF790
:10413000F9FAFCF77DFCA860A078FCF763F900228F
:10414000264BFCF7C5F9FCF773FCE860A079FCF797
:1041500059F900221F4BFCF7E5FAFCF769FC214DE9
:104160006860E079FCF74EF900221B4BFCF7DAFAA5
:10417000FCF75EFCA860207AFCF744F90022174B9C
:10418000FCF7A6F9FCF754FCE860607AFCF73AF912
:104190000022104BFCF7C6FAFCF74AFC124D68608F
:1041A000A07AFCF72FF900220B4BFCF7BBFAFCF7C7
:1041B0003FFCA860E07AFCF725F90022074BFCF7EA
:1041C00087F9FCF735FCE86038BD00BF73130020A9
:1041D000A8000020000024400000694000001040BA
:1041E00004010020600100204C0000202DE9F04176
:1041F000334C344D2389B3F5C86F8CBF01230023A2
:104200002B706389B3F5C86F8CBF012300236B70DB
:10421000B4F90200FCF716FD2B49FCF75DFC2B49B5
:104220000646FCF701FF002842D127493046FCF73B
:1042300019FF00283ED1DFF8A480B4F90000C8F8C7
:104240001C60FCF7FFFC2049FCF746FC1F490746B1
:10425000FCF7EAFE80BB1C493846FCF703FF68BB4D
:104260001B4EF761B4F90400FCF7ECFC1949FCF7AC
:1042700033FC194BD8616B781BB9E088FCF7DEFC86
:104280006860A089FCF7DAFC0F49FCF7E3FD0E49F2
:10429000FCF722FCC8F82400E089FCF7CFFC0A49AF
:1042A000FCF7D8FD0849FCF717FC7062BDE8F08107
:1042B000064EC0E7044EBEE7044FD1E7024FCFE7FA
:1042C000C91300208002002000002041000020C10E
:1042D000040100200000344360010020A8000020F9
:1042E00010B500F0E1FF134C2368C01A012804D96F
:1042F00000F0DAFF2060FEF7DFFD00F0D5FF0E4C86
:104300002368C01A022804D900F0CEFF206000F014
:1043100049FD00F0C9FF094C2368C01A642802D97E
:1043200000F0C2FF2060FEF76FFEBDE8104000F015
:10433000D7B900BF88020020900200208C02002024
:1043400008B5FFF749FE00F039FEFEF771FDFEF7F4
:104350006BFFBDE8084000F09FBC08B5FFF7F0FF19
:10436000FFF7BEFFFCE708B50020FFF703FE0020C3
:10437000FFF706FE0020FFF709FEBDE80840002019
:10438000FFF70ABEB0F57A7FA8BF4FF47A70B1F597
:104390007A7FA8BF4FF47A71B2F57A7FA8BF4FF445
:1043A0007A72B3F57A7FA8BF4FF47A7310B5154CC3
:1043B00022EAE27223EAE37321EAE17120EAE07083
:1043C000A260E36061602060FFF7D4FD6068FFF7E2
:1043D000D7FDA068FFF7DAFDE068FFF7DDFD226892
:1043E000094B02F57A721A80626802F57A725A8075
:1043F000A26802F57A729A80E26802F57A72DA802F
:1044000010BD00BF94020020D91300202DE9F04711
:1044100015461C4606468846FCF75EFB41460746A5
:104420003046FCF75BFB294606463846FCF754FB52
:104430002146FCF753FB1949FCF74EFBFCF71CFE29
:10444000294681463046FCF747FB2146FCF744FBF2
:104450001249FCF741FBFCF70FFE2946804638461F
:10446000FCF73CFB2146FCF737FB0C49FCF734FB1F
:10447000FCF702FE074631462846FCF72FFB214693
:10448000FCF72CFB0549FCF727FBFCF7F5FD4B4639
:1044900042463946BDE8F047FFF774BF00007A4452
:1044A0002DE9F041164605460F460E48F4B200F0DD
:1044B00093FD204600F048FD28466C4000F044FD86
:1044C0003D46EB1B9E4204DC2046BDE8F04100F077
:1044D0003BBDA84615F8010B00F036FD98F80030FA
:1044E0005C40EEE77E76000807B5E9220C4B04211C
:1044F0001A7003225A700022D9709A7018681A71C3
:104500005A719A719B8800908DF80620694607229F
:104510006420ADF80430FFF7C3FF03B05DF804FB7F
:104520001F1400201FB507220B4B00241A712A22EA
:104530005C719A71DC711868596801AA03C21C7217
:104540005C729C721B899470138001A90B226520F8
:10455000FFF7A6FF04B010BDB513002070B586B0FC
:1045600001AA1546094B03F110061446186859684C
:10457000083303C4B3422246F7D11B88122223809A
:1045800029466620FFF78CFF06B070BD2614002078
:1045900007B56B46054A10685168082203C369468F
:1045A0006820FFF77DFF03B05DF804FBD9130020FE
:1045B0007FB56A466D46094B03F11006144618682C
:1045C0005968083303C4B3422246F7D11022294662
:1045D0006920FFF765FF04B070BD00BFB414002070
:1045E00007B5074B062218689B88009069466C2027
:1045F000ADF80430FFF754FF03B05DF804FB00BFD3
:104600009113002007B5074B062218689B8800907D
:1046100069466D20ADF80430FFF742FF03B05DF846
:1046200004FB00BFA7140020692808B52AD00AD8C7
:10463000652818D002D8642810D008BD662817D085
:1046400068281AD008BD6D2826D002D86C281ED044
:1046500008BDC82825D0CA282FD008BDD2B3BDE8D0
:104660000840FFF741BFAAB3BDE80840FFF75ABFB3
:1046700082B3BDE80840FFF771BF5AB3BDE80840F8
:10468000FFF786BF32B3BDE80840FFF791BF0AB31A
:10469000BDE80840FFF7A4BFE2B1BDE80840FFF75E
:1046A000B1BF0D4B01F1100251F8040B914243F8D8
:1046B000040BF9D1FFF79AFD08BD084B01F11C026C
:1046C00051F8040B914243F8040BF9D10A881A807F
:1046D000FFF7FCFC08BD00BFC913002073130020C6
:1046E00070B500F029FCC8B1304C237825465BB981
:1046F000638023716371A37100F032FCA0F1240385
:1047000058425841207070BD012B08D100F028FCA0
:104710004D2808BF022318BF0023237070BD022B51
:1047200005D100F01DFC3C2808BF0323F3E7032B51
:104730000AD100F015FC80B2608008B90123A37192
:104740002B7801332B7070BD042B08D100F008FCCE
:10475000A37820715840237860710133DDE7052B81
:1047600014D1A6790EB10623D7E700F0E5FB6388E4
:104770009842D3DB6B889E42E2DA00F0F1FBAB1982
:10478000D8716B79013658406871F3E7062B04D174
:10479000667900F0E5FB864201D00023D2E7A279DA
:1047A000E11D2079FFF740FF0023B6E73814002011
:1047B00080B5012207460D461B484FF48041FCF7A7
:1047C0003BFE00224FF400411748FCF735FE002263
:1047D0004FF400511448FCF72FFE134CDFF85080C3
:1047E000124E20464FF48041FCF72BFE20464FF43A
:1047F0000041FCF726FE4FF400512046FCF721FE55
:10480000404600F0E9FB384600F0E6FB304600F099
:10481000E3FB284600F0F0FB0A2000F095FB4FF484
:10482000FA7000F045FDDCE700100140A3760008B7
:1048300097760008012310B590B00A9310230B93CC
:10484000002302240E934FF4601306A806940D94DF
:104850000F93FDF76BF918B13C211348FFF7A8FF40
:104860000F2301934FF4806303900590214601A824
:1048700002940493FDF7FCFB044608B14921ECE7E0
:10488000FDF7AAFC4FF47A73B0FBF3F0FCF7CCFC15
:104890000420FCF7DFFC224621464FF0FF30FCF7F6
:1048A00083FC10B010BD00BF827600082DE9F041F6
:1048B00094B0FCF739FCFFF7BDFF984B4FF4604113
:1048C0009A69974842F010029A619A69012402F0AD
:1048D00010020192019A9A69022542F004029A613B
:1048E0009A69904F02F004020292029A9A6942F089
:1048F00008029A619B69002203F008030393039B5B
:10490000FCF79AFD002220218748FCF795FD4FF423
:1049100060430DA982480D930E941095FCF7ACFCF2
:10492000202381480DA90D930E941095FCF7A4FC4B
:104930007E487F4B4FF4804280E88800002302616C
:104940008360C36043618361C3610362FCF728FF36
:1049500018B16B217748FFF72BFF4FF4E1324FF08E
:104960000C08754B75499860D86018619861D861DA
:10497000184683E80600C3F81480FDF7E5FE10B181
:1049800040F25111E6E74FF47A766D4C6D4BA06022
:1049900020616061204684E82800E660FDF7FAFCAB
:1049A00008B18821D6E70490059004A92046FDF7B8
:1049B000DBFD08B18F21CDE76027079008900A90B2
:1049C0000B900C90424606A920460697FDF728FD5D
:1049D00008B19A21BEE74FF400530D900E900F904E
:1049E0001090119013900DA920461293FDF79CFD95
:1049F000804608B1A621ADE7204600F0B1FB4FF09C
:104A00008043514C204684E82801E660C4F81080B9
:104A1000FDF7C0FC08B1C3219CE70690079006A9EA
:104A20002046FDF7A1FD08B1CA2193E70E900F9033
:104A3000119004220DA920460D97FDF7F1FC0746C1
:104A400008B1D32186E7204600F08AFB3F48404B5F
:104A5000C66080E8A8000761FDF79CFC08B1F02162
:104A600078E7002306A9394806930793FDF77CFDF4
:104A700008B1F7216EE760260E900F901190082282
:104A80000DA932480D96FDF7CBFC10B14FF48071A3
:104A900060E70C220DA92D48FDF7C2FC054610B1B8
:104AA00040F2051156E7294800F05AFB0223294C31
:104AB000294A204684E80C004FF47A73A560E3602D
:104AC0002561FDF767FC10B14FF4917142E7069044
:104AD000079006A92046FDF747FD10B140F22911C5
:104AE00038E70E900F90119008220DA920460D96E0
:104AF000FDF796FC10B14FF499712BE70C220DA92C
:104B00002046FDF78DFC10B140F2371122E7204618
:104B100000F026FB14B0BDE8F08100BF0010024099
:104B200000100140801A0600000801400015002016
:104B300000540040827600087815002000380140BB
:104B4000B8150020002C0140F41500203C15002071
:104B500000040040C4140020000800402DE9F0418A
:104B60000446C069616A256BFBF7B8FF2946FBF76D
:104B7000B3FF2368A062032B24D1A06A0021FCF7B5
:104B800071FA00286CD0A06A3E494FF00105FCF78D
:104B900069FA00B90546EDB2A5B1A56A3A49A06A1D
:104BA000FCF7A4F800210646A06AFCF75BFAA16AAC
:104BB00000285CD03046FCF74DF901462846FBF74B
:104BC0008BFFA0626068D4F80880E668A16AFCF7F1
:104BD0008DF8A063A06AE16BFBF780FFE063E06BF8
:104BE0002A49FCF721FA002844D1E06B2849FCF758
:104BF00039FA002840D1E36BE363206B616BFBF76C
:104C00006BFF2064A56B4046E16BFCF76FF829460B
:104C1000FBF764FF276C054639463046FCF766F81B
:104C200001462846FBF758FFA064E06CFCF70AF841
:104C300016490546A06CFCF7F7F9F8B9A06C1449C1
:104C4000FCF710FAE0B9A06C2946FCF74FF8A06415
:104C5000236B6363A36AE362236D6365BDE8F08140
:104C6000A06A0C494FF00105FCF7DEF991E701F16C
:104C700000419FE7054BBFE7054BBDE70348E3E76E
:104C80000348E1E7000034430000B4430000FAC3E6
:104C90000000FA43000034C301234FF0FF32F0B5A7
:104CA00019481A4C1A49E364C364CA64194A1A4D74
:104CB000D3641A4B1A4E23621A4B1B4F03621B4BD1
:104CC0000B62002313626560194DA560E6602761E1
:104CD000184F6561A761184C184F44608560C76024
:104CE0000461174C45618461164848601648886025
:104CF000CE600B614B618B61144951609360D3604E
:104D0000136153619361F0BD04010020A8000020ED
:104D1000600100204C000020CDCC8C400080BB44C2
:104D200000008C430040B544000090400000FA446D
:104D30000AD7A33C0000B4433333734000008243DE
:104D40000000A043000040400AD7233C000020415F
:104D500070B5104C63785BB10F4E104D33788BB942
:104D6000FEF74AF90E49FBF7C1FF0123E8613370F2
:104D7000627832B9084B197801B11A706268074B32
:104D80009A6470BDFEF738F90549FBF7AFFF286359
:104D9000EEE700BF80020020A40200204C000020AB
:104DA0000000C8422DE9F041FEF752F8584F594D26
:104DB0003863FEF757F82863FEF75EF8564E306307
:104DC000FFF7C6FF386B0021FCF74CF9B046B8B1CD
:104DD000386B5249FCF746F948B9286B0021FCF7BB
:104DE00041F990B1286B4D49FCF73CF990B1FFF7C0
:104DF000BAFABDE8F041002201211046FFF776B86B
:104E0000386B4749FCF710F9E6E7286B4449FCF793
:104E10000BF9EBE7012210461146FFF767F83C4813
:104E2000FFF79CFE3F4C3B48FFF798FE3A48FFF7E0
:104E300095FE63783C4E3BB13046FFF78FFEB06C79
:104E40003A49FBF74BFEB0646368B3642378002BE8
:104E50005AD0B06CB96CAA6CD8F84830FFF7D6FAC3
:104E600078683349FBF742FFFCF72CF9314C3049A5
:104E7000E070B868FBF73AFFFCF724F9FB682C49AF
:104E800020716868FBF732FFFCF71CF92849207095
:104E9000A868FBF72BFFFCF715F925496070E86857
:104EA000FBF724FFFCF70EF92149A070D8F80400A5
:104EB000FBF71CFFFCF706F91D49A071D8F80800A4
:104EC000FBF714FFFCF7FEF81949E071D8F80C0065
:104ED000FBF70CFFFCF7F6F8154920727068FBF73A
:104EE00005FFFCF7EFF812496072B068FBF7FEFEB1
:104EF000FCF7E8F80E49A072F068FBF7F7FEFCF744
:104F0000E1F8E072BDE8F081FFF72DFAA8E700BFF5
:104F1000A800002004010020600100200000A04241
:104F20000000A0C2800200204C0000200080BB4492
:104F300000007F439713002008B50248FEF7AEFF3C
:104F400008BD00BF6003002003490523087001224B
:104F50000248FDF725BC00BF32160020781500205E
:104F600007B505480DF10701FEF77DFF9DF8070025
:104F700003B05DF804FB00BF600300200268084B2B
:104F800010B59A420BD1074C07482178FEF756FF1F
:104F90002146BDE8104001220448FDF75CBC10BD6D
:104FA00000380140301600206003002078150020F2
:104FB0000148FEF777BF00BF6003002008B5FFF788
:104FC000F7FFBDE80840012201490248FDF743BC54
:104FD000301600207815002038B5044605462046D6
:104FE000FBF7B6F82B1B984200D838BD15F8010B1B
:104FF000FFF7AAFFF3E7000010B5054C024605498C
:10500000204600F0A1F92046BDE81040FFF7E4BFBC
:1050100032160020AE7600081D4B07B59A690320B2
:1050200042F001029A619B6903F001030193019B25
:10503000FCF7A8F800226FF00B001146FCF7B4F85B
:1050400000226FF00A001146FCF7AEF800226FF064
:1050500009001146FCF7A8F800226FF00400114681
:10506000FCF7A2F800226FF003001146FCF79CF851
:1050700000226FF001001146FCF796F800224FF075
:10508000FF301146FCF790F803B05DF804FB00BF59
:10509000001002407FB502680C4B9A4213D1C02326
:1050A000029312230393032302A909480593FCF7F3
:1050B000E3F8084BDA6942F40012DA61DB6903F4C1
:1050C00000130193019B07B05DF804FB00540040FE
:1050D000000C01400010024003681D4A84B0934256
:1050E0000BD11C4B9A6942F400629A619B6903F4EC
:1050F00000630093009B04B07047B3F1804F0BD165
:1051000003F50433DA6942F00102DA61DB6903F086
:1051100001030193019BEEE70F4A93420AD10D4B25
:10512000DA6942F00202DA61DB6903F002030293FA
:10513000029BE0E7094A9342DDD1064BDA6942F06F
:105140000402DA61DB6903F004030393039BD2E7F3
:10515000002C014000100240000400400008004004
:105160001FB50368134A93420CD14FF400630093B8
:1051700002236946104801930393FCF77DF805B0BC
:105180005DF804FBB3F1804F02D102230093F0E7F6
:105190000A4A934207D103230093022369460193ED
:1051A00003930748E9E7074A9342E8D14FF4407375
:1051B000F2E700BF002C014000080140000400405D
:1051C000000C01400008004010B50268164B86B084
:1051D0009A4227D103F558439A6902A942F48042C2
:1051E0009A619B69114803F480430193019B4FF43A
:1051F0000073029302230393032300240593FCF717
:105200003BF84FF4806302A9084802930394049486
:10521000FCF732F8252022462146FBF7C5FF252062
:10522000FBF7F6FF06B010BD003801400008014052
:105230007047FEE7FEE7FEE7FEE7704770477047FE
:1052400008B5FBF783FFBDE80840FCF710B8000085
:105250000148FDF734BB00BF781500200F4B1A68DA
:1052600042F001021A6059680D4A0A405A601A68F1
:1052700022F0847222F480321A601A6822F48022AA
:105280001A605A6822F4FE025A604FF41F029A60B4
:105290004FF00062034B9A60704700BF001002405D
:1052A0000000FFF800ED00E0FBF758BFFBF756BF2A
:1052B000FBF75ABF002103E00B4B5B58435004310E
:1052C0000A480B4B42189A42F6D30A4A02E00023DE
:1052D00042F8043B084B9A42F9D3FFF7BFFF00F0B6
:1052E0000FF8FFF73AF870479877000800000020A1
:1052F00028020020280200209C160020FEE7000063
:1053000070B500250C4E0D4CA41BA410A54209D16C
:1053100002F088F900250A4E0A4CA41BA410A542ED
:1053200005D170BD56F8253098470135EEE756F89F
:10533000253098470135F2E790770008907700080C
:1053400090770008947700080EB44FF4027100B50E
:105350009CB0ADF814106FF00041049107914FF626
:10536000FF711DAB02900690084853F8042BADF86E
:105370001610006802A9019300F066F80022029B53
:105380001A701CB05DF804EB03B07047C001002038
:105390002DE9F0478E6882469E420C46914698461B
:1053A00035D88A8912F4906F31D0022325680969B3
:1053B0006F1A656905EB450595FBF3F508F10103E7
:1053C0003B449D4238BF1D46530531D5294600F068
:1053D00047FB064650B90C23CAF80030A3894FF0AA
:1053E000FF3043F04003A381BDE8F0873A462169CE
:1053F00000F0C4FAA38923F4906343F08003A381EF
:1054000026613E44266046466561ED1BA560464523
:1054100028BF464649463246206800F0BAFAA368DB
:1054200000209B1BA36023681E442660BDE8F08714
:105430002A4600F073FB06460028E1D12169504658
:1054400000F0C2FAC7E700002DE9F04F9DB00393CA
:105450008B8980461C060D4616460FD50B696BB925
:10546000402100F0FDFA2860286128B90C23C8F813
:1054700000304FF0FF30C4E040236B6100230993FC
:1054800020238DF8293030234FF0010B8DF82A307E
:1054900037463C4614F8013B002B3CD1B7EB060ADB
:1054A0000BD05346324629464046FFF771FF013084
:1054B00000F0A280099B534409933B78002B00F035
:1054C0009B8000234FF0FF320493079305920693CD
:1054D0008DF853301A9305222178504800F040FA95
:1054E000671C049BD8B9D90644BF20228DF85320ED
:1054F0001A0744BF2B228DF8532022782A2A16D06F
:1055000000210A20079A27463B780134303B092BBB
:1055100050D9C9B111E0252BC0D02746B9E73F4A81
:105520003C46801A0BFA00F018430490D3E7039A24
:10553000111D12680391002A01DB079204E0524218
:1055400043F00203079204933B782E2B0DD17B7816
:10555000791C2A2B32D1039B02371A1D1B68039238
:10556000002BB8BF4FF0FF3305932D4C0322397841
:10557000204600F0F5F938B14023001B03FA00F093
:10558000049B0137034304933978062225487E1C87
:105590008DF8281000F0E4F9002835D0224BFBB933
:1055A000039B073323F0070308330393099B4B4402
:1055B00009936DE700FB02320121A4E700230A24CE
:1055C000184605930F463A780131303A092A03D933
:1055D000002BCAD00590C8E704FB00200123F1E7A7
:1055E00003AB00932A46114B04A94046AFF3008059
:1055F000B0F1FF3F8146D9D1AB895B063FF539AFAA
:1056000009981DB0BDE8F08F03AB00932A46074B05
:1056100004A9404600F084F8EAE700BFC976000814
:10562000CF760008D37600080000000091530008F0
:105630002DE9F04791461F468A680B69064693425A
:10564000B8BF1346C9F8003091F843200C46DDF886
:10565000208012B10133C9F800302368990642BF97
:10566000D9F800300233C9F80030256815F0060576
:1056700007D104F1190AE368D9F800209B1A9D426A
:105680002ADB94F843302268003318BF01239206C6
:105690002FD404F1430239463046C047013022D0AE
:1056A0002368E56803F00603042B18BF0025D9F82A
:1056B00000204FF0000908BFAD1AA368226908BF97
:1056C00025EAE5759342C4BF9B1AED181A344D457F
:1056D0001BD10020BDE8F0870123524639463046F1
:1056E000C047013003D14FF0FF30BDE8F0870135EE
:1056F000C1E73020E11881F843005A1C94F84510A6
:105700002244023382F84310C3E70123224639467C
:105710003046C0470130E6D009F10109D7E7000063
:105720002DE9F04317460A7E85B06E2A9846064654
:105730000C460C9B01F1430E00F0BC801AD8632A82
:105740002ED00AD8002A00F0C880582A00F08A809B
:1057500004F1420584F842202AE0642A01D0692A33
:10576000F6D121681A6811F0800F23D0111D19603D
:10577000136827E0732A00F0B48008D86F2A2AD073
:10578000702AE5D10A6842F020020A6003E0752A17
:1057900021D0782ADCD178226F4984F8452064E052
:1057A0001A6801F14205111D1960136884F842302E
:1057B0000123A3E011F0400F02F104011960D7D0DA
:1057C000B2F90030002B03DA2D225B4284F843202B
:1057D00062490A2217E02068196810F0800F03D090
:1057E000081D18600B6806E010F0400F01F104007E
:1057F0001860F7D00B886F2A14BF0A220822574975
:10580000002084F843006568002DA560C0F29C80EC
:10581000206820F004002060002B3FD1002D40F0D4
:1058200095807546082A0BD12368DA0708D52369C5
:1058300062689A42DEBF302305F8013C05F1FF356E
:10584000AEEB05032361CDF800803B4603AA214659
:105850003046FFF7EDFE013055D14FF0FF3005B077
:10586000BDE8F08381F845203C492268186812F0B1
:10587000800F00F104051D6001D0036802E05506A9
:10588000FBD50388D00744BF42F0200222601BB939
:10589000226822F0200222601022B1E77546B3FB95
:1058A000F2F002FB1033CB5C05F8013D0346002803
:1058B000F5D1B7E708681A6810F0800F496904D07D
:1058C000101D18601368196007E010F0400F02F116
:1058D000040018601368F6D0198000237546236110
:1058E000B1E71A68111D1960156800216268284621
:1058F00000F036F808B1401B606063682361002344
:1059000084F843309FE723692A4639463046C0472A
:105910000130A2D023689B0707D5002504F119099F
:10592000E368039A9B1A9D4205DBE068039B98425B
:10593000B8BF184693E701234A4639463046C04768
:1059400001308AD00135EBE7002BA7D10B7804F1A9
:10595000420584F8423065E7EB760008DA76000805
:1059600010B5C9B202449042034601D1002010BDD7
:105970001C7801308C42F6D1184610BD10B5431E7C
:105980000A44914200D110BD11F8014B03F8014FB8
:10599000F7E7884210B501EB020303D8421E994293
:1059A0000CD110BD9842F9D28118D21AD34200D13D
:1059B00010BD13F8014D01F8014DF7E711F8014B47
:1059C00002F8014FEBE7000038B50546002943D047
:1059D00051F8043C0C1F002BB8BFE41800F0D4F8B9
:1059E0001E4A1368104633B9636014602846BDE848
:1059F000384000F0CAB8A3420BD92168621893421C
:105A000001BF1A685B685218226063600460EDE7AA
:105A100013465A680AB1A242FAD919685818A04226
:105A20000BD120680144581882421960DED11068F9
:105A30005268014419605A60D8E702D90C232B60E0
:105A4000D4E7206821188A4201BF116852680918FA
:105A5000216062605C60C9E738BD00BFA802002019
:105A600070B5CD1C25F0030508350C2D38BF0C256D
:105A7000002D064601DBA94203D90C233360002028
:105A800070BD00F081F8234A1468214691B9224C78
:105A900023681BB9304600F067F82060294630467D
:105AA00000F062F8431C26D10C233046336000F02E
:105AB0006CF8E4E70B685B1B1AD40B2B0FD90B6057
:105AC000CC18CD50304600F060F804F10B00231DD7
:105AD00020F00700C31A1BD05A42E25070BD8C421E
