:020000040800F2
:1000000000500020B5520008315200083352000859
:10001000355200083752000839520008000000002D
:100020000000000000000000000000003B5200083B
:100030003D520008000000003F52000841520008F5
:10004000FD520008FD520008FD520008FD52000854
:10005000FD520008FD520008FD520008FD52000844
:10006000FD520008FD520008FD520008FD52000834
:10007000FD520008FD520008FD520008FD52000824
:10008000FD520008FD520008FD520008FD52000814
:10009000FD520008FD520008FD520008FD52000804
:1000A000FD520008FD520008FD520008FD520008F4
:1000B000FD520008FD520008FD520008FD520008E4
:1000C000FD520008FD520008FD520008FD520008D4
:1000D000FD52000851520008FD520008FD52000870
:1000E000FD520008FD520008FD520008000000000B
:1000F0000000000000000000000000000000000000
:0C01000000000000000000005FF808F1A3
:1001100010B5054C237833B9044B13B10448AFF341
:1001200000800123237010BD200200200000000089
:100130002476000808B5034B1BB103490348AFF30D
:10014000008008BD00000000240200202476000882
:10015000034613F8012B002AFBD1181A0138704707
:1001600081F0004102E000BF83F0004330B54FEA68
:1001700041044FEA430594EA050F08BF90EA020FD5
:100180001FBF54EA000C55EA020C7FEA645C7FEA68
:10019000655C00F0E2804FEA5454D4EB5555B8BF8B
:1001A0006D420CDD2C4480EA020281EA030382EAFC
:1001B000000083EA010180EA020281EA0303362D8E
:1001C00088BF30BD11F0004F4FEA01314FF4801C61
:1001D0004CEA113102D0404261EB410113F0004F73
:1001E0004FEA03334CEA133302D0524263EB43032A
:1001F00094EA050F00F0A780A4F10104D5F1200EC8
:100200000DDB02FA0EFC22FA05F2801841F1000122
:1002100003FA0EF2801843FA05F359410EE0A5F1F6
:1002200020050EF1200E012A03FA0EFC28BF4CF027
:10023000020C43FA05F3C01851EBE37101F00045DD
:1002400007D54FF0000EDCF1000C7EEB00006EEBEA
:100250000101B1F5801F1BD3B1F5001F0CD3490874
:100260005FEA30004FEA3C0C04F101044FEA4452CB
:1002700012F5800F80F09A80BCF1004F08BF5FEA52
:10028000500C50F1000041EB045141EA050130BD32
:100290005FEA4C0C404141EB010111F4801FA4F1D5
:1002A0000104E9D191F0000F04BF01460020B1FA2A
:1002B00081F308BF2033A3F10B03B3F120020CDA62
:1002C0000C3208DD02F1140CC2F10C0201FA0CF040
:1002D00021FA02F10CE002F11402D8BFC2F1200CA5
:1002E00001FA02F120FA0CFCDCBF41EA0C0190405B
:1002F000E41AA2BF01EB0451294330BD6FEA0404A4
:100300001F3C1CDA0C340EDC04F11404C4F120028E
:1003100020FA04F001FA02F340EA030021FA04F3A0
:1003200045EA030130BDC4F10C04C4F1200220FAF7
:1003300002F001FA04F340EA0300294630BD21FA35
:1003400004F0294630BD94F0000F83F4801306BFFB
:1003500081F480110134013D4EE77FEA645C18BFEF
:100360007FEA655C29D094EA050F08BF90EA020F86
:1003700005D054EA000C04BF1946104630BD91EA7E
:10038000030F1EBF0021002030BD5FEA545C05D181
:100390004000494128BF41F0004130BD14F58004C0
:1003A0003CBF01F5801130BD01F0004545F0FE4134
:1003B00041F470014FF0000030BD7FEA645C1ABF69
:1003C000194610467FEA655C1CBF0B46024650EAA0
:1003D000013406BF52EA033591EA030F41F40021CC
:1003E00030BD00BF90F0000F04BF0021704730B552
:1003F0004FF4806404F132044FF000054FF0000127
:1004000050E700BF90F0000F04BF0021704730B5E7
:100410004FF4806404F1320410F0004548BF4042BC
:100420004FF000013EE700BF42004FEAE2014FEA11
:1004300031014FEA02701FBF12F07F4393F07F4FEC
:1004400081F06051704792F0000F14BF93F07F4F1E
:10045000704730B54FF4607401F0004521F0004161
:1004600020E700BF50EA010208BF704730B54FF0E7
:1004700000050AE050EA010208BF704730B511F0EC
:10048000004502D5404261EB41014FF4806404F124
:1004900032045FEA915C3FF4DCAE4FF003025FEAA6
:1004A000DC0C18BF03325FEADC0C18BF033202EB2E
:1004B000DC02C2F1200300FA03FC20FA02F001FA88
:1004C00003FE40EA0E0021FA02F11444C1E600BF27
:1004D00070B54FF0FF0C4CF4E06C1CEA11541DBFDA
:1004E0001CEA135594EA0C0F95EA0C0F00F0DEF8A5
:1004F0002C4481EA030621EA4C5123EA4C5350EA8A
:10050000013518BF52EA033541F4801143F48013DA
:1005100038D0A0FB02CE4FF00005E1FB02E506F06B
:100520000042E0FB03E54FF00006E1FB03569CF0C0
:10053000000F18BF4EF0010EA4F1FF04B6F5007FC6
:1005400064F5407404D25FEA4E0E6D4146EB060638
:1005500042EAC62141EA55514FEAC52040EA5E50C1
:100560004FEACE2EB4F1FD0C88BFBCF5E06F1ED86B
:10057000BEF1004F08BF5FEA500E50F1000041EBA2
:10058000045170BD06F0004646EA010140EA02004F
:1005900081EA0301B4EB5C04C2BFD4EB0C0541EA71
:1005A000045170BD41F480114FF0000E013C00F386
:1005B000AB8014F1360FDEBF002001F0004170BDAA
:1005C000C4F10004203C35DA0C341BDC04F11404C3
:1005D000C4F1200500FA05F320FA04F001FA05F24F
:1005E00040EA020001F0004221F0004110EBD3701C
:1005F00021FA04F642EB06015EEA430E08BF20EA48
:10060000D37070BDC4F10C04C4F1200500FA04F3EA
:1006100020FA05F001FA04F240EA020001F000417C
:1006200010EBD37041F100015EEA430E08BF20EAEF
:10063000D37070BDC4F1200500FA05F24EEA020E37
:1006400020FA04F301FA05F243EA020321FA04F066
:1006500001F0004121FA04F220EA020000EBD3701D
:100660005EEA430E08BF20EAD37070BD94F0000F1D
:100670000FD101F00046400041EB010111F4801F51
:1006800008BF013CF7D041EA060195F0000F18BF02
:10069000704703F00046520043EB030313F4801F3E
:1006A00008BF013DF7D043EA0603704794EA0C0FF8
:1006B0000CEA135518BF95EA0C0F0CD050EA41060E
:1006C00018BF52EA4306D1D181EA030101F000418B
:1006D0004FF0000070BD50EA410606BF10461946B3
:1006E00052EA430619D094EA0C0F02D150EA0136BF
:1006F00013D195EA0C0F05D152EA03361CBF104600
:1007000019460AD181EA030101F0004141F0FE419E
:1007100041F470014FF0000070BD41F0FE4141F422
:10072000780170BD70B54FF0FF0C4CF4E06C1CEA22
:1007300011541DBF1CEA135594EA0C0F95EA0C0FD7
:1007400000F0A7F8A4EB050481EA030E52EA033592
:100750004FEA013100F088804FEA03334FF08055B3
:1007600045EA131343EA12634FEA022245EA1115E0
:1007700045EA10654FEA00260EF000419D4208BF91
:10078000964244F1FD0404F5407402D25B084FEA3E
:100790003202B61A65EB03055B084FEA32024FF4EA
:1007A00080104FF4002CB6EB020E75EB030E22BF47
:1007B000B61A754640EA0C005B084FEA3202B6EB07
:1007C000020E75EB030E22BFB61A754640EA5C00B6
:1007D0005B084FEA3202B6EB020E75EB030E22BF46
:1007E000B61A754640EA9C005B084FEA3202B6EB47
:1007F000020E75EB030E22BFB61A754640EADC0006
:1008000055EA060E18D04FEA051545EA16754FEA67
:1008100006164FEAC30343EA52734FEAC2025FEA85
:100820001C1CC0D111F4801F0BD141EA00014FF014
:1008300000004FF0004CB6E711F4801F04BF0143E5
:100840000020B4F1FD0C88BFBCF5E06F3FF6AFAE01
:10085000B5EB030C04BFB6EB020C5FEA500C50F191
:10086000000041EB045170BD0EF0004E4EEA113114
:1008700014EB5C04C2BFD4EB0C0541EA045170BD1B
:1008800041F480114FF0000E013C90E645EA060E5F
:100890008DE60CEA135594EA0C0F08BF95EA0C0F8D
:1008A0003FF43BAF94EA0C0F0AD150EA01347FF4D5
:1008B00034AF95EA0C0F7FF425AF104619462CE7AC
:1008C00095EA0C0F06D152EA03353FF4FDAE10460F
:1008D000194622E750EA410618BF52EA43067FF460
:1008E000C5AE50EA41047FF40DAF52EA43057FF4F0
:1008F000EBAE12E74FF0FF3C06E000BF4FF0010CFB
:1009000002E000BF4FF0010C4DF804CD4FEA410C5E
:100910007FEA6C5C4FEA430C18BF7FEA6C5C1BD02B
:1009200001B050EA410C0CBF52EA430C91EA030FAC
:1009300002BF90EA020F0020704710F1000F91EA09
:10094000030F58BF994208BF90422CBFD8176FEAD7
:10095000E37040F0010070474FEA410C7FEA6C5CA5
:1009600002D150EA013C07D14FEA430C7FEA6C5CAC
:10097000D6D152EA033CD3D05DF8040B704700BFD8
:100980008446104662468C461946634600E000BF26
:1009900001B5FFF7B7FF002848BF10F1000F01BDF8
:1009A0004DF808EDFFF7F4FF0CBF012000205DF8C3
:1009B00008FB00BF4DF808EDFFF7EAFF34BF012048
:1009C00000205DF808FB00BF4DF808EDFFF7E0FFE1
:1009D00094BF012000205DF808FB00BF4DF808ED32
:1009E000FFF7CEFF94BF012000205DF808FB00BF99
:1009F0004DF808EDFFF7C4FF34BF012000205DF87B
:100A000008FB00BF4FEA410C7FEA6C5C02D150EA60
:100A1000013C0AD14FEA430C7FEA6C5C02D152EAF6
:100A2000033C02D14FF0000070474FF001007047C7
:100A30004FEA4102B2F1E04324BFB3F5001CDCF100
:100A4000FE5C0DD901F0004C4FEAC0024CEA507038
:100A5000B2F1004F40EB830008BF20F00100704767
:100A600011F0804F21D113F13872BCBF01F000406A
:100A7000704741F480114FEA5252C2F11802C2F19C
:100A8000200C10FA0CF320FA02F018BF40F001001D
:100A90004FEAC1234FEAD32303FA0CFC40EA0C00CF
:100AA00023FA02F34FEA4303CCE77FEA625307D10C
:100AB00050EA01331EBF4FF0FE4040F44000704743
:100AC00001F0004040F0FE4040F40000704700BFDD
:100AD00080F0004002E000BF81F0004142001FBFF3
:100AE0005FEA410392EA030F7FEA226C7FEA236CFC
:100AF0006AD04FEA1262D2EB1363C1BFD2184140F1
:100B000048404140B8BF5B42192B88BF704710F086
:100B1000004F40F4000020F07F4018BF404211F029
:100B2000004F41F4000121F07F4118BF494292EA91
:100B3000030F3FD0A2F1010241FA03FC10EB0C00BD
:100B4000C3F1200301FA03F100F0004302D549424A
:100B500060EB4000B0F5000F13D3B0F1807F06D3F7
:100B600040084FEA310102F10102FE2A51D2B1F1EF
:100B7000004F40EBC25008BF20F0010040EA0300E4
:100B80007047490040EB000010F4000FA2F1010291
:100B9000EDD1B0FA80FCACF1080CB2EB0C0200FA1B
:100BA0000CF0AABF00EBC25052421843BCBFD04069
:100BB0001843704792F0000F81F4000106BF80F4E3
:100BC00000000132013BB5E74FEA41037FEA226CA6
:100BD00018BF7FEA236C21D092EA030F04D092F071
:100BE000000F08BF0846704790EA010F1CBF0020A5
:100BF000704712F07F4F04D1400028BF40F0004002
:100C0000704712F100723CBF00F50000704700F021
:100C1000004343F0FE4040F4000070477FEA226248
:100C200016BF08467FEA23630146420206BF5FEA19
:100C3000412390EA010F40F4800070474FF0000319
:100C400004E000BF10F0004348BF40425FEA000CE0
:100C500008BF704743F0964301464FF000001CE088
:100C600050EA010208BF70474FF000030AE000BFDE
:100C700050EA010208BF704711F0004302D540421C
:100C800061EB41015FEA010C02BF8446014600208E
:100C900043F0B64308BFA3F18053A3F50003BCFAA9
:100CA0008CF2083AA3EBC25310DB01FA02FC634456
:100CB00000FA02FCC2F12002BCF1004F20FA02F25D
:100CC00043EB020008BF20F00100704702F1200250
:100CD00001FA02FCC2F1200250EA4C0021FA02F2B1
:100CE00043EB020008BF20EADC7070474FF0FF0CB6
:100CF0001CEAD0521EBF1CEAD15392EA0C0F93EAB1
:100D00000C0F6FD01A4480EA010C400218BF5FEA52
:100D100041211ED04FF0006343EA501043EA5111C5
:100D2000A0FB01310CF00040B1F5000F3EBF4900BF
:100D300041EAD3715B0040EA010062F17F02FD2AC3
:100D40001DD8B3F1004F40EBC25008BF20F00100A6
:100D5000704790F0000F0CF0004C08BF49024CEABD
:100D6000502040EA51207F3AC2BFD2F1FF0340EA4F
:100D7000C250704740F400004FF00003013A5DDCC0
:100D800012F1190FDCBF00F000407047C2F1000201
:100D9000410021FA02F1C2F1200200FA02FC5FEAEE
:100DA000310040F1000053EA4C0308BF20EADC7038
:100DB000704792F0000F00F0004C02BF400010F4AA
:100DC000000F013AF9D040EA0C0093F0000F01F057
:100DD000004C02BF490011F4000F013BF9D041EA79
:100DE0000C018FE70CEAD15392EA0C0F18BF93EA7B
:100DF0000C0F0AD030F0004C18BF31F0004CD8D1A5
:100E000080EA010000F00040704790F0000F17BF2B
:100E100090F0004F084691F0000F91F0004F14D071
:100E200092EA0C0F01D142020FD193EA0C0F03D1C9
:100E30004B0218BF084608D180EA010000F00040CC
:100E400040F0FE4040F40000704740F0FE4040F4A7
:100E5000400070474FF0FF0C1CEAD0521EBF1CEA46
:100E6000D15392EA0C0F93EA0C0F69D0A2EB030264
:100E700080EA010C49024FEA402037D04FF08053FE
:100E800043EA111143EA10130CF000408B4238BFC3
:100E90005B0042F17D024FF4000C8B4224BF5B1AD1
:100EA00040EA0C00B3EB510F24BFA3EB510340EA1F
:100EB0005C00B3EB910F24BFA3EB910340EA9C00CD
:100EC000B3EBD10F24BFA3EBD10340EADC001B013D
:100ED00018BF5FEA1C1CE0D1FD2A3FF650AF8B42E1
:100EE00040EBC25008BF20F0010070470CF0004CEE
:100EF0004CEA50207F32C2BFD2F1FF0340EAC25019
:100F0000704740F400004FF00003013A37E792F0D9
:100F1000000F00F0004C02BF400010F4000F013A37
:100F2000F9D040EA0C0093F0000F01F0004C02BF32
:100F3000490011F4000F013BF9D041EA0C0195E79B
:100F40000CEAD15392EA0C0F08D142027FF47DAF34
:100F500093EA0C0F7FF470AF084676E793EA0C0F24
:100F600004D14B023FF44CAF08466EE730F0004C22
:100F700018BF31F0004CCAD130F000427FF45CAFB2
:100F800031F000437FF43CAF5FE700BF4FF0FF3C20
:100F900006E000BF4FF0010C02E000BF4FF0010C73
:100FA0004DF804CD4FEA40024FEA41037FEA226C3C
:100FB00018BF7FEA236C11D001B052EA530C18BF5E
:100FC00090EA010F58BFB2EB030088BFC81738BFC3
:100FD0006FEAE17018BF40F0010070477FEA226CB1
:100FE00002D15FEA402C05D17FEA236CE4D15FEAAD
:100FF000412CE1D05DF8040B704700BF84460846E1
:101000006146FFE70FB5FFF7C9FF002848BF10F1A1
:10101000000F0FBD4DF808EDFFF7F4FF0CBF0120E6
:1010200000205DF808FB00BF4DF808EDFFF7EAFF70
:1010300034BF012000205DF808FB00BF4DF808ED2B
:10104000FFF7E0FF94BF012000205DF808FB00BF20
:101050004DF808EDFFF7D2FF94BF012000205DF8A6
:1010600008FB00BF4DF808EDFFF7C8FF34BF0120B3
:1010700000205DF808FB00BF4FEA4002B2F1FE4FCE
:101080000FD34FF09E03B3EB12620DD94FEA00234A
:1010900043F0004310F0004F23FA02F018BF404223
:1010A00070474FF00000704712F1610F01D142020A
:1010B00005D110F0004008BF6FF0004070474FF0BE
:1010C0000000704710B5044601F066F84FF47A73DB
:1010D000B0FBF3F000F088F8002221464FF0FF301B
:1010E00000F042F8002010BD074A08B5136803203D
:1010F00043F01003136000F025F80020FFF7E2FF33
:1011000003F08AFF002008BD00200240024A136855
:1011100001331360704700BF3C020020014B186888
:10112000704700BF3C02002013B50190FFF7F6FFA7
:101130000446FFF7F3FF019B001B9842F9D302B06E
:1011400010BD0000074A0002D36800F4E06023F4F9
:10115000E0631B041B0C43F0BF6343F40033034301
:10116000D360704700ED00E0174B30B5DC68C4F386
:101170000224C4F10703251D042B28BF0423062DD8
:101180004FF0010598BF002405FA03F303F1FF3384
:1011900088BF033C1940A14005FA04F4013C2240F9
:1011A000002842EA01024FEA0212AFBF00F160409C
:1011B000064B00F00F00D2B2A5BFD2B200F56140DD
:1011C0001A5480F8002330BD00ED00E014ED00E07B
:1011D0000123420900F01F0003FA00F0014B43F81D
:1011E0002200704700E100E00138B0F1807F0AD2B0
:1011F000F021064B064A586082F82310002007228F
:1012000098601A6070470120704700BF10E000E04E
:1012100000ED00E0044B04281A680CBF42F0040201
:1012200022F004021A60704710E000E0704708B531
:10123000FFF7FCFF08BD00002DE9F74F002216461E
:10124000654BDFF8A4E1DFF8A4C14FF001080C689A
:1012500008FA06F808EA0404A0457FD14D68122D6B
:1012600000F0AF8000F28880022D00F0A7807CD8CB
:10127000002D00F08E80012D00F09E804FF00F09B0
:10128000FF2C93BF824606F18045083DD0F800B0A0
:1012900092BFB500D0F804B0AD0009FA05F82BEA0A
:1012A000080802FA05F588BF00F1040A48EA0505B6
:1012B000CAF80050D1F804A01AF0805F4ED0474D14
:1012C000464FAD6926F0030845F00105BD61BD69D3
:1012D00008F1804805F00105019508F5803806F011
:1012E000030B019D4FEA8B0BD8F8085009FA0BF954
:1012F00025EA09093A4DA84268D005F58065A8425B
:1013000066D005F58065A84264D005F58065A842E1
:101310000CBF0325042505FA0BF545EA0905C8F8B5
:1013200008501D681AF4803F14BF2543A5431D6073
:101330005D681AF4003F14BF2543A5435D609D68B6
:101340001AF4801F14BF2543A5439D60DD681AF47D
:10135000001F14BF2C4325EA0404DC600136102E64
:101360007FF473AF03B0BDE8F08F032D22D0112DB1
:1013700084D1CA68043281E71A4FBD4209D012D81D
:10138000DFF86C904D4504D009F580394D457FF468
:1013900075AF8A68C2B1012A0CBFC0F81080C0F8CE
:1013A000148008226AE77545F3D06545F1D0DFF86F
:1013B0004490EBE7002261E7CA685FE7CA68083239
:1013C0005CE7CA680C3259E7042257E70025A2E718
:1013D0000125A0E702259EE700040140001002401D
:1013E0000008014000002110000031100000321000
:1013F00000001110000022100AB1016170470904B9
:10140000FBE7C3685940C16070470268536913F431
:1014100080630DD0536923F4806353610423836395
:10142000202380F83530002380F8343001207047C5
:10143000184670472DE9F0410C46064615461F46F2
:10144000FFF76CFE8046200CA4B215B3C5B22CE0A9
:101450007A1C0FD047B9202386F8353000230320AB
:1014600086F83430BDE8F081FFF758FEA0EB0800A5
:101470008742F0D33368012D0CBF5B699B6934EA66
:10148000030314BF01230023002BE1D10020BDE89A
:10149000F081C5B2EEE77B1C07D0002FDBD0FFF751
:1014A0003DFEA0EB08008742D5D33368012D0CBF69
:1014B0005B699B6934EA03030CBF01230023002B03
:1014C000E9D1E3E72DE9F0410D4604461646FFF762
:1014D00025FE0746C5F30748ADB22368B8F1010FF2
:1014E0000CBF5A699A6935EA020214BF0120002034
:1014F00008B9BDE8F0815A69520512D51A68012071
:1015000042F400721A605A6922F480625A6104231C
:10151000A363202384F83530002384F83430BDE8F9
:10152000F081731CD9D046B9202384F835300023CC
:10153000032084F83430BDE8F081FFF7EFFDC01BD5
:101540008642CAD2F0E770B504460D46FFF7E6FDC5
:10155000064623685B691B0601D5002070BD204646
:10156000FFF753FFA0B96A1CF3D05DB9A36B03204A
:1015700043F02003A363202384F83530002384F84C
:10158000343070BDFFF7CAFD801B8542E1D2EDE724
:10159000012070BDF7B5154602681F4613680E4658
:1015A00043F4807313604FF00111089B002204463E
:1015B000FFF740FF60B9236806F0FE061E61089A37
:1015C00017492046FFF77EFF28B1A36B042B15D0E7
:1015D000032003B0F0BD236808995A6920460192A0
:1015E0009B690193019BFFF7AEFF48B1A36B042BEE
:1015F000EED12268136843F4007313600120E8E71A
:10160000012F236802D1EDB21D61E2E72A0A1A61B7
:1016100008992046FFF797FF0028E7D12368F2E7F3
:1016200002000100F7B51F46036815461A680E460A
:1016300042F480621A601A684FF0011142F480721D
:101640001A60089B00220446FFF7F4FE78B923686D
:10165000F6B206F0FE021A612849089A2046FFF702
:1016600031FF38B1A36B042B01D1012000E003202E
:1016700003B0F0BD236808995A69204601929B691E
:101680000193019BFFF75FFF40B1A36B042BEED1E9
:101690002268136843F400731360E6E7012F2368A0
:1016A00021D1EDB21D6108992046FFF74CFF02469B
:1016B0000028EAD1216820460B6843F480730B6050
:1016C000089B4FF00111FFF7B5FE0028CFD123682A
:1016D00046F001061E61089A08492046FFF7F2FE0F
:1016E0000028BFD1C4E72A0A1A6108992046FFF7EB
:1016F0002AFF0028C9D12368D3E700BF02000100F8
:1017000070B504460D46FFF709FD06462268536989
:1017100013F0400301D0002070BD5169C9060BD5FC
:101720005169012021F0100151612022A36384F846
:10173000343084F8352070BD5DB9A36B032043F0CD
:101740002003A363202384F83530002384F8343049
:1017500070BDFFF7E3FC801B8542D7D2EDE70000A8
:1017600070B5044600285FD090F8353003F0FF02D2
:101770001BB980F8342003F08DFC2423226884F800
:1017800035301368294E23F00103136000F00AFD81
:101790006368274DB342B0FBF5F588BF4FF49671EF
:1017A000226888BF6943556085BF4FF47A75B1FBE5
:1017B000F5F1691C0131B342116220D85B00B0FB26
:1017C000F3F0C0F30B03032B98BF0420216AE369F5
:1017D000D0610B431360E168236900200B439360E1
:1017E000A16963690B43D360136843F0010313607D
:1017F0002023A06384F8353084F8360070BDA168DA
:1018000059B903EB4303B0FBF3F040F40040C0F3DD
:101810000B03002B08BF0120D8E719214B43B0FB75
:10182000F3F040F44040F2E7012070BDA0860100D3
:1018300040420F002DE9F74F9B4690F835300446A3
:10184000202B894692460C9FBDF8346003D00220BD
:1018500003B0BDE8F08F57B34EB342F210730122CC
:101860002F49FFF7E7FD80460028F0D194F8343087
:10187000012BECD00125226884F8345013684946C6
:1018800023F400631360212384F83530402384F867
:1018900036300E9BA063009352465B462046FFF70E
:1018A00079FE88B1A36B84F83480042B15D1012014
:1018B000CEE722683B7813615169731E49079BB2DA
:1018C0000DD41E4601375EB10E992046FFF73BFE50
:1018D0000028EED0A36B042B1BD00320B8E793B9EC
:1018E0000E992046FFF72FFE0028F3D122681368D7
:1018F00043F400731360202384F8340084F83530F7
:1019000084F83600A4E77B78023E1361B6B2023752
:10191000D9E72268136843F400731360C7E700BF78
:10192000020010002DE9F04F9B4690F8353089B049
:10193000202B044603919246129EBDF84C50149FF2
:1019400005D04FF0020A504609B0BDE8F08F5EB3F3
:1019500055B342F2107301226249FFF76BFD8046D6
:101960000028EED194F83430012BEAD04FF0010971
:10197000226884F834901368039923F40063136099
:10198000222384F835304023524684F836300097BD
:10199000A0635B462046FFF745FE824638B1A36B45
:1019A00084F83480042B1ED14FF0010ACBE7236862
:1019B000012D1A681AD122F480621A6072B6236867
:1019C0005A6905929A690592059A1A6842F400725A
:1019D0001A6062B639462046FFF792FE00284DD0C5
:1019E000A36B202BE0D14FF0030AACE7022D23D1EB
:1019F00042F400621A6072B623685A6906929A69C4
:101A00000692069A1A6822F480621A6062B63B4611
:101A1000002235492046FFF70DFD0028E3D172B6BC
:101A200023681A6842F400721A601B69337062B648
:101A300023681B69737024E042F480621A605A695B
:101A400007929B690793079B032D23D939462046AC
:101A5000FFF756FE0028C3D123681B693370226844
:101A600053695B074DBF1269731C05F1FF35B31C49
:101A700044BF023D7270ADB21E46E5E723681B69A4
:101A80003370202384F83530002384F8363084F80E
:101A9000343058E7022DBAD000223B461249204686
:101AA000FFF7C8FC024600289DD121680B6823F48B
:101AB00080630B6072B623680B491B692046337044
:101AC0003B46FFF7B7FC00288DD123681A6842F423
:101AD00000721A601B69737062B623681B69B37069
:101AE000CFE700BF020010000400010003682DE9E9
:101AF000F743DE07054634D42B689C0700F1A78026
:101B00002B681A0723D5AA69BE4C0123BE49002AB7
:101B100000F0158193FAA3F2B2FA82F241F8223072
:101B2000FFF7FCFA0226074696FAA6F396FAA6F302
:101B3000626A96FAA6F3B3FA83F303F01F0322FA5C
:101B400003F3DB0740F1F4800120FFF7EDFA2B6887
:101B5000590700F11481EA69002A40F093810020BE
:101B600020E0A84C636803F00C03042B07D06368E3
:101B700003F00C03082B18D16368D80315D54FF474
:101B8000003393FAA3F2226893FAA3F3B3FA83F330
:101B900003F01F0322FA03F3D907ADD56B68002BBE
:101BA000AAD1012003B0BDE8F0836B68B3F5803F94
:101BB0001CD1236843F480332360FFF7AFFA4FF45E
:101BC0000036074696FAA6F3226896FAA6F3B3FA09
:101BD00083F303F01F0322FA03F3DA078CD4FFF731
:101BE0009DFAC01B6428EDD90320DBE703BB236803
:101BF0004FF4003623F480332360236823F48023DA
:101C00002360FFF78BFA074696FAA6F3226896FA46
:101C1000A6F3B3FA83F303F01F0322FA03F3DB07FF
:101C20007FF56AAFFFF77AFAC01B6428ECD9DBE7CF
:101C3000B3F5A02F236803D143F480232360B8E7D2
:101C400023F480332360236823F48023B4E76D4CAE
:101C5000636813F00C0F07D0636803F00C03082BC4
:101C600020D16368DF031DD4022393FAA3F2226814
:101C700093FAA3F3B3FA83F303F01F0322FA03F3F7
:101C8000DE0702D52B69012B8BD12168F82393FA4B
:101C9000A3F3B3FA83F26B69934021F0F802134384
:101CA00023602DE72A69012302B393FAA3F2B2FA63
:101CB00082F2920002F1844202F584021360FFF77F
:101CC0002DFA0226074696FAA6F3226896FAA6F39C
:101CD000B3FA83F303F01F0322FA03F3D807D4D433
:101CE000FFF71CFAC01B0228EDD97DE793FAA3F396
:101CF000B3FA83F39B0003F1844303F584031A6072
:101D0000FFF70CFA0226074696FAA6F3226896FA1F
:101D1000A6F3B3FA83F303F01F0322FA03F3D90700
:101D20007FF5EEAEFFF7FAF9C01B0228ECD95BE7AE
:101D3000FFF7F4F9C01B02287FF6F6AE54E793FADA
:101D4000A3F3B3FA83F341F82320FFF7E7F9022660
:101D5000074696FAA6F396FAA6F3626A96FAA6F3EF
:101D6000B3FA83F303F01F0322FA03F3D8077FF5D6
:101D7000EEAEFFF7D3F9C01B0228EAD934E7214CB5
:101D8000224EE36943F08053E361E36903F080533B
:101D90000193019B336843F480733360FFF7BEF90E
:101DA00007463368DA0526D5EB68012B30D1236A64
:101DB00043F001032362FFF7B1F902268146B046E2
:101DC00041F2883796FAA6F396FAA6F3002B55D07F
:101DD000226A98FAA8F3B3FA83F303F01F0322FAF6
:101DE00003F3DB073FF5B7AEFFF798F9A0EB090067
:101DF000B842E7D9F8E6FFF791F9C01B6428D0D9BB
:101E0000F2E600BF00100240800442420070004031
:101E100033BB236A022623F001032362236A374679
:101E200023F004032362FFF779F941F288398046F1
:101E300096FAA6F396FAA6F313B3226A97FAA7F3D3
:101E4000B3FA83F303F01F0322FA03F3D8077FF5F5
:101E500082AEFFF763F9A0EB08004845E8D9C3E676
:101E6000052B236A03D143F0040323629FE723F089
:101E700001032362236A23F004039BE7626AA8E755
:101E8000626ADBE7444C636803F00C03082B3FF401
:101E900088AE022A4FF0807359D193FAA3F3B3FAB4
:101EA00083F300229B0003F1844303F584031A604B
:101EB000FFF734F94FF00076074696FAA6F322684A
:101EC00096FAA6F3B3FA83F303F01F0322FA03F39F
:101ED000D90736D42B6AB3F5803F05D16268A9686B
:101EE00022F400320A4362606268696A22F4741262
:101EF0000B43134363604FF0807393FAA3F3B3FA79
:101F000083F301229B0003F1844303F584031A60E9
:101F1000FFF704F94FF00075064695FAA5F322681D
:101F200095FAA5F3B3FA83F303F01F0322FA03F340
:101F3000DA073FF514AEFFF7F1F8801B0228ECD961
:101F400052E6FFF7EBF8C01B0228B6D94CE693FA2D
:101F5000A3F3B3FA83F300229B0003F1844303F558
:101F600084031A60FFF7DAF84FF00075064695FA19
:101F7000A5F3226895FAA5F3B3FA83F303F01F03E0
:101F800022FA03F3DB077FF5EAADFFF7C7F8801B02
:101F90000228ECD928E600BF0010024030B5204BE3
:101FA00087B002AC03F1100522461868596808335F
:101FB00003C2AB421446F7D101238DF8043002234B
:101FC000184C8DF80530616801F00C03082B24D102
:101FD0004FF4701393FAA3F3B3FA83F201F470137E
:101FE000D34006AA134413F8100CCB0313D563682F
:101FF0004FF4003292FAA2F2B2FA82F203F4003302
:10200000D34006AA134413F8142C074BB3FBF2F386
:10201000584307B030BD054BFAE70348F9E700BF66
:10202000407600080010024000127A0000093D00CE
:10203000554A2DE9F0411368064603F007038B4229
:102040000D4630D3326894073AD4D00740D44E4A74
:10205000136803F007039D42C0F0848032684B4C44
:1020600012F0040F40F08980130706D563683269C7
:1020700023F4605343EAC2036360FFF78FFF636892
:10208000F02292FAA2F2B2FA82F203F0F003D34005
:102090003F4AD35CD8403F4B18600020FFF712F84E
:1020A0000020BDE8F081136823F007030B431360A1
:1020B000136803F007039942C4D00120BDE8F08102
:1020C0003249B0684B6823F0F00303434B60BCE730
:1020D00072682E4C012A28D14FF4003393FAA3F1F1
:1020E000216893FAA3F3B3FA83F303F01F0321FAF1
:1020F00003F3D907E1D5636841F2883823F003037D
:102100001A436260FFF70AF873680746012B12D181
:10211000636803F00C03042B99D0FEF7FFFFC01B8C
:102120004045F5D90320BDE8F081022A0CBF4FF0ED
:1021300000730223D2E7022B0FD1636803F00C0374
:10214000082B84D0FEF7EAFFC01B4045F5D9E9E72C
:10215000FEF7E4FFC01B4045E4D8636813F00C0FA2
:10216000F6D174E7136823F007032B431360136859
:1021700003F007039D42A0D170E76368F16823F480
:10218000E0630B4363606FE70020024000100240F1
:10219000AA760008B4010020014B1868704700BF00
:1021A000B4010020084B4FF4E0625B6892FAA2F29F
:1021B000B2FA82F203F4E063D340044AD35C044AE7
:1021C0001068D840704700BF00100240BA7600087F
:1021D000B4010020084B4FF460525B6892FAA2F2FF
:1021E000B2FA82F203F46053D340044AD35C044A47
:1021F0001068D840704700BF00100240BA7600084F
:10220000B4010020036A70B523F001030362036A7E
:10221000446882690D6822F073022A438D6823F0B6
:1022200002032B430A4DA8420BD1CD6823F00803CB
:102230002B438E694D6924F44074354323F0040325
:102240002C43446082614A684263036270BD00BFF0
:10225000002C0140036A70B523F480730362036AA3
:102260004468C2690D6822F073022A438D6823F422
:10227000007343EA05230B4DA8420DD1CD6823F42A
:10228000006343EA05238E694D6924F440543543C5
:1022900023F4806344EA05144460C2614A68C2635F
:1022A000036270BD002C0140036A30B523F48053F3
:1022B0000362036A4468C2690D6822F4E64242EA96
:1022C00005228D6823F4005343EA0533064DA842E6
:1022D00002BF4D6924F4804444EA85144460C2611D
:1022E0004A680264036230BD002C0140184A03684A
:1022F00090420AD0B0F1804F07D0A2F594329042BC
:1023000003D002F58062904215D14A6823F0700331
:1023100013430F4A90420AD0B0F1804F07D0A2F584
:102320009432904203D002F58062904203D1CA6891
:1023300023F44073134303608B68C3620B688362AA
:10234000034B984204BF0B69036301234361704749
:10235000002C014010B50446A0B190F8393003F0CC
:10236000FF021BB980F8382002F0B6FE0223206875
:1023700084F83930211DFFF7B9FF0123002084F8CC
:10238000393010BD012010BD036A70B523F0100371
:102390000362036A446882690D6822F4E64242EAF5
:1023A00005228D6823F0200343EA05130B4DA84254
:1023B0000DD1CD6823F0800343EA05138E694D6982
:1023C00024F44064354323F0400344EA8504446028
:1023D00082614A688263036270BD00BF002C0140C5
:1023E00038B590F838300446012B4FF0020025D064
:1023F000012384F8390084F838300C2A18D8DFE833
:1024000002F0071717171E1717172F171717400077
:102410002068FFF7F7FE236809699A6942F008020D
:102420009A619A6922F004029A619A690A439A6150
:102430000123002084F8393084F8380038BD206842
:10244000FFF7A2FF236809699A6942F400629A6162
:102450009A6922F480629A619A6942EA0122E6E767
:102460002068FFF7F7FE23680969DA6942F008027D
:10247000DA61DA6922F00402DA61DA690A43DA61C0
:10248000D6E72068FFF710FF23680969DA6942F48C
:102490000062DA61DA6922F48062DA61DA6942EABA
:1024A0000122ECE710B50124036A8C4023EA0403FF
:1024B0000362036A8A401A43026210BD10B50446E3
:1024C00001220068FFF7EEFF2368064A00209342CE
:1024D00002BF5A6C42F400425A641A6842F0010288
:1024E0001A6010BD002C014090F8383010B5012B57
:1024F0004FF0020316D080F8393091E818002343DA
:102500008C6802682343CC6823430C6923434C69DD
:10251000896923430B435364012380F83930002336
:1025200080F83830184610BD90F8383010B5012BBF
:102530004FF0020318D080F8393003680C685A68ED
:10254000496822F070025A605A6822435A609A68B9
:1025500022F080029A609A680A439A60012380F808
:102560003930002380F83830184610BD2DE9F04787
:102570000568C2682B69016923F4405313432B613A
:102580008368EA680B43416922F4B05222F00C02DE
:102590000B431343EB606B69826923F4407313436D
:1025A0006B61404B81469D424FF0190446D1FFF7C5
:1025B00011FE04FB00F3D9F804604FF06408B60084
:1025C000B3FBF6F3B3FBF8F31E01FFF703FE604322
:1025D000D9F804309B00B0FBF3F7FFF7FBFD604335
:1025E000D9F804309B00B0FBF3F3B3FBF8F308FB1E
:1025F00013731B013233B3FBF8F303F0F007FFF75B
:10260000E9FD6043D9F804209200B0FBF2FAFFF72D
:10261000E1FD6043D9F804309B00B0FBF3F3B3FB5A
:10262000F8F308FB13A31B013233B3FBF8F303F0F9
:102630000F033B433344AB60BDE8F087FFF7B2FDC7
:1026400004FB00F3D9F804604FF06408B600B3FB54
:10265000F6F3B3FBF8F31E01FFF7A4FD6043D9F8CE
:1026600004309B00B0FBF3F7FFF79CFD6043D9F803
:1026700004309B00B0FBF3F3B3FBF8F308FB1373D8
:102680001B013233B3FBF8F303F0F007FFF78AFDC9
:102690006043D9F804209200B0FBF2FAFFF782FD04
:1026A000B7E700BF00380140F8B504460E461546AE
:1026B000FEF734FD07462268136836EA030301D1AA
:1026C0000020F8BD6B1CF7D0C5B923680320DA6879
:1026D00022F08002DA60DA6822F02002DA60DA683A
:1026E00022F48072DA605A6922F001025A610123F1
:1026F00084F83930002384F83830F8BDFEF70EFD39
:10270000C01B8542D7D2E0E710B5044630B390F83D
:10271000393003F0FF021BB980F8382002F054FD75
:102720000223226884F83930D368204623F400530A
:10273000D360FFF71BFF236800201A6922F4904240
:102740001A615A6922F02A025A61DA6842F4005288
:10275000DA600123E06384F8393010BD012010BD38
:1027600070B50D4690F839100446C9B201291E46CD
:1027700001D022294DD1002D49D0002A47D094F80C
:102780003830012B45D0012384F838300023E3632F
:1027900094F83930A284222B0CBF32231223E28416
:1027A00084F83930E28C8AB9324640212046FFF75E
:1027B0007BFFC0B994F83930322B0CBF22230123A0
:1027C00084F83930002384F8383070BDA368013AAA
:1027D000B3F5805FE2844FF08001324620460DD190
:1027E000FFF762FF08B1032070BD2B882268C3F396
:1027F00008035360236943B90235D3E7FFF754FF59
:102800000028F0D123682A785A600135CAE70120F0
:1028100070BD022070BD90F83930DBB2012B01D0C1
:10282000122B28D129B322B390F83830012B22D0B3
:10283000012380F838300023C3638285C28590F875
:10284000392080F83830122A0CBF32222222036845
:1028500080F83920DA68816242F48072DA605A695D
:10286000002042F001025A61DA6842F02002DA6088
:102870007047012070470220704770477047026818
:1028800013B511680446C907D36805D5DB0542BFF7
:10289000C36B43F00103C36311685369880703F0F6
:1028A000010304D51BB1E16B41F00401E163116840
:1028B000490704D51BB1E16B41F00201E1631168E6
:1028C000080704D51BB1E36B43F00803E363116809
:1028D000D368890633D5980631D594F8393003F09A
:1028E000EF03222B2BD1A3682169B3F5805FA36A84
:1028F00076D1526800296FD1C2F3080223F8022B67
:10290000A362E38D013B9BB2E385C3B923682046F4
:10291000DA6822F02002DA6094F83920322A17BFF0
:10292000DA68122322F48072DA601FBF5A6922F03B
:1029300001025A61012384F8393002F01FFB236839
:102940001968DA68090622D5100620D594F83920CE
:1029500002F0DF02122A1AD1A268B2F5805F226A61
:102960004CD11188C1F3080159602169002943D174
:1029700002322262E28C013A92B2E2843AB9DA6817
:1029800022F08002DA60DA6842F04002DA60196808
:10299000DA68490610D552060ED5DA68204622F0CC
:1029A0004002DA6094F83930322B0CBF2223012325
:1029B00084F83930FFF761FFE36B5BB12368204691
:1029C0001A6801925B680193019B012384F83930F6
:1029D000FFF754FF02B010BDD2B223F8012B8FE7EE
:1029E00021B9591C5268A1621A708AE75268591CB1
:1029F000A16202F07F02F7E70132BAE7511C2162BF
:102A000012785A60B6E7000010B57521D02001F0A9
:102A1000B5FA712803D03E211A4801F019FF0123AD
:102A200080226B21D02001F089FA01236B211A4604
:102A3000D02001F083FA012300226C21D02001F084
:102A40007DFA012300221921D02001F077FA012319
:102A500003221D21D02001F071FA012303221A2143
:102A6000D02001F06BFA012310221B21D02001F0AD
:102A700065FABDE81040012308221C21D02001F096
:102A80005DBA00BF50760008002373B53B21009368
:102A9000ADF804306A460623D02001F0A5FA9DF86F
:102AA00002209DF803509DF800309DF8010045EA92
:102AB00002259DF805409DF8042040EA032044EAE1
:102AC0000224164B2DB224B200B218805D809C8087
:102AD000FEF7B8F84FF08141FEF708F94FF060516A
:102AE000FEF704F90E4E30602846FEF7ABF84FF0C3
:102AF0008141FEF7FBF84FF06051FEF7F7F8706088
:102B00002046FEF79FF84FF08141FEF7EFF84FF0B7
:102B10006051FEF7EBF8B06002B070BDDC0200203F
:102B2000B80200200023F7B543210093ADF804302C
:102B30006A460623D02001F057FA9DF802209DF83E
:102B400003509DF800309DF8010045EA02259DF8EC
:102B500005409DF8042040EA032044EA02241A4B71
:102B60002DB224B200B218805D809C80FEF76AF816
:102B7000164F1749FEF7BAF84FF06051FEF7B6F856
:102B80003968FDF7A9FF134E30602846FEF75AF862
:102B90000F49FEF7ABF84FF06051FEF7A7F87968E0
:102BA000FDF79AFF70602046FEF74CF80849FEF7E3
:102BB0009DF84FF06051FEF799F8B968FDF78CFF6A
:102BC000B06003B0F0BD00BFA602002000000020EE
:102BD00000007A44AC02002013B5012322223721E1
:102BE000D02001F0ABF901236A211A46D02001F070
:102BF000A5F90021182001F0C1F9482803D0A0212F
:102C0000294801F025FE01230B211A46182001F066
:102C100095F9012300220A21182001F08FF90123E0
:102C20000F220A21182001F089F901AA032310219B
:102C3000182001F0D9F99DF804001C4C8038FEF7EB
:102C400001F84FF06E51FEF751F84FF07E51FDF74D
:102C500045FF20609DF805008038FDF7F3FF4FF039
:102C60006E51FEF743F84FF07E51FDF737FF60607D
:102C70009DF806008038FDF7E5FF4FF06E51FEF736
:102C800035F84FF07E51FDF729FF0123A0600022A7
:102C90000A21182001F052F9012316220A211820D6
:102CA00001F04CF902B010BD50760008D0020020AF
:102CB00000232DE9F347022118200093CDF80330BB
:102CC00001F05CF9C20760D507236A46032118208A
:102CD00001F08AF99DF806301B0759D49DF80320AE
:102CE0009DF802509DF8013045EA02259DF800004C
:102CF0009DF805209DF8044040EA032044EA0224A0
:102D0000264B00B22DB224B218805D809C80244BEB
:102D1000DFF89C90D3F800A0DFF89880FDF792FFD1
:102D20005146FDF7E3FF1F4FD9F80010FDF7DEFF16
:102D3000D8F80010FDF7D0FE3968FDF7D7FF1A4E1E
:102D400030602846FDF77EFF5146FDF7CFFFD9F8EA
:102D50000410FDF7CBFFD8F80410FDF7BDFE79682D
:102D6000FDF7C4FF70602046FDF76CFF5146FDF78C
:102D7000BDFFD9F80810FDF7B9FFD8F80810FDF726
:102D8000ABFEB968FDF7B2FFB06002B0BDE8F087F6
:102D9000064A538801335380F7E700BFA0020020A2
:102DA0001C0000202C000020C4020020472300202B
:102DB000D00200202000002008B5FFF725FEFFF715
:102DC0000BFF044800F0F8F9BDE80840002000F0CF
:102DD000F9B900BF9A99193F024B0348596800F0AE
:102DE000F6BF00BF400200200C000020024B034849
:102DF000196800F0ECBF00BF400200201400002062
:102E00000B4B10B59C680B492046FEF721F948B1E1
:102E100009492046FEF708F920B107492046FDF789
:102E20005DFE10BD05492046FDF756FE10BD00BFF2
:102E300040020020000034C30000B4420000874379
:102E400030B587B0FFF720FEFFF76CFEFFF730FFCD
:102E500002F02CFA2B4C2C4D23682860C01AFDF789
:102E6000EDFE2A49FDF7F6FF00F0ACF92B68284A81
:102E70002360284C116850680594274C274BA5689F
:102E800001F100410495656800F100400395246854
:102E900002949C6804F1004401941C6800945B68EF
:102EA000926800F095F91E4A1E4B11881E4C19803D
:102EB0005188928859809A801C4A1188D9805188FB
:102EC000928819815A811A4A118899815188928869
:102ED000D9811A82FFF78AFF1649FDF707FFFEF72F
:102EE000CBF82080FFF778FF1249FDF7FFFEFEF7D1
:102EF000C3F86080FFF784FFFEF7BEF8A08007B03C
:102F000030BD00BF4C0200205002002000007A4477
:102F1000B802002040020020C4020020AC020020C1
:102F2000DC020020B823002023230020A60200207A
:102F3000A00200200000204107B5032301AA0021C0
:102F4000EE2001F039F89DF805009DF8063043EABF
:102F500000239DF8040043EA004003B05DF804FB41
:102F60002DE9F74F6E4C6F4D2378002B00F09E80BB
:102F70006D4B1A780193002A00F098806B4A6C49D7
:102F800053890F689089B2F808A0A7EB03278AFB42
:102F900007AB80FB0701B2F80680B2F804E088FBBB
:102FA0000789C30D4FEADA104FEA0E4E40EA4B6034
:102FB000528810EB0E0A4FEA182043EA41234FEAE9
:102FC000C2324FEAEB1140EA096003F5FA6641F1BB
:102FD000000B80184FEA292141F10001B6F5FA6F84
:102FE000A7BF00239E465B4303EB8303BCBF4FEAAE
:102FF000630E9B10C01A61EBE3714E4BBAEB0E0AE5
:10300000D3F800C06BEBEE7BA0FB0C230CFB013371
:10301000500D40EAC320B0EB0A0A4FEA635161EB5E
:103020000B0B4FEADA3040EA4B40FDF70BFE42490A
:10303000FDF710FF414B804618603046FDF702FE59
:103040003D49FDF707FF3E4B3E4918604046FDF7FE
:1030500001FFFDF7E9F92EA3D3E9002302F0F6FD05
:1030600002460B4600203849FDF77EF82AA3D3E933
:103070000023FDF72DFAFDF7DBFC0146334800F095
:10308000A6FE334B00271860FDF7F6FF314B0122F7
:103090001860019BEE201F702F4B277019783B465C
:1030A000503100F04BFF02F0FFF8286002F0FCF80E
:1030B0002B682A4DC01A0A2814D9237893B91A4BC1
:1030C0001E787EB9FFF738FF0122194B2270186075
:1030D000214BEE2019783346403100F02FFF02F0EB
:1030E000E3F8286002F0E0F82B68C01A0A280AD931
:1030F000237843B10C4C23782BB9FFF71DFF0D4B00
:1031000018600123237003B0BDE8F08FAFF3008097
:1031100000000060955BC83F0000000040A5E5404E
:103120006D020020740200206C0200205402002076
:1031300068020020640200200000C842E80200206B
:10314000EC02002000507D440000F03F3C000020D5
:10315000E402002039240020380000207002002002
:10316000012373B500241A461E21EE2000F0E6FE6E
:103170000A2002F09DF8082225460D4B0D4E1A70CC
:1031800004F1A001022301AA89B2EE208DF80450B7
:103190008DF8055000F028FF9DF804209DF80530BB
:1031A00043EA0223A3530234102CE9D102B070BDCC
:1031B0003800002054020020014B1860704700BF07
:1031C000F0020020014B1860704700BFF40200209D
:1031D0002DE9F04F9846A84B99B01B680E910293C9
:1031E000A54B01465B6810920193A34B0D909D681F
:1031F000DC68FDF77BFD0E9906460846FDF776FD77
:1032000001463046FDF76AFC109906460846FDF770
:103210006DFD01463046FDF761FCFDF705F902F052
:1032200079FEFDF705FC00210746FDF7F3FE0028B7
:1032300040F0828524990846FDF758FD25990646F9
:103240000846FDF753FD01463046FDF747FC269939
:1032500006460846FDF74AFD01463046FDF73EFCAE
:10326000FDF7E2F802F056FEFDF7E2FB002106460C
:10327000FDF7D0FE002840F05F854046FDF7D4F80A
:103280007BA3D3E90023FDF723F9FDF7D1FB0890D9
:103290002298FDF7C9F876A3D3E90023FDF718F9C2
:1032A000FDF7C6FB09902398FDF7BEF870A3D3E99C
:1032B0000023FDF70DF9FDF7BBFB02990A900846C4
:1032C000FDF70CFC019903900846FDF707FC294621
:1032D00005902846FDF702FC214606902046FDF7A2
:1032E000FDFB029914900846FDF700FD0199804608
:1032F0000298FDF7FBFC29460F900298FDF7F6FCBB
:10330000019912900846FDF7F1FC214607900198BB
:10331000FDF7ECFC29460B902846FDF7E7FC21461B
:1033200004902046FDF7E2FC39460C904FF07E50A9
:10333000FDF790FD314611904FF07E50FDF78AFD6C
:10334000064601462498FDF7D1FC31468246259871
:10335000FDF7CCFC314607462698FDF7C7FC5146E1
:1033600081460398FDF7C2FC394613900398FDF798
:10337000BDFC494683460398FDF7B8FC5146064616
:103380000598FDF7B3FC514615904046FDF7AEFC9D
:10339000594616902046FDF7A9FC169B0146184693
:1033A000FDF79AFB314616902846FDF79FFC169BC9
:1033B00001461846FDF792FB514616900798FDF717
:1033C00095FC169B01461846FDF788FB394616907A
:1033D0000598FDF78BFC2946FDF788FC169B0146F6
:1033E0001846FDF77BFB494616900598FDF77EFCD5
:1033F0002146FDF77BFC169B01461846FDF76EFB48
:10340000514616900498FDF771FC169B014618462C
:10341000FDF762FB514616900C98FDF767FC169B72
:1034200001461846FDF758FB139917902046FDF703
:103430005DFC394616904046FDF758FC169B014648
:103440001846FDF74BFB314616900198FDF74EFCF0
:10345000169B01461846FDF73FFB15990646284680
:10346000FDF744FC0146304608E000BFAFF30080A2
:10347000399D52A246DF913F44000020FDF72EFB0C
:10348000394606460798FDF731FC01463046FDF700
:1034900023FB394606460498FDF728FC01463046D2
:1034A000FDF71CFB494606460698FDF71FFC214622
:1034B000FDF71CFC01463046FDF710FB3946064679
:1034C0000C98FDF713FC01463046FDF705FB179AF3
:1034D000169011461046FDF709FC169B0646194644
:1034E0001846FDF703FC01463046FDF7F7FAFCF7F6
:1034F0009BFF02F00FFDFDF79BFA139B0646294642
:1035000003F10040FDF7F2FB594613900198FDF7D7
:10351000EDFB139B01461846FDF7E0FA494683464A
:103520004046FDF7E3FB01465846FDF7D7FA1599EB
:1035300080462046FDF7DAFB01464046FDF7CEFA0D
:10354000494680460798FDF7D1FB01464046FDF706
:10355000C3FA394680460698FDF7C8FB2146FDF7B9
:10356000C5FB01464046FDF7B9FA49468046049836
:10357000FDF7BCFB01464046FDF7AEFA49468046E2
:103580000C98FDF7B3FB01464046FDF7A7FA01464C
:103590008046FDF7A3FA0B9915900846FDF79EFAB1
:1035A000039983462846FDF7A1FB01465846FDF7DF
:1035B00093FA119983460D98FDF798FB01465846FA
:1035C000FDF78AFA06990D902046FDF78FFB0F99BB
:1035D00083460846FDF782FA01465846FDF77EFA13
:1035E000119983460E98FDF781FB01465846FDF779
:1035F00073FA41460E902846FDF778FB0499169021
:103600004FF07C50FDF768FA0C99FDF765FA3146EA
:10361000FDF76CFB129983460B98FDF75DFA414666
:10362000FDF764FB01465846FDF758FA5146FDF791
:1036300053FA06F1004341460C9001981393FDF7AD
:1036400055FB294617900198FDF750FB214682460D
:103650000298FDF74BFB01465046FDF73DFA314617
:10366000FDF744FB214682462846FDF73FFB0F99B4
:10367000FDF734FA4146FDF739FB01465046FDF7A8
:103680002DFA3946FDF728FA31460F902846FDF706
:103690002DFB079907464FF07C50FDF71DFA049962
:1036A000FDF71AFA4146FDF721FB0B998246129865
:1036B000FDF714FA3146FDF719FB01465046FDF7B8
:1036C0000DFA4946FDF708FA069B0D990B9003F198
:1036D0000040FDF70BFB0E9981460598FDF706FBB0
:1036E00001464846FDF7FAF90C9981461698FDF710
:1036F000FDFA01464846FDF7EFF913998146204649
:10370000FDF7F4FA1799FDF7E9F90F99FDF7EEFACD
:1037100001464846FDF7E2F90B9981463846FDF728
:10372000E5FA01464846FDF7D9F90799129008468F
:10373000FDF7D4F901464FF07E50FDF7CDF904991D
:1037400081460846FDF7CAF901464846FDF7C4F927
:10375000119981461098FDF7C9FA01464846FDF7D0
:10376000BBF9414683462046FDF7C0FA41468146F3
:103770000298FDF7BBFA0D9982461498FDF7B6FA48
:103780000E9980460398FDF7B1FA01464046FDF7D1
:10379000A5F94FF0814180460198FDF7A7FA5946F7
:1037A000FDF7A4FA01464046FDF796F949468046E2
:1037B0000C98FDF79BFA01464046FDF78FF95146FC
:1037C00080463846FDF78AF90F99FDF78FFA0146D2
:1037D0004046FDF783F9314607462046FDF786FA55
:1037E000159980460198FDF781FA01464046FDF79C
:1037F00073F90B99FDF77AFA01463846FDF76EF931
:10380000314604903046FDF769F9314600F1004831
:103810000198FDF76BFA039B07460D9903F10040F1
:10382000FDF764FA0E9903901498FDF75FFA039B75
:1038300001461846FDF752F94FF0814103902846A2
:10384000FDF754FA5946FDF751FA039B0146184615
:10385000FDF742F9414683462846FDF747FA5146AF
:10386000FDF73AF90C99FDF741FA01465846FDF784
:1038700035F9394682464846FDF730F90F99FDF78C
:1038800035FA01465046FDF729F93146814602983E
:10389000FDF72CFA159906462846FDF727FA01464A
:1038A0003046FDF719F90B99FDF720FA0146484615
:1038B000FDF714F90D9983460598FDF717FA0E994F
:1038C00006460698FDF712FA01463046FDF706F95E
:1038D000414606462046FDF709FA1799FDF7FEF81E
:1038E0000C99FDF703FA01463046FDF7F7F81399F6
:1038F00006460298FDF7FAF91699FDF7EFF80F99C9
:10390000FDF7F4F901463046FDF7E8F8394606467A
:103910000B98FDF7EBF901463046FDF7DFF81299F9
:1039200082460846FDF7E2F9049906460846FDF787
:10393000DDF901463046FDF7D1F8594606465846AE
:10394000FDF7D4F901463046FDF7C8F85146064662
:103950005046FDF7CBF901463046FDF7BFF8FCF7BE
:1039600063FD02F0D7FAFDF763F801464FF07E5091
:10397000FDF770FAAA4906460B680A6806930B68B9
:10398000079203930B6808990593019BA54F03F1D8
:103990000040FDF7ABF9099981462846FDF7A6F9E5
:1039A00001464846FDF798F80A9981462046FDF7FA
:1039B0009DF901464846FDF78FF84FF07C51FDF721
:1039C00095F9314681461298FDF790F9069BD7F894
:1039D00000801946FDF78AF901464846FDF77CF854
:1039E0004146FDF783F90299FDF778F80899814679
:1039F0000298FDF77BF90A9906902846FDF776F9BB
:103A0000069B01461846D7F80080FDF767F809992C
:103A100006902046FDF76AF9069B01461846FDF719
:103A20005BF84FF07C51FDF761F931460690049840
:103A3000FDF75CF9079A1146FDF758F9069B014618
:103A40001846FDF749F84146FDF750F90199FDF791
:103A500045F83B688046099902980693FDF746F9B8
:103A60000A9904900198FDF741F9049A014610461D
:103A7000FDF732F8089904902046FDF737F9049ACB
:103A800001461046FDF72AF84FF07C51FDF72EF95C
:103A9000314604905846FDF729F90399FDF726F9B8
:103AA000049A01461046FDF717F8069B1946FDF7E4
:103AB0001DF92946FDF712F80A9983460298FDF789
:103AC00015F9099902900198FDF710F9029B01463A
:103AD0001846FDF703F8089901902846FDF706F906
:103AE000019B01461846FCF7F7FF4FF07C51FDF7AC
:103AF000FDF8314605465046FDF7F8F80599FDF703
:103B0000F5F83F6801462846FCF7E6FF3946FDF721
:103B1000EDF82146FCF7E2FF494606464846FDF728
:103B2000E5F8414604464046FDF7E0F801462046E8
:103B3000FCF7D4FF594604465846FDF7D7F801462E
:103B40002046FCF7CBFF314604463046FDF7CEF861
:103B500001462046FCF7C2FFFCF766FC02F0DAF9EA
:103B6000FCF766FF01464FF07E50FDF773F90546FE
:103B700001464846FDF7BAF82B4C07462060294617
:103B80004046FDF7B3F82946814660605846FDF788
:103B9000ADF829468046A0603046FDF7A7F80146FB
:103BA000E0604846FDF7A2F8414605463846FDF775
:103BB0009DF801462846FCF78FFF0146FCF78EFF73
:103BC000FCF732FC01F0ECFF01F100470022174B3B
:103BD0003946FCF77DFC10A3D3E90023FCF7A2FDD6
:103BE000FCF726FF279B1860D4F80090D4F804A0B7
:103BF00049464846FDF77AF8514606465046FDF7D5
:103C000075F801463046FCF767FFA5680646294669
:103C100028460DE0AFF30080182D4454FB210940E5
:103C2000F0020020F40200204400002000806640E2
:103C3000FDF75CF801463046FCF74EFFD4F80C80E7
:103C4000064641464046FDF751F801463046FCF72E
:103C500045FFFCF7E9FB06460F4648465146FDF78F
:103C600045F8414681462846FDF740F8014648465A
:103C7000FCF734FF0146FCF731FFFCF7D5FB324679
:103C80003B4601F0E1FF00222F4BFCF721FC2CA367
:103C9000D3E90023FCF746FDFCF7CAFE279B5860DA
:103CA0002568D4F8048029462846FDF71FF84146C8
:103CB00006464046FDF71AF801463046FCF70EFF6F
:103CC000D4F80890064649464846FDF70FF80146E5
:103CD0003046FCF701FFE468064621462046FDF722
:103CE00005F801463046FCF7F7FEFCF79DFB06465B
:103CF0000F4640464946FCF7F9FF214680462846D4
:103D0000FCF7F4FF01464046FCF7E8FE0146FCF7ED
:103D1000E5FEFCF789FB32463B4601F095FF0022A9
:103D2000094BFCF7D5FB06A3D3E90023FCF7FAFC0B
:103D3000FCF77EFE279B986019B0BDE8F08F00BFAE
:103D4000182D4454FB2109400080664042F20402D1
:103D5000835A835A01339BB2835242F20202835A3E
:103D60009BB2C154835A0133C3F30C038352012025
:103D7000704742F20402835A9BB283B1835A013BDB
:103D80009BB2835200F5005213889BB2C35C0120A2
:103D90000B7013880133C3F30C031380704718466C
:103DA000704742F20403C05A80B27047002300F506
:103DB0000052138042F20202835242F20402835202
:103DC0001A46C2540133B3F5005FFAD1704770B59B
:103DD0000E464568044629464FF07E50FCF77CFEAF
:103DE0003146FCF783FF064621682846FCF77EFF34
:103DF0003146FCF773FE206070BD000070B51546BB
:103E0000B0FA80F20E460C4C520920464FF40041A5
:103E1000FDF7F2FAB6FA86F2204652094FF48041D5
:103E2000FDF7EAFAB5FA85F22046BDE8704052097E
:103E30004FF40051FDF7E0BA0010014010B5032423
:103E4000002201201146FFF7D9FF642001F030FA6B
:103E5000002201211046FFF7D1FF642001F028FA6B
:103E6000002101220846FFF7C9FF642001F020FA73
:103E7000013CE5D1BDE81040012211461046FFF794
:103E8000BDBF000010B5FCF7DDFE034B1C68FDF75D
:103E9000F3F8206410BD00BF5824002010B5FCF7D3
:103EA000D1FE0449FCF722FF034B1C68FDF7E4F840
:103EB000E06310BD5C8F423F5824002010B5FCF732
:103EC000C1FE034B1C68FDF7D7F8A06310BD00BF0F
:103ED0008825002010B5FCF7B5FE0449FCF706FF65
:103EE000034B1C68FDF7C8F8E06310BDA01A4F3FF4
:103EF000D024002010B50421084C0948FEF7DEFA52
:103F000008210848FEF7DAFA08212046FEF7D6FA1B
:103F10002046BDE810400C21FEF7D0BA58240020FE
:103F200088250020D024002008B500F00FFDFFF701
:103F3000E1FFBDE80840FFF781BF000030B51D4636
:103F4000C82387B006AC04F8042D029301230A4667
:103F50000193014600940748FDF76CFC18B11B2142
:103F6000054800F075FC15B1322001F0A1F907B049
:103F700030BD00BF94240020617600087FB5002387
:103F800006AA02F8043DC823029301238DE80C0021
:103F90000A4601460648FDF7C5FC18B12D21054823
:103FA00000F056FC9DF8140007B05DF804FB00BF5C
:103FB00094240020617600081FB5C8248DE81C00F9
:103FC0000A46012301460648FDF7ACFC30B13D210D
:103FD000044804B0BDE8104000F03ABC04B010BD85
:103FE00094240020617600082DE9F04180460F46B8
:103FF0001E460024551E3919B44289B201DBBDE8C2
:10400000F0814046FFF7BAFF013405F8010FF2E7EF
:1040100010B501F049F90E4C2368C01A012806D9E1
:1040200001F042F92060FEF70BFF00F025FF01F0E0
:104030003BF9084C2368C01A642802D901F034F90E
:104040002060FEF78DFFBDE8104000F099BB00BF77
:10405000780200207C02002008B5FFF765FF00F021
:10406000ADFFFEF7A9FEFFF77BF8BDE8084000F0C2
:10407000AFBE08B5FFF7F0FFFFF7CAFFFCE700008F
:10408000094A0A4B116801F57A711980516801F5E6
:104090007A7159809168D26801F57A7102F57A7265
:1040A0009980DA80704700BF800200206B230020D7
:1040B00010B5084C2068FFF7E5FE6068FFF7EEFEDC
:1040C000A068FFF7FBFEE068FFF704FFBDE81040C3
:1040D000FFF7D6BF8002002008B50020FFF7D2FE10
:1040E0000020FFF7DBFE0020FFF7E8FEBDE80840F8
:1040F0000020FFF7EFBE0000B0F57A7FA8BF4FF4B5
:104100007A70B1F57A7FA8BF4FF47A71B2F57A7FF1
:10411000A8BF4FF47A72B3F57A7FA8BF4FF47A73D1
:1041200010B4084C20EAE07021EAE17122EAE27260
:1041300023EAE37320606160A260E36010BCFFF7D4
:10414000B7BF00BF800200202DE9F04715461C468E
:1041500006468846FCF7C0FC414607463046FCF759
:10416000BDFC294606463846FCF7B6FC2146FCF75E
:10417000B5FC1949FCF7B0FCFCF77EFF29468146E7
:104180003046FCF7A9FC2146FCF7A6FC1249FCF7D7
:10419000A3FCFCF771FF294680463846FCF79EFCDD
:1041A0002146FCF799FC0C49FCF796FCFCF764FFF0
:1041B000074631462846FCF791FC2146FCF78EFC69
:1041C0000549FCF789FCFCF757FF4B464246394648
:1041D000BDE8F047FFF790BF00007A442DE9F041B9
:1041E0002B4C2088B0F57A7F40DBB0F5FA6F40DCCD
:1041F000A0F57A70FCF726FD80466088B0F57A7FDE
:104200003ADBB0F5FA6F39DCA0F57A70FCF71AFDED
:104210000746A088B0F57A7F32DBB0F5FA6F31DC63
:10422000A0F57A70FCF70EFD0646E088B0F57A7FBF
:104230002ADBB0F5FA6F29DCA0F57A70FCF702FDF5
:1042400005464046FCF718FF124C20603846FCF744
:1042500013FF60603046FCF70FFFA0602846FCF7B4
:104260000BFFE060BDE8F041FFF722BF4FF0000810
:10427000C3E7DFF82480C0E70027CAE7064FC8E796
:104280000026D2E7044ED0E70025DAE7024DD8E752
:10429000732300208002002000007A442DE9F041C1
:1042A000164605460F460E48F4B200F095FE20462D
:1042B00000F04AFE28466C4000F046FE3D46EB1BEF
:1042C0009E4204DC2046BDE8F04100F03DBEA84619
:1042D00015F8010B00F038FE98F800305C40EEE76E
:1042E0006E76000807B5E9220C4B04211A700322F0
:1042F0005A700022D9709A7018681A715A719A719E
:104300009B8800908DF80620694607226420ADF84E
:104310000430FFF7C3FF03B05DF804FBB1230020B6
:104320001FB506220B4B00241A712A225C719A7168
:10433000DC711868596801AA03C21C725C729C7215
:104340001B899470138001A90B226520FFF7A6FF3B
:1043500004B010BD4723002070B586B001AA1546F1
:10436000094B03F11006144618685968083303C452
:10437000B3422246F7D11B881222238029466620A9
:10438000FFF78CFF06B070BDB823002007B56B4661
:10439000054A10685168082203C369466820FFF780
:1043A0007DFF03B05DF804FB6B2300207FB56A46F8
:1043B0006D46094B03F11006144618685968083316
:1043C00003C4B3422246F7D1102229466920FFF7E1
:1043D00065FF04B070BD00BF4624002007B5074B41
:1043E000062218689B88009069466C20ADF804305E
:1043F000FFF754FF03B05DF804FB00BF2323002048
:1044000007B5074B062218689B88009069466D2007
:10441000ADF80430FFF742FF03B05DF804FB00BFC6
:104420003924002007B5084B694618689A889B799B
:104430000090ADF804206E2007228DF80630FFF7BB
:104440002DFF03B05DF804FBFE22002007B5084BEA
:10445000694618689A889B790090ADF804206F200F
:1044600007228DF80630FFF719FF03B05DF804FB53
:104470005223002070B588B06A466D460A4B03F19E
:104480001806144618685968083303C4B342224614
:10449000F7D118681E2220609B882946A3807020CF
:1044A000FFF7FCFE08B070BD2923002070B586B070
:1044B0006A466D460A4B03F110061446186859689F
:1044C000083303C4B3422246F7D11868162220608D
:1044D0009B882946A3807220FFF7E0FE06B070BDDE
:1044E0009123002007B56B46054A106851680822E1
:1044F00003C369467320FFF7D1FE03B05DF804FBE8
:10450000A723002007B5002201A97420FFF7C6FEEB
:1045100003B05DF804FB07B5002201A97520FFF781
:10452000BDFE03B05DF804FB07B5002201A97720AA
:10453000FFF7B4FE03B05DF804FB704770477047A7
:104540007047000038B50C4D0C4C2A7820464FF4CB
:104550000051FCF751FF6A7820464FF48041FCF788
:104560004BFF2046AA784FF40041FCF745FFBDE819
:104570003840034800F030BD3624002000100140D0
:1045800072760008732808B500F081801CD86C286A
:1045900057D00CD8662845D004D8642837D0652871
:1045A00039D008BD682841D0692843D008BD6F289C
:1045B0005BD004D86D284BD06E2850D008BD702831
:1045C00059D072285DD008BDCB2800F092800CD85D
:1045D00077286ED004D874285FD0752863D008BDC2
:1045E000C8286CD0CA2876D008BDD32800F09F8098
:1045F00006D8CC2800F08380CF2800F08A8008BD40
:10460000D62800F09A80F42800F09F8008BDBDE80D
:104610000840FFF767BE002A00F0A080BDE8084010
:10462000FFF77EBEBDE80840FFF796BEBDE8084034
:10463000FFF7ACBE002A00F09180BDE80840FFF70C
:10464000B5BE002A00F08A80BDE80840FFF7C6BE6C
:10465000002A00F08380BDE80840FFF7D1BE002AA1
:104660007CD0BDE80840FFF7DDBE002A76D0BDE86B
:104670000840FFF7EBBE002A70D0BDE80840FFF706
:10468000F9BE002A6AD0BDE80840FFF70FBF002A34
:1046900064D0BDE80840FFF725BF002A5ED0BDE822
:1046A0000840FFF72FBF002A58D0BDE80840FFF7A9
:1046B00032BF002A52D0BDE80840FFF735BF284B73
:1046C00001F1100251F8040B914243F8040BF9D1A7
:1046D00000F096FA08BD234B01F11C0251F8040BBF
:1046E000914243F8040BF9D10A881A8000F086FA47
:1046F00008BD0A881C4B1A80FFF71FFF08BD0A6817
:104700001A4B1A608A889A808A799A71FFF716FF85
:1047100008BD174B01F1140251F8040B914243F804
:10472000040BF9D10A881A80FFF709FF08BD0A882F
:10473000104B1A80FFF704FF08BD0B680E4A136088
:104740004B685360FFF74AFD08BD0C4B0A881A807E
:104750008A789A70BDE80840FFF7F4BE08BD00BF34
:104760005B23002005230020592300203F24002044
:104770007B230020AF230020732300203624002059
:1047800070B500F0D9FBC8B1304C237825465BB931
:10479000638023716371A37100F0E2FBA0F1240335
:1047A00058425841207070BD012B08D100F0D8FB51
:1047B0004D2808BF022318BF0023237070BD022BB1
:1047C00005D100F0CDFB3C2808BF0323F3E7032B02
:1047D0000AD100F0C5FB80B2608008B90123A37143
:1047E0002B7801332B7070BD042B08D100F0B8FB7F
:1047F000A37820715840237860710133DDE7052BE1
:1048000014D1A6790EB10623D7E700F095FB638893
:104810009842D3DB6B889E42E2DA00F0A1FBAB1931
:10482000D8716B79013658406871F3E7062B04D1D3
:10483000667900F095FB864201D00023D2E7A27989
:10484000E11D2079FFF79EFE0023B6E7CA23002072
:1048500080B5012207460D461B484FF48041FCF706
:10486000CBFD00224FF400411748FCF7C5FD0022A4
:104870004FF400511448FCF7BFFD134CDFF8508093
:10488000124E20464FF48041FCF7BBFD20464FF40A
:104890000041FCF7B6FD4FF400512046FCF7B1FD96
:1048A000404600F099FB384600F096FB304600F099
:1048B00093FB284600F0A0FB0A2000F045FB4FF4D4
:1048C000FA7000F0F5FCDCE7001001409C7600086F
:1048D00090760008012310B590B00A9310230B9333
:1048E000002302240E934FF4601306A806940D943F
:1048F0000F93FDF7FBF818B13C211348FFF7A8FF11
:104900000F2301934FF4806303900590214601A883
:1049100002940493FDF78CFB044608B14921ECE7AF
:10492000FDF73AFC4FF47A73B0FBF3F0FCF75CFC54
:104930000420FCF76FFC224621464FF0FF30FCF7C5
:1049400013FC10B010BD00BF7B7600082DE9F041CC
:1049500094B0FCF7C9FBFFF7BDFF984B4FF46041E3
:104960009A69974842F010029A619A69012402F00C
:1049700010020192019A9A69022542F004029A619A
:104980009A69904F02F004020292029A9A6942F0E8
:1049900008029A619B69002203F008030393039BBA
:1049A000FCF72AFD002220218748FCF725FD4FF463
:1049B00060430DA982480D930E941095FCF73CFCC2
:1049C000202381480DA90D930E941095FCF734FC1B
:1049D0007E487F4B4FF4804280E8880000230261CC
:1049E0008360C36043618361C3610362FCF7B8FE07
:1049F00018B16B217748FFF72BFF4FF4E1324FF0EE
:104A00000C08754B75499860D86018619861D86139
:104A1000184683E80600C3F81480FDF775FE10B150
:104A200040F25111E6E74FF47A766D4C6D4BA06081
:104A300020616061204684E82800E660FDF78AFC7A
:104A400008B18821D6E70490059004A92046FDF717
:104A50006BFD08B18F21CDE76027079008900A9081
:104A60000B900C90424606A920460697FDF7B8FC2D
:104A700008B19A21BEE74FF400530D900E900F90AD
:104A80001090119013900DA920461293FDF72CFD64
:104A9000804608B1A621ADE7204600F061FB4FF04B
:104AA0008043514C204684E82801E660C4F8108019
:104AB000FDF750FC08B1C3219CE70690079006A9BA
:104AC0002046FDF731FD08B1CA2193E70E900F9003
:104AD000119004220DA920460D97FDF781FC074691
:104AE00008B1D32186E7204600F03AFB3F48404B0F
:104AF000C66080E8A8000761FDF72CFC08B1F02132
:104B000078E7002306A9394806930793FDF70CFDC3
:104B100008B1F7216EE760260E900F9011900822E1
:104B20000DA932480D96FDF75BFC10B14FF4807172
:104B300060E70C220DA92D48FDF752FC054610B187
:104B400040F2051156E7294800F00AFB0223294CE0
:104B5000294A204684E80C004FF47A73A560E3608C
:104B60002561FDF7F7FB10B14FF4917142E7069014
:104B7000079006A92046FDF7D7FC10B140F2291195
:104B800038E70E900F90119008220DA920460D963F
:104B9000FDF726FC10B14FF499712BE70C220DA9FB
:104BA0002046FDF71DFC10B140F2371122E72046E8
:104BB00000F0D6FA14B0BDE8F08100BF001002404A
:104BC00000100140801A06000008014094240020D3
:104BD000005400407B7600080C250020003801407E
:104BE0004C250020002C014088250020D0240020E6
:104BF00000040040582400200008004070470000D6
:104C0000F8B5124C124D2389B3F5C86F8CBF012241
:104C10000022104B1A70E088FCF710F86864B4F9B1
:104C20000200FCF70FF80746B4F90000FCF70AF899
:104C30000646B4F90400FCF705F80023EB61064BC7
:104C4000DF61064BDE61064BD861F8BD5B230020B7
:104C50005400002090020020AC000020040100203D
:104C60005C0100202DE9F041044600F01FFBE064E8
:104C700000F01CFB236D626DC01A904240F28480EC
:104C8000E069616A256BFBF729FF2946FBF724FFE2
:104C90002368A062032B24D1A06A0021FCF7E2F96B
:104CA000002873D0A06A44494FF00105FCF7DAF9F7
:104CB00000B90546EDB2A5B1A56A4049A06AFCF766
:104CC00015F800210646A06AFCF7CCF9A16A002875
:104CD00063D03046FCF7BEF801462846FBF7FCFEE1
:104CE000A062374B586C216AFCF79EF9002857D018
:104CF0006168A668E568A06AFBF7F8FFA063A06A90
:104D0000E16BFBF7EBFEE063E06B2E49FCF78CF9FF
:104D1000002849D1E06B2C49FCF7A4F9002845D1C3
:104D2000E36BE363206B616BFBF7D6FE2064D4F882
:104D300038803146E06BFBF7D9FF4146FBF7CEFEEA
:104D4000276C294606463846FBF7D0FF0146304619
:104D5000FBF7C2FE6064A06CFBF774FF19490546BF
:104D6000606CFCF761F918BB606C1749FCF77AF9C5
:104D700000BB616C2846FBF7B9FF6064236B63637B
:104D8000A36AE362E36C2365BDE8F081A06A0F4982
:104D90004FF00105FCF748F98AE701F1004198E777
:104DA00021696669A569A6E7064BBAE7064BB8E72D
:104DB0000449DFE70449DDE7000034430000B44361
:104DC00054000020000016C400001644000034C344
:104DD00001204FF0FF331849184AF0B588649364F6
:104DE000174B184D98644865506558651648174F1D
:104DF00008621748174C10621748184E1862184876
:104E000048620020506258624D608F60CC60154C43
:104E10000C61154C4C618E611449516014499760C6
:104E2000D660156154619161124A5A609860D860E9
:104E3000186158619861F0BDAC00002004010020A9
:104E40005C010020333373400080BB440AD7233C0D
:104E50000040B5440000AA430000FA440000B443F7
:104E600000006040000090400AD7A33CCDCC4C40ED
:104E70000000A0430000404070B5FDF7ADFF274D96
:104E8000274C2863FDF7B2FF2063FDF7B9FF254EDD
:104E900000213063286BFCF7E5F8B8B1286B224994
:104EA000FCF7E0F848B9206B0021FCF7DBF890B183
:104EB000206B1D49FCF7D6F890B1FFF70DF9BDE85E
:104EC0007040002201211046FEF798BF286B174959
:104ED000FCF7AAF8E6E7206B1449FCF7A5F8EBE726
:104EE000012210461146FEF789FF0C48FFF7BAFE73
:104EF0000B48FFF7B7FE0B48FFF7B4FE0C4B1B78CF
:104F000043B10C4B586C696C626C736CBDE87040BB
:104F1000FFF71AB9BDE87040FFF7DEB8AC0000201B
:104F2000040100205C0100200000B4420000B4C273
:104F3000900200205400002008B50248FEF731FF1F
:104F400008BD00BFF80200200349052308700122B4
:104F50000248FDF705BC00BFC62500200C25002037
:104F600007B505480DF10701FEF703FF9DF807009F
:104F700003B05DF804FB00BFF80200200268084B94
:104F800010B59A420BD1074C07482178FEF7DEFE98
:104F90002146BDE8104001220448FDF73CBC10BD8D
:104FA00000380140C4250020F80200200C25002014
:104FB0000148FEF7FBBE00BFF802002008B5FFF76E
:104FC000F7FFBDE80840012201490248FDF723BC74
:104FD000C42500200C25002038B50446054620468F
:104FE000FBF7B6F82B1B984200D838BD15F8010B1B
:104FF000FFF7AAFFF3E7000010B5054C024605498C
:10500000204600F0A1F92046BDE81040FFF7E4BFBC
:10501000C6250020A77600081D4B07B59A69032016
:1050200042F001029A619B6903F001030193019B25
:10503000FCF788F800226FF00B001146FCF794F89B
:1050400000226FF00A001146FCF78EF800226FF084
:1050500009001146FCF788F800226FF004001146A1
:10506000FCF782F800226FF003001146FCF77CF891
:1050700000226FF001001146FCF776F800224FF095
:10508000FF301146FCF770F803B05DF804FB00BF79
:10509000001002407FB502680C4B9A4213D1C02326
:1050A000029312230393032302A909480593FCF7F3
:1050B000C3F8084BDA6942F40012DA61DB6903F4E1
:1050C00000130193019B07B05DF804FB00540040FE
:1050D000000C01400010024003681D4A84B0934256
:1050E0000BD11C4B9A6942F400629A619B6903F4EC
:1050F00000630093009B04B07047B3F1804F0BD165
:1051000003F50433DA6942F00102DA61DB6903F086
:1051100001030193019BEEE70F4A93420AD10D4B25
:10512000DA6942F00202DA61DB6903F002030293FA
:10513000029BE0E7094A9342DDD1064BDA6942F06F
:105140000402DA61DB6903F004030393039BD2E7F3
:10515000002C014000100240000400400008004004
:105160001FB50368134A93420CD14FF400630093B8
:1051700002236946104801930393FCF75DF805B0DC
:105180005DF804FBB3F1804F02D102230093F0E7F6
:105190000A4A934207D103230093022369460193ED
:1051A00003930748E9E7074A9342E8D14FF4407375
:1051B000F2E700BF002C014000080140000400405D
:1051C000000C01400008004010B50268164B86B084
:1051D0009A4227D103F558439A6902A942F48042C2
:1051E0009A619B69114803F480430193019B4FF43A
:1051F0000073029302230393032300240593FCF717
:105200001BF84FF4806302A90848029303940494A6
:10521000FCF712F8252022462146FBF7A5FF2520A2
:10522000FBF7D6FF06B010BD003801400008014072
:105230007047FEE7FEE7FEE7FEE7704770477047FE
:1052400008B5FBF763FFBDE80840FBF7F0BF0000BF
:105250000148FDF714BB00BF0C2500200F4B1A6856
:1052600042F001021A6059680D4A0A405A601A68F1
:1052700022F0847222F480321A601A6822F48022AA
:105280001A605A6822F4FE025A604FF41F029A60B4
:105290004FF00062034B9A60704700BF001002405D
:1052A0000000FFF800ED00E0FBF738BFFBF736BF6A
:1052B000FBF73ABF002103E00B4B5B58435004312E
:1052C0000A480B4B42189A42F6D30A4A02E00023DE
:1052D00042F8043B084B9A42F9D3FFF7BFFF00F0B6
:1052E0000FF8FEF7C6FE7047907700080000002018
:1052F000200200202002002030260020FEE70000CF
:1053000070B500250C4E0D4CA41BA410A54209D16C
:1053100002F088F900250A4E0A4CA41BA410A542ED
:1053200005D170BD56F8253098470135EEE756F89F
:10533000253098470135F2E788770008887700081C
:10534000887700088C7700080EB44FF4027100B51E
:105350009CB0ADF814106FF00041049107914FF626
:10536000FF711DAB02900690084853F8042BADF86E
:105370001610006802A9019300F066F80022029B53
:105380001A701CB05DF804EB03B07047B801002040
:105390002DE9F0478E6882469E420C46914698461B
:1053A00035D88A8912F4906F31D0022325680969B3
:1053B0006F1A656905EB450595FBF3F508F10103E7
:1053C0003B449D4238BF1D46530531D5294600F068
:1053D00047FB064650B90C23CAF80030A3894FF0AA
:1053E000FF3043F04003A381BDE8F0873A462169CE
:1053F00000F0C4FAA38923F4906343F08003A381EF
:1054000026613E44266046466561ED1BA560464523
:1054100028BF464649463246206800F0BAFAA368DB
:1054200000209B1BA36023681E442660BDE8F08714
:105430002A4600F073FB06460028E1D12169504658
:1054400000F0C2FAC7E700002DE9F04F9DB00393CA
:105450008B8980461C060D4616460FD50B696BB925
:10546000402100F0FDFA2860286128B90C23C8F813
:1054700000304FF0FF30C4E040236B6100230993FC
:1054800020238DF8293030234FF0010B8DF82A307E
:1054900037463C4614F8013B002B3CD1B7EB060ADB
:1054A0000BD05346324629464046FFF771FF013084
:1054B00000F0A280099B534409933B78002B00F035
:1054C0009B8000234FF0FF320493079305920693CD
:1054D0008DF853301A9305222178504800F040FA95
:1054E000671C049BD8B9D90644BF20228DF85320ED
:1054F0001A0744BF2B228DF8532022782A2A16D06F
:1055000000210A20079A27463B780134303B092BBB
:1055100050D9C9B111E0252BC0D02746B9E73F4A81
:105520003C46801A0BFA00F018430490D3E7039A24
:10553000111D12680391002A01DB079204E0524218
:1055400043F00203079204933B782E2B0DD17B7816
:10555000791C2A2B32D1039B02371A1D1B68039238
:10556000002BB8BF4FF0FF3305932D4C0322397841
:10557000204600F0F5F938B14023001B03FA00F093
:10558000049B0137034304933978062225487E1C87
:105590008DF8281000F0E4F9002835D0224BFBB933
:1055A000039B073323F0070308330393099B4B4402
:1055B00009936DE700FB02320121A4E700230A24CE
:1055C000184605930F463A780131303A092A03D933
:1055D000002BCAD00590C8E704FB00200123F1E7A7
:1055E00003AB00932A46114B04A94046AFF3008059
:1055F000B0F1FF3F8146D9D1AB895B063FF539AFAA
:1056000009981DB0BDE8F08F03AB00932A46074B05
:1056100004A9404600F084F8EAE700BFC27600081B
:10562000C8760008CC7600080000000091530008FE
:105630002DE9F04791461F468A680B69064693425A
:10564000B8BF1346C9F8003091F843200C46DDF886
:10565000208012B10133C9F800302368990642BF97
:10566000D9F800300233C9F80030256815F0060576
:1056700007D104F1190AE368D9F800209B1A9D426A
:105680002ADB94F843302268003318BF01239206C6
:105690002FD404F1430239463046C047013022D0AE
:1056A0002368E56803F00603042B18BF0025D9F82A
:1056B00000204FF0000908BFAD1AA368226908BF97
:1056C00025EAE5759342C4BF9B1AED181A344D457F
:1056D0001BD10020BDE8F0870123524639463046F1
:1056E000C047013003D14FF0FF30BDE8F0870135EE
:1056F000C1E73020E11881F843005A1C94F84510A6
:105700002244023382F84310C3E70123224639467C
:105710003046C0470130E6D009F10109D7E7000063
:105720002DE9F04317460A7E85B06E2A9846064654
:105730000C460C9B01F1430E00F0BC801AD8632A82
:105740002ED00AD8002A00F0C880582A00F08A809B
:1057500004F1420584F842202AE0642A01D0692A33
:10576000F6D121681A6811F0800F23D0111D19603D
:10577000136827E0732A00F0B48008D86F2A2AD073
:10578000702AE5D10A6842F020020A6003E0752A17
:1057900021D0782ADCD178226F4984F8452064E052
:1057A0001A6801F14205111D1960136884F842302E
:1057B0000123A3E011F0400F02F104011960D7D0DA
:1057C000B2F90030002B03DA2D225B4284F843202B
:1057D00062490A2217E02068196810F0800F03D090
:1057E000081D18600B6806E010F0400F01F104007E
:1057F0001860F7D00B886F2A14BF0A220822574975
:10580000002084F843006568002DA560C0F29C80EC
:10581000206820F004002060002B3FD1002D40F0D4
:1058200095807546082A0BD12368DA0708D52369C5
:1058300062689A42DEBF302305F8013C05F1FF356E
:10584000AEEB05032361CDF800803B4603AA214659
:105850003046FFF7EDFE013055D14FF0FF3005B077
:10586000BDE8F08381F845203C492268186812F0B1
:10587000800F00F104051D6001D0036802E05506A9
:10588000FBD50388D00744BF42F0200222601BB939
:10589000226822F0200222601022B1E77546B3FB95
:1058A000F2F002FB1033CB5C05F8013D0346002803
:1058B000F5D1B7E708681A6810F0800F496904D07D
:1058C000101D18601368196007E010F0400F02F116
:1058D000040018601368F6D0198000237546236110
:1058E000B1E71A68111D1960156800216268284621
:1058F00000F036F808B1401B606063682361002344
:1059000084F843309FE723692A4639463046C0472A
:105910000130A2D023689B0707D5002504F119099F
:10592000E368039A9B1A9D4205DBE068039B98425B
:10593000B8BF184693E701234A4639463046C04768
:1059400001308AD00135EBE7002BA7D10B7804F1A9
:10595000420584F8423065E7E4760008D376000813
:1059600010B5C9B202449042034601D1002010BDD7
:105970001C7801308C42F6D1184610BD10B5431E7C
:105980000A44914200D110BD11F8014B03F8014FB8
:10599000F7E7884210B501EB020303D8421E994293
:1059A0000CD110BD9842F9D28118D21AD34200D13D
:1059B00010BD13F8014D01F8014DF7E711F8014B47
:1059C00002F8014FEBE7000038B50546002943D047
:1059D00051F8043C0C1F002BB8BFE41800F0D4F8B9
:1059E0001E4A1368104633B9636014602846BDE848
:1059F000384000F0CAB8A3420BD92168621893421C
:105A000001BF1A685B685218226063600460EDE7AA
:105A100013465A680AB1A242FAD919685818A04226
:105A20000BD120680144581882421960DED11068F9
:105A30005268014419605A60D8E702D90C232B60E0
:105A4000D4E7206821188A4201BF116852680918FA
:105A5000216062605C60C9E738BD00BF940200202D
:105A600070B5CD1C25F0030508350C2D38BF0C256D
:105A7000002D064601DBA94203D90C233360002028
:105A800070BD00F081F8234A1468214691B9224C78
:105A900023681BB9304600F067F82060294630467D
:105AA00000F062F8431C26D10C233046336000F02E
:105AB0006CF8E4E70B685B1B1AD40B2B0FD90B6057
:105AC000CC18CD50304600F060F804F10B00231DD7
:105AD00020F00700C31A1BD05A42E25070BD8C421E
