:020000040800F2
:1000000000500020BD520008395200083B52000841
:100010003D5200083F520008415200080000000015
:100020000000000000000000000000004352000833
:1000300045520008000000004752000849520008DD
:100040000553000805530008055300080553000830
:100050000553000805530008055300080553000820
:100060000553000805530008055300080553000810
:100070000553000805530008055300080553000800
:1000800005530008055300080553000805530008F0
:1000900005530008055300080553000805530008E0
:1000A00005530008055300080553000805530008D0
:1000B00005530008055300080553000805530008C0
:1000C00005530008055300080553000805530008B0
:1000D000055300085952000805530008055300084D
:1000E00005530008055300080553000800000000F0
:1000F0000000000000000000000000000000000000
:0C01000000000000000000005FF808F1A3
:1001100010B5054C237833B9044B13B10448AFF341
:1001200000800123237010BD280200200000000081
:100130002C76000808B5034B1BB103490348AFF305
:10014000008008BD000000002C0200202C76000872
:10015000034613F8012B002AFBD1181A0138704707
:1001600081F0004102E000BF83F0004330B54FEA68
:1001700041044FEA430594EA050F08BF90EA020FD5
:100180001FBF54EA000C55EA020C7FEA645C7FEA68
:10019000655C00F0E2804FEA5454D4EB5555B8BF8B
:1001A0006D420CDD2C4480EA020281EA030382EAFC
:1001B000000083EA010180EA020281EA0303362D8E
:1001C00088BF30BD11F0004F4FEA01314FF4801C61
:1001D0004CEA113102D0404261EB410113F0004F73
:1001E0004FEA03334CEA133302D0524263EB43032A
:1001F00094EA050F00F0A780A4F10104D5F1200EC8
:100200000DDB02FA0EFC22FA05F2801841F1000122
:1002100003FA0EF2801843FA05F359410EE0A5F1F6
:1002200020050EF1200E012A03FA0EFC28BF4CF027
:10023000020C43FA05F3C01851EBE37101F00045DD
:1002400007D54FF0000EDCF1000C7EEB00006EEBEA
:100250000101B1F5801F1BD3B1F5001F0CD3490874
:100260005FEA30004FEA3C0C04F101044FEA4452CB
:1002700012F5800F80F09A80BCF1004F08BF5FEA52
:10028000500C50F1000041EB045141EA050130BD32
:100290005FEA4C0C404141EB010111F4801FA4F1D5
:1002A0000104E9D191F0000F04BF01460020B1FA2A
:1002B00081F308BF2033A3F10B03B3F120020CDA62
:1002C0000C3208DD02F1140CC2F10C0201FA0CF040
:1002D00021FA02F10CE002F11402D8BFC2F1200CA5
:1002E00001FA02F120FA0CFCDCBF41EA0C0190405B
:1002F000E41AA2BF01EB0451294330BD6FEA0404A4
:100300001F3C1CDA0C340EDC04F11404C4F120028E
:1003100020FA04F001FA02F340EA030021FA04F3A0
:1003200045EA030130BDC4F10C04C4F1200220FAF7
:1003300002F001FA04F340EA0300294630BD21FA35
:1003400004F0294630BD94F0000F83F4801306BFFB
:1003500081F480110134013D4EE77FEA645C18BFEF
:100360007FEA655C29D094EA050F08BF90EA020F86
:1003700005D054EA000C04BF1946104630BD91EA7E
:10038000030F1EBF0021002030BD5FEA545C05D181
:100390004000494128BF41F0004130BD14F58004C0
:1003A0003CBF01F5801130BD01F0004545F0FE4134
:1003B00041F470014FF0000030BD7FEA645C1ABF69
:1003C000194610467FEA655C1CBF0B46024650EAA0
:1003D000013406BF52EA033591EA030F41F40021CC
:1003E00030BD00BF90F0000F04BF0021704730B552
:1003F0004FF4806404F132044FF000054FF0000127
:1004000050E700BF90F0000F04BF0021704730B5E7
:100410004FF4806404F1320410F0004548BF4042BC
:100420004FF000013EE700BF42004FEAE2014FEA11
:1004300031014FEA02701FBF12F07F4393F07F4FEC
:1004400081F06051704792F0000F14BF93F07F4F1E
:10045000704730B54FF4607401F0004521F0004161
:1004600020E700BF50EA010208BF704730B54FF0E7
:1004700000050AE050EA010208BF704730B511F0EC
:10048000004502D5404261EB41014FF4806404F124
:1004900032045FEA915C3FF4DCAE4FF003025FEAA6
:1004A000DC0C18BF03325FEADC0C18BF033202EB2E
:1004B000DC02C2F1200300FA03FC20FA02F001FA88
:1004C00003FE40EA0E0021FA02F11444C1E600BF27
:1004D00070B54FF0FF0C4CF4E06C1CEA11541DBFDA
:1004E0001CEA135594EA0C0F95EA0C0F00F0DEF8A5
:1004F0002C4481EA030621EA4C5123EA4C5350EA8A
:10050000013518BF52EA033541F4801143F48013DA
:1005100038D0A0FB02CE4FF00005E1FB02E506F06B
:100520000042E0FB03E54FF00006E1FB03569CF0C0
:10053000000F18BF4EF0010EA4F1FF04B6F5007FC6
:1005400064F5407404D25FEA4E0E6D4146EB060638
:1005500042EAC62141EA55514FEAC52040EA5E50C1
:100560004FEACE2EB4F1FD0C88BFBCF5E06F1ED86B
:10057000BEF1004F08BF5FEA500E50F1000041EBA2
:10058000045170BD06F0004646EA010140EA02004F
:1005900081EA0301B4EB5C04C2BFD4EB0C0541EA71
:1005A000045170BD41F480114FF0000E013C00F386
:1005B000AB8014F1360FDEBF002001F0004170BDAA
:1005C000C4F10004203C35DA0C341BDC04F11404C3
:1005D000C4F1200500FA05F320FA04F001FA05F24F
:1005E00040EA020001F0004221F0004110EBD3701C
:1005F00021FA04F642EB06015EEA430E08BF20EA48
:10060000D37070BDC4F10C04C4F1200500FA04F3EA
:1006100020FA05F001FA04F240EA020001F000417C
:1006200010EBD37041F100015EEA430E08BF20EAEF
:10063000D37070BDC4F1200500FA05F24EEA020E37
:1006400020FA04F301FA05F243EA020321FA04F066
:1006500001F0004121FA04F220EA020000EBD3701D
:100660005EEA430E08BF20EAD37070BD94F0000F1D
:100670000FD101F00046400041EB010111F4801F51
:1006800008BF013CF7D041EA060195F0000F18BF02
:10069000704703F00046520043EB030313F4801F3E
:1006A00008BF013DF7D043EA0603704794EA0C0FF8
:1006B0000CEA135518BF95EA0C0F0CD050EA41060E
:1006C00018BF52EA4306D1D181EA030101F000418B
:1006D0004FF0000070BD50EA410606BF10461946B3
:1006E00052EA430619D094EA0C0F02D150EA0136BF
:1006F00013D195EA0C0F05D152EA03361CBF104600
:1007000019460AD181EA030101F0004141F0FE419E
:1007100041F470014FF0000070BD41F0FE4141F422
:10072000780170BD70B54FF0FF0C4CF4E06C1CEA22
:1007300011541DBF1CEA135594EA0C0F95EA0C0FD7
:1007400000F0A7F8A4EB050481EA030E52EA033592
:100750004FEA013100F088804FEA03334FF08055B3
:1007600045EA131343EA12634FEA022245EA1115E0
:1007700045EA10654FEA00260EF000419D4208BF91
:10078000964244F1FD0404F5407402D25B084FEA3E
:100790003202B61A65EB03055B084FEA32024FF4EA
:1007A00080104FF4002CB6EB020E75EB030E22BF47
:1007B000B61A754640EA0C005B084FEA3202B6EB07
:1007C000020E75EB030E22BFB61A754640EA5C00B6
:1007D0005B084FEA3202B6EB020E75EB030E22BF46
:1007E000B61A754640EA9C005B084FEA3202B6EB47
:1007F000020E75EB030E22BFB61A754640EADC0006
:1008000055EA060E18D04FEA051545EA16754FEA67
:1008100006164FEAC30343EA52734FEAC2025FEA85
:100820001C1CC0D111F4801F0BD141EA00014FF014
:1008300000004FF0004CB6E711F4801F04BF0143E5
:100840000020B4F1FD0C88BFBCF5E06F3FF6AFAE01
:10085000B5EB030C04BFB6EB020C5FEA500C50F191
:10086000000041EB045170BD0EF0004E4EEA113114
:1008700014EB5C04C2BFD4EB0C0541EA045170BD1B
:1008800041F480114FF0000E013C90E645EA060E5F
:100890008DE60CEA135594EA0C0F08BF95EA0C0F8D
:1008A0003FF43BAF94EA0C0F0AD150EA01347FF4D5
:1008B00034AF95EA0C0F7FF425AF104619462CE7AC
:1008C00095EA0C0F06D152EA03353FF4FDAE10460F
:1008D000194622E750EA410618BF52EA43067FF460
:1008E000C5AE50EA41047FF40DAF52EA43057FF4F0
:1008F000EBAE12E74FF0FF3C06E000BF4FF0010CFB
:1009000002E000BF4FF0010C4DF804CD4FEA410C5E
:100910007FEA6C5C4FEA430C18BF7FEA6C5C1BD02B
:1009200001B050EA410C0CBF52EA430C91EA030FAC
:1009300002BF90EA020F0020704710F1000F91EA09
:10094000030F58BF994208BF90422CBFD8176FEAD7
:10095000E37040F0010070474FEA410C7FEA6C5CA5
:1009600002D150EA013C07D14FEA430C7FEA6C5CAC
:10097000D6D152EA033CD3D05DF8040B704700BFD8
:100980008446104662468C461946634600E000BF26
:1009900001B5FFF7B7FF002848BF10F1000F01BDF8
:1009A0004DF808EDFFF7F4FF0CBF012000205DF8C3
:1009B00008FB00BF4DF808EDFFF7EAFF34BF012048
:1009C00000205DF808FB00BF4DF808EDFFF7E0FFE1
:1009D00094BF012000205DF808FB00BF4DF808ED32
:1009E000FFF7CEFF94BF012000205DF808FB00BF99
:1009F0004DF808EDFFF7C4FF34BF012000205DF87B
:100A000008FB00BF4FEA410C7FEA6C5C02D150EA60
:100A1000013C0AD14FEA430C7FEA6C5C02D152EAF6
:100A2000033C02D14FF0000070474FF001007047C7
:100A30004FEA4102B2F1E04324BFB3F5001CDCF100
:100A4000FE5C0DD901F0004C4FEAC0024CEA507038
:100A5000B2F1004F40EB830008BF20F00100704767
:100A600011F0804F21D113F13872BCBF01F000406A
:100A7000704741F480114FEA5252C2F11802C2F19C
:100A8000200C10FA0CF320FA02F018BF40F001001D
:100A90004FEAC1234FEAD32303FA0CFC40EA0C00CF
:100AA00023FA02F34FEA4303CCE77FEA625307D10C
:100AB00050EA01331EBF4FF0FE4040F44000704743
:100AC00001F0004040F0FE4040F40000704700BFDD
:100AD00080F0004002E000BF81F0004142001FBFF3
:100AE0005FEA410392EA030F7FEA226C7FEA236CFC
:100AF0006AD04FEA1262D2EB1363C1BFD2184140F1
:100B000048404140B8BF5B42192B88BF704710F086
:100B1000004F40F4000020F07F4018BF404211F029
:100B2000004F41F4000121F07F4118BF494292EA91
:100B3000030F3FD0A2F1010241FA03FC10EB0C00BD
:100B4000C3F1200301FA03F100F0004302D549424A
:100B500060EB4000B0F5000F13D3B0F1807F06D3F7
:100B600040084FEA310102F10102FE2A51D2B1F1EF
:100B7000004F40EBC25008BF20F0010040EA0300E4
:100B80007047490040EB000010F4000FA2F1010291
:100B9000EDD1B0FA80FCACF1080CB2EB0C0200FA1B
:100BA0000CF0AABF00EBC25052421843BCBFD04069
:100BB0001843704792F0000F81F4000106BF80F4E3
:100BC00000000132013BB5E74FEA41037FEA226CA6
:100BD00018BF7FEA236C21D092EA030F04D092F071
:100BE000000F08BF0846704790EA010F1CBF0020A5
:100BF000704712F07F4F04D1400028BF40F0004002
:100C0000704712F100723CBF00F50000704700F021
:100C1000004343F0FE4040F4000070477FEA226248
:100C200016BF08467FEA23630146420206BF5FEA19
:100C3000412390EA010F40F4800070474FF0000319
:100C400004E000BF10F0004348BF40425FEA000CE0
:100C500008BF704743F0964301464FF000001CE088
:100C600050EA010208BF70474FF000030AE000BFDE
:100C700050EA010208BF704711F0004302D540421C
:100C800061EB41015FEA010C02BF8446014600208E
:100C900043F0B64308BFA3F18053A3F50003BCFAA9
:100CA0008CF2083AA3EBC25310DB01FA02FC634456
:100CB00000FA02FCC2F12002BCF1004F20FA02F25D
:100CC00043EB020008BF20F00100704702F1200250
:100CD00001FA02FCC2F1200250EA4C0021FA02F2B1
:100CE00043EB020008BF20EADC7070474FF0FF0CB6
:100CF0001CEAD0521EBF1CEAD15392EA0C0F93EAB1
:100D00000C0F6FD01A4480EA010C400218BF5FEA52
:100D100041211ED04FF0006343EA501043EA5111C5
:100D2000A0FB01310CF00040B1F5000F3EBF4900BF
:100D300041EAD3715B0040EA010062F17F02FD2AC3
:100D40001DD8B3F1004F40EBC25008BF20F00100A6
:100D5000704790F0000F0CF0004C08BF49024CEABD
:100D6000502040EA51207F3AC2BFD2F1FF0340EA4F
:100D7000C250704740F400004FF00003013A5DDCC0
:100D800012F1190FDCBF00F000407047C2F1000201
:100D9000410021FA02F1C2F1200200FA02FC5FEAEE
:100DA000310040F1000053EA4C0308BF20EADC7038
:100DB000704792F0000F00F0004C02BF400010F4AA
:100DC000000F013AF9D040EA0C0093F0000F01F057
:100DD000004C02BF490011F4000F013BF9D041EA79
:100DE0000C018FE70CEAD15392EA0C0F18BF93EA7B
:100DF0000C0F0AD030F0004C18BF31F0004CD8D1A5
:100E000080EA010000F00040704790F0000F17BF2B
:100E100090F0004F084691F0000F91F0004F14D071
:100E200092EA0C0F01D142020FD193EA0C0F03D1C9
:100E30004B0218BF084608D180EA010000F00040CC
:100E400040F0FE4040F40000704740F0FE4040F4A7
:100E5000400070474FF0FF0C1CEAD0521EBF1CEA46
:100E6000D15392EA0C0F93EA0C0F69D0A2EB030264
:100E700080EA010C49024FEA402037D04FF08053FE
:100E800043EA111143EA10130CF000408B4238BFC3
:100E90005B0042F17D024FF4000C8B4224BF5B1AD1
:100EA00040EA0C00B3EB510F24BFA3EB510340EA1F
:100EB0005C00B3EB910F24BFA3EB910340EA9C00CD
:100EC000B3EBD10F24BFA3EBD10340EADC001B013D
:100ED00018BF5FEA1C1CE0D1FD2A3FF650AF8B42E1
:100EE00040EBC25008BF20F0010070470CF0004CEE
:100EF0004CEA50207F32C2BFD2F1FF0340EAC25019
:100F0000704740F400004FF00003013A37E792F0D9
:100F1000000F00F0004C02BF400010F4000F013A37
:100F2000F9D040EA0C0093F0000F01F0004C02BF32
:100F3000490011F4000F013BF9D041EA0C0195E79B
:100F40000CEAD15392EA0C0F08D142027FF47DAF34
:100F500093EA0C0F7FF470AF084676E793EA0C0F24
:100F600004D14B023FF44CAF08466EE730F0004C22
:100F700018BF31F0004CCAD130F000427FF45CAFB2
:100F800031F000437FF43CAF5FE700BF4FF0FF3C20
:100F900006E000BF4FF0010C02E000BF4FF0010C73
:100FA0004DF804CD4FEA40024FEA41037FEA226C3C
:100FB00018BF7FEA236C11D001B052EA530C18BF5E
:100FC00090EA010F58BFB2EB030088BFC81738BFC3
:100FD0006FEAE17018BF40F0010070477FEA226CB1
:100FE00002D15FEA402C05D17FEA236CE4D15FEAAD
:100FF000412CE1D05DF8040B704700BF84460846E1
:101000006146FFE70FB5FFF7C9FF002848BF10F1A1
:10101000000F0FBD4DF808EDFFF7F4FF0CBF0120E6
:1010200000205DF808FB00BF4DF808EDFFF7EAFF70
:1010300034BF012000205DF808FB00BF4DF808ED2B
:10104000FFF7E0FF94BF012000205DF808FB00BF20
:101050004DF808EDFFF7D2FF94BF012000205DF8A6
:1010600008FB00BF4DF808EDFFF7C8FF34BF0120B3
:1010700000205DF808FB00BF4FEA4002B2F1FE4FCE
:101080000FD34FF09E03B3EB12620DD94FEA00234A
:1010900043F0004310F0004F23FA02F018BF404223
:1010A00070474FF00000704712F1610F01D142020A
:1010B00005D110F0004008BF6FF0004070474FF0BE
:1010C0000000704710B5044601F066F84FF47A73DB
:1010D000B0FBF3F000F088F8002221464FF0FF301B
:1010E00000F042F8002010BD074A08B5136803203D
:1010F00043F01003136000F025F80020FFF7E2FF33
:1011000003F08EFF002008BD00200240024A136851
:1011100001331360704700BF44020020014B186880
:10112000704700BF4402002013B50190FFF7F6FF9F
:101130000446FFF7F3FF019B001B9842F9D302B06E
:1011400010BD0000074A0002D36800F4E06023F4F9
:10115000E0631B041B0C43F0BF6343F40033034301
:10116000D360704700ED00E0174B30B5DC68C4F386
:101170000224C4F10703251D042B28BF0423062DD8
:101180004FF0010598BF002405FA03F303F1FF3384
:1011900088BF033C1940A14005FA04F4013C2240F9
:1011A000002842EA01024FEA0212AFBF00F160409C
:1011B000064B00F00F00D2B2A5BFD2B200F56140DD
:1011C0001A5480F8002330BD00ED00E014ED00E07B
:1011D0000123420900F01F0003FA00F0014B43F81D
:1011E0002200704700E100E00138B0F1807F0AD2B0
:1011F000F021064B064A586082F82310002007228F
:1012000098601A6070470120704700BF10E000E04E
:1012100000ED00E0044B04281A680CBF42F0040201
:1012200022F004021A60704710E000E0704708B531
:10123000FFF7FCFF08BD00002DE9F74F002216461E
:10124000654BDFF8A4E1DFF8A4C14FF001080C689A
:1012500008FA06F808EA0404A0457FD14D68122D6B
:1012600000F0AF8000F28880022D00F0A7807CD8CB
:10127000002D00F08E80012D00F09E804FF00F09B0
:10128000FF2C93BF824606F18045083DD0F800B0A0
:1012900092BFB500D0F804B0AD0009FA05F82BEA0A
:1012A000080802FA05F588BF00F1040A48EA0505B6
:1012B000CAF80050D1F804A01AF0805F4ED0474D14
:1012C000464FAD6926F0030845F00105BD61BD69D3
:1012D00008F1804805F00105019508F5803806F011
:1012E000030B019D4FEA8B0BD8F8085009FA0BF954
:1012F00025EA09093A4DA84268D005F58065A8425B
:1013000066D005F58065A84264D005F58065A842E1
:101310000CBF0325042505FA0BF545EA0905C8F8B5
:1013200008501D681AF4803F14BF2543A5431D6073
:101330005D681AF4003F14BF2543A5435D609D68B6
:101340001AF4801F14BF2543A5439D60DD681AF47D
:10135000001F14BF2C4325EA0404DC600136102E64
:101360007FF473AF03B0BDE8F08F032D22D0112DB1
:1013700084D1CA68043281E71A4FBD4209D012D81D
:10138000DFF86C904D4504D009F580394D457FF468
:1013900075AF8A68C2B1012A0CBFC0F81080C0F8CE
:1013A000148008226AE77545F3D06545F1D0DFF86F
:1013B0004490EBE7002261E7CA685FE7CA68083239
:1013C0005CE7CA680C3259E7042257E70025A2E718
:1013D0000125A0E702259EE700040140001002401D
:1013E0000008014000002110000031100000321000
:1013F00000001110000022100AB1016170470904B9
:10140000FBE7C3685940C16070470268536913F431
:1014100080630DD0536923F4806353610423836395
:10142000202380F83530002380F8343001207047C5
:10143000184670472DE9F0410C46064615461F46F2
:10144000FFF76CFE8046200CA4B215B3C5B22CE0A9
:101450007A1C0FD047B9202386F8353000230320AB
:1014600086F83430BDE8F081FFF758FEA0EB0800A5
:101470008742F0D33368012D0CBF5B699B6934EA66
:10148000030314BF01230023002BE1D10020BDE89A
:10149000F081C5B2EEE77B1C07D0002FDBD0FFF751
:1014A0003DFEA0EB08008742D5D33368012D0CBF69
:1014B0005B699B6934EA03030CBF01230023002B03
:1014C000E9D1E3E72DE9F0410D4604461646FFF762
:1014D00025FE0746C5F30748ADB22368B8F1010FF2
:1014E0000CBF5A699A6935EA020214BF0120002034
:1014F00008B9BDE8F0815A69520512D51A68012071
:1015000042F400721A605A6922F480625A6104231C
:10151000A363202384F83530002384F83430BDE8F9
:10152000F081731CD9D046B9202384F835300023CC
:10153000032084F83430BDE8F081FFF7EFFDC01BD5
:101540008642CAD2F0E770B504460D46FFF7E6FDC5
:10155000064623685B691B0601D5002070BD204646
:10156000FFF753FFA0B96A1CF3D05DB9A36B03204A
:1015700043F02003A363202384F83530002384F84C
:10158000343070BDFFF7CAFD801B8542E1D2EDE724
:10159000012070BDF7B5154602681F4613680E4658
:1015A00043F4807313604FF00111089B002204463E
:1015B000FFF740FF60B9236806F0FE061E61089A37
:1015C00017492046FFF77EFF28B1A36B042B15D0E7
:1015D000032003B0F0BD236808995A6920460192A0
:1015E0009B690193019BFFF7AEFF48B1A36B042BEE
:1015F000EED12268136843F4007313600120E8E71A
:10160000012F236802D1EDB21D61E2E72A0A1A61B7
:1016100008992046FFF797FF0028E7D12368F2E7F3
:1016200002000100F7B51F46036815461A680E460A
:1016300042F480621A601A684FF0011142F480721D
:101640001A60089B00220446FFF7F4FE78B923686D
:10165000F6B206F0FE021A612849089A2046FFF702
:1016600031FF38B1A36B042B01D1012000E003202E
:1016700003B0F0BD236808995A69204601929B691E
:101680000193019BFFF75FFF40B1A36B042BEED1E9
:101690002268136843F400731360E6E7012F2368A0
:1016A00021D1EDB21D6108992046FFF74CFF02469B
:1016B0000028EAD1216820460B6843F480730B6050
:1016C000089B4FF00111FFF7B5FE0028CFD123682A
:1016D00046F001061E61089A08492046FFF7F2FE0F
:1016E0000028BFD1C4E72A0A1A6108992046FFF7EB
:1016F0002AFF0028C9D12368D3E700BF02000100F8
:1017000070B504460D46FFF709FD06462268536989
:1017100013F0400301D0002070BD5169C9060BD5FC
:101720005169012021F0100151612022A36384F846
:10173000343084F8352070BD5DB9A36B032043F0CD
:101740002003A363202384F83530002384F8343049
:1017500070BDFFF7E3FC801B8542D7D2EDE70000A8
:1017600070B5044600285FD090F8353003F0FF02D2
:101770001BB980F8342003F091FC2423226884F8FC
:1017800035301368294E23F00103136000F00AFD81
:101790006368274DB342B0FBF5F588BF4FF49671EF
:1017A000226888BF6943556085BF4FF47A75B1FBE5
:1017B000F5F1691C0131B342116220D85B00B0FB26
:1017C000F3F0C0F30B03032B98BF0420216AE369F5
:1017D000D0610B431360E168236900200B439360E1
:1017E000A16963690B43D360136843F0010313607D
:1017F0002023A06384F8353084F8360070BDA168DA
:1018000059B903EB4303B0FBF3F040F40040C0F3DD
:101810000B03002B08BF0120D8E719214B43B0FB75
:10182000F3F040F44040F2E7012070BDA0860100D3
:1018300040420F002DE9F74F9B4690F835300446A3
:10184000202B894692460C9FBDF8346003D00220BD
:1018500003B0BDE8F08F57B34EB342F210730122CC
:101860002F49FFF7E7FD80460028F0D194F8343087
:10187000012BECD00125226884F8345013684946C6
:1018800023F400631360212384F83530402384F867
:1018900036300E9BA063009352465B462046FFF70E
:1018A00079FE88B1A36B84F83480042B15D1012014
:1018B000CEE722683B7813615169731E49079BB2DA
:1018C0000DD41E4601375EB10E992046FFF73BFE50
:1018D0000028EED0A36B042B1BD00320B8E793B9EC
:1018E0000E992046FFF72FFE0028F3D122681368D7
:1018F00043F400731360202384F8340084F83530F7
:1019000084F83600A4E77B78023E1361B6B2023752
:10191000D9E72268136843F400731360C7E700BF78
:10192000020010002DE9F04F9B4690F8353089B049
:10193000202B044603919246129EBDF84C50149FF2
:1019400005D04FF0020A504609B0BDE8F08F5EB3F3
:1019500055B342F2107301226249FFF76BFD8046D6
:101960000028EED194F83430012BEAD04FF0010971
:10197000226884F834901368039923F40063136099
:10198000222384F835304023524684F836300097BD
:10199000A0635B462046FFF745FE824638B1A36B45
:1019A00084F83480042B1ED14FF0010ACBE7236862
:1019B000012D1A681AD122F480621A6072B6236867
:1019C0005A6905929A690592059A1A6842F400725A
:1019D0001A6062B639462046FFF792FE00284DD0C5
:1019E000A36B202BE0D14FF0030AACE7022D23D1EB
:1019F00042F400621A6072B623685A6906929A69C4
:101A00000692069A1A6822F480621A6062B63B4611
:101A1000002235492046FFF70DFD0028E3D172B6BC
:101A200023681A6842F400721A601B69337062B648
:101A300023681B69737024E042F480621A605A695B
:101A400007929B690793079B032D23D939462046AC
:101A5000FFF756FE0028C3D123681B693370226844
:101A600053695B074DBF1269731C05F1FF35B31C49
:101A700044BF023D7270ADB21E46E5E723681B69A4
:101A80003370202384F83530002384F8363084F80E
:101A9000343058E7022DBAD000223B461249204686
:101AA000FFF7C8FC024600289DD121680B6823F48B
:101AB00080630B6072B623680B491B692046337044
:101AC0003B46FFF7B7FC00288DD123681A6842F423
:101AD00000721A601B69737062B623681B69B37069
:101AE000CFE700BF020010000400010003682DE9E9
:101AF000F743DE07054634D42B689C0700F1A78026
:101B00002B681A0723D5AA69BE4C0123BE49002AB7
:101B100000F0158193FAA3F2B2FA82F241F8223072
:101B2000FFF7FCFA0226074696FAA6F396FAA6F302
:101B3000626A96FAA6F3B3FA83F303F01F0322FA5C
:101B400003F3DB0740F1F4800120FFF7EDFA2B6887
:101B5000590700F11481EA69002A40F093810020BE
:101B600020E0A84C636803F00C03042B07D06368E3
:101B700003F00C03082B18D16368D80315D54FF474
:101B8000003393FAA3F2226893FAA3F3B3FA83F330
:101B900003F01F0322FA03F3D907ADD56B68002BBE
:101BA000AAD1012003B0BDE8F0836B68B3F5803F94
:101BB0001CD1236843F480332360FFF7AFFA4FF45E
:101BC0000036074696FAA6F3226896FAA6F3B3FA09
:101BD00083F303F01F0322FA03F3DA078CD4FFF731
:101BE0009DFAC01B6428EDD90320DBE703BB236803
:101BF0004FF4003623F480332360236823F48023DA
:101C00002360FFF78BFA074696FAA6F3226896FA46
:101C1000A6F3B3FA83F303F01F0322FA03F3DB07FF
:101C20007FF56AAFFFF77AFAC01B6428ECD9DBE7CF
:101C3000B3F5A02F236803D143F480232360B8E7D2
:101C400023F480332360236823F48023B4E76D4CAE
:101C5000636813F00C0F07D0636803F00C03082BC4
:101C600020D16368DF031DD4022393FAA3F2226814
:101C700093FAA3F3B3FA83F303F01F0322FA03F3F7
:101C8000DE0702D52B69012B8BD12168F82393FA4B
:101C9000A3F3B3FA83F26B69934021F0F802134384
:101CA00023602DE72A69012302B393FAA3F2B2FA63
:101CB00082F2920002F1844202F584021360FFF77F
:101CC0002DFA0226074696FAA6F3226896FAA6F39C
:101CD000B3FA83F303F01F0322FA03F3D807D4D433
:101CE000FFF71CFAC01B0228EDD97DE793FAA3F396
:101CF000B3FA83F39B0003F1844303F584031A6072
:101D0000FFF70CFA0226074696FAA6F3226896FA1F
:101D1000A6F3B3FA83F303F01F0322FA03F3D90700
:101D20007FF5EEAEFFF7FAF9C01B0228ECD95BE7AE
:101D3000FFF7F4F9C01B02287FF6F6AE54E793FADA
:101D4000A3F3B3FA83F341F82320FFF7E7F9022660
:101D5000074696FAA6F396FAA6F3626A96FAA6F3EF
:101D6000B3FA83F303F01F0322FA03F3D8077FF5D6
:101D7000EEAEFFF7D3F9C01B0228EAD934E7214CB5
:101D8000224EE36943F08053E361E36903F080533B
:101D90000193019B336843F480733360FFF7BEF90E
:101DA00007463368DA0526D5EB68012B30D1236A64
:101DB00043F001032362FFF7B1F902268146B046E2
:101DC00041F2883796FAA6F396FAA6F3002B55D07F
:101DD000226A98FAA8F3B3FA83F303F01F0322FAF6
:101DE00003F3DB073FF5B7AEFFF798F9A0EB090067
:101DF000B842E7D9F8E6FFF791F9C01B6428D0D9BB
:101E0000F2E600BF00100240800442420070004031
:101E100033BB236A022623F001032362236A374679
:101E200023F004032362FFF779F941F288398046F1
:101E300096FAA6F396FAA6F313B3226A97FAA7F3D3
:101E4000B3FA83F303F01F0322FA03F3D8077FF5F5
:101E500082AEFFF763F9A0EB08004845E8D9C3E676
:101E6000052B236A03D143F0040323629FE723F089
:101E700001032362236A23F004039BE7626AA8E755
:101E8000626ADBE7444C636803F00C03082B3FF401
:101E900088AE022A4FF0807359D193FAA3F3B3FAB4
:101EA00083F300229B0003F1844303F584031A604B
:101EB000FFF734F94FF00076074696FAA6F322684A
:101EC00096FAA6F3B3FA83F303F01F0322FA03F39F
:101ED000D90736D42B6AB3F5803F05D16268A9686B
:101EE00022F400320A4362606268696A22F4741262
:101EF0000B43134363604FF0807393FAA3F3B3FA79
:101F000083F301229B0003F1844303F584031A60E9
:101F1000FFF704F94FF00075064695FAA5F322681D
:101F200095FAA5F3B3FA83F303F01F0322FA03F340
:101F3000DA073FF514AEFFF7F1F8801B0228ECD961
:101F400052E6FFF7EBF8C01B0228B6D94CE693FA2D
:101F5000A3F3B3FA83F300229B0003F1844303F558
:101F600084031A60FFF7DAF84FF00075064695FA19
:101F7000A5F3226895FAA5F3B3FA83F303F01F03E0
:101F800022FA03F3DB077FF5EAADFFF7C7F8801B02
:101F90000228ECD928E600BF0010024030B5204BE3
:101FA00087B002AC03F1100522461868596808335F
:101FB00003C2AB421446F7D101238DF8043002234B
:101FC000184C8DF80530616801F00C03082B24D102
:101FD0004FF4701393FAA3F3B3FA83F201F470137E
:101FE000D34006AA134413F8100CCB0313D563682F
:101FF0004FF4003292FAA2F2B2FA82F203F4003302
:10200000D34006AA134413F8142C074BB3FBF2F386
:10201000584307B030BD054BFAE70348F9E700BF66
:10202000487600080010024000127A0000093D00C6
:10203000554A2DE9F0411368064603F007038B4229
:102040000D4630D3326894073AD4D00740D44E4A74
:10205000136803F007039D42C0F0848032684B4C44
:1020600012F0040F40F08980130706D563683269C7
:1020700023F4605343EAC2036360FFF78FFF636892
:10208000F02292FAA2F2B2FA82F203F0F003D34005
:102090003F4AD35CD8403F4B18600020FFF712F84E
:1020A0000020BDE8F081136823F007030B431360A1
:1020B000136803F007039942C4D00120BDE8F08102
:1020C0003249B0684B6823F0F00303434B60BCE730
:1020D00072682E4C012A28D14FF4003393FAA3F1F1
:1020E000216893FAA3F3B3FA83F303F01F0321FAF1
:1020F00003F3D907E1D5636841F2883823F003037D
:102100001A436260FFF70AF873680746012B12D181
:10211000636803F00C03042B99D0FEF7FFFFC01B8C
:102120004045F5D90320BDE8F081022A0CBF4FF0ED
:1021300000730223D2E7022B0FD1636803F00C0374
:10214000082B84D0FEF7EAFFC01B4045F5D9E9E72C
:10215000FEF7E4FFC01B4045E4D8636813F00C0FA2
:10216000F6D174E7136823F007032B431360136859
:1021700003F007039D42A0D170E76368F16823F480
:10218000E0630B4363606FE70020024000100240F1
:10219000CC760008BC010020014B1868704700BFD6
:1021A000BC010020084B4FF4E0625B6892FAA2F297
:1021B000B2FA82F203F4E063D340044AD35C044AE7
:1021C0001068D840704700BF00100240DC7600085D
:1021D000BC010020084B4FF460525B6892FAA2F2F7
:1021E000B2FA82F203F46053D340044AD35C044A47
:1021F0001068D840704700BF00100240DC7600082D
:10220000BC010020036A70B523F001030362036A76
:10221000446882690D6822F073022A438D6823F0B6
:1022200002032B430A4DA8420BD1CD6823F00803CB
:102230002B438E694D6924F44074354323F0040325
:102240002C43446082614A684263036270BD00BFF0
:10225000002C0140036A70B523F480730362036AA3
:102260004468C2690D6822F073022A438D6823F422
:10227000007343EA05230B4DA8420DD1CD6823F42A
:10228000006343EA05238E694D6924F440543543C5
:1022900023F4806344EA05144460C2614A68C2635F
:1022A000036270BD002C0140036A30B523F48053F3
:1022B0000362036A4468C2690D6822F4E64242EA96
:1022C00005228D6823F4005343EA0533064DA842E6
:1022D00002BF4D6924F4804444EA85144460C2611D
:1022E0004A680264036230BD002C0140184A03684A
:1022F00090420AD0B0F1804F07D0A2F594329042BC
:1023000003D002F58062904215D14A6823F0700331
:1023100013430F4A90420AD0B0F1804F07D0A2F584
:102320009432904203D002F58062904203D1CA6891
:1023300023F44073134303608B68C3620B688362AA
:10234000034B984204BF0B69036301234361704749
:10235000002C014010B50446A0B190F8393003F0CC
:10236000FF021BB980F8382002F0BAFE0223206871
:1023700084F83930211DFFF7B9FF0123002084F8CC
:10238000393010BD012010BD036A70B523F0100371
:102390000362036A446882690D6822F4E64242EAF5
:1023A00005228D6823F0200343EA05130B4DA84254
:1023B0000DD1CD6823F0800343EA05138E694D6982
:1023C00024F44064354323F0400344EA8504446028
:1023D00082614A688263036270BD00BF002C0140C5
:1023E00038B590F838300446012B4FF0020025D064
:1023F000012384F8390084F838300C2A18D8DFE833
:1024000002F0071717171E1717172F171717400077
:102410002068FFF7F7FE236809699A6942F008020D
:102420009A619A6922F004029A619A690A439A6150
:102430000123002084F8393084F8380038BD206842
:10244000FFF7A2FF236809699A6942F400629A6162
:102450009A6922F480629A619A6942EA0122E6E767
:102460002068FFF7F7FE23680969DA6942F008027D
:10247000DA61DA6922F00402DA61DA690A43DA61C0
:10248000D6E72068FFF710FF23680969DA6942F48C
:102490000062DA61DA6922F48062DA61DA6942EABA
:1024A0000122ECE710B50124036A8C4023EA0403FF
:1024B0000362036A8A401A43026210BD10B50446E3
:1024C00001220068FFF7EEFF2368064A00209342CE
:1024D00002BF5A6C42F400425A641A6842F0010288
:1024E0001A6010BD002C014090F8383010B5012B57
:1024F0004FF0020316D080F8393091E818002343DA
:102500008C6802682343CC6823430C6923434C69DD
:10251000896923430B435364012380F83930002336
:1025200080F83830184610BD90F8383010B5012BBF
:102530004FF0020318D080F8393003680C685A68ED
:10254000496822F070025A605A6822435A609A68B9
:1025500022F080029A609A680A439A60012380F808
:102560003930002380F83830184610BD2DE9F04787
:102570000568C2682B69016923F4405313432B613A
:102580008368EA680B43416922F4B05222F00C02DE
:102590000B431343EB606B69826923F4407313436D
:1025A0006B61404B81469D424FF0190446D1FFF7C5
:1025B00011FE04FB00F3D9F804604FF06408B60084
:1025C000B3FBF6F3B3FBF8F31E01FFF703FE604322
:1025D000D9F804309B00B0FBF3F7FFF7FBFD604335
:1025E000D9F804309B00B0FBF3F3B3FBF8F308FB1E
:1025F00013731B013233B3FBF8F303F0F007FFF75B
:10260000E9FD6043D9F804209200B0FBF2FAFFF72D
:10261000E1FD6043D9F804309B00B0FBF3F3B3FB5A
:10262000F8F308FB13A31B013233B3FBF8F303F0F9
:102630000F033B433344AB60BDE8F087FFF7B2FDC7
:1026400004FB00F3D9F804604FF06408B600B3FB54
:10265000F6F3B3FBF8F31E01FFF7A4FD6043D9F8CE
:1026600004309B00B0FBF3F7FFF79CFD6043D9F803
:1026700004309B00B0FBF3F3B3FBF8F308FB1373D8
:102680001B013233B3FBF8F303F0F007FFF78AFDC9
:102690006043D9F804209200B0FBF2FAFFF782FD04
:1026A000B7E700BF00380140F8B504460E461546AE
:1026B000FEF734FD07462268136836EA030301D1AA
:1026C0000020F8BD6B1CF7D0C5B923680320DA6879
:1026D00022F08002DA60DA6822F02002DA60DA683A
:1026E00022F48072DA605A6922F001025A610123F1
:1026F00084F83930002384F83830F8BDFEF70EFD39
:10270000C01B8542D7D2E0E710B5044630B390F83D
:10271000393003F0FF021BB980F8382002F058FD71
:102720000223226884F83930D368204623F400530A
:10273000D360FFF71BFF236800201A6922F4904240
:102740001A615A6922F02A025A61DA6842F4005288
:10275000DA600123E06384F8393010BD012010BD38
:1027600070B50D4690F839100446C9B201291E46CD
:1027700001D022294DD1002D49D0002A47D094F80C
:102780003830012B45D0012384F838300023E3632F
:1027900094F83930A284222B0CBF32231223E28416
:1027A00084F83930E28C8AB9324640212046FFF75E
:1027B0007BFFC0B994F83930322B0CBF22230123A0
:1027C00084F83930002384F8383070BDA368013AAA
:1027D000B3F5805FE2844FF08001324620460DD190
:1027E000FFF762FF08B1032070BD2B882268C3F396
:1027F00008035360236943B90235D3E7FFF754FF59
:102800000028F0D123682A785A600135CAE70120F0
:1028100070BD022070BD90F83930DBB2012B01D0C1
:10282000122B28D129B322B390F83830012B22D0B3
:10283000012380F838300023C3638285C28590F875
:10284000392080F83830122A0CBF32222222036845
:1028500080F83920DA68816242F48072DA605A695D
:10286000002042F001025A61DA6842F02002DA6088
:102870007047012070470220704770477047026818
:1028800013B511680446C907D36805D5DB0542BFF7
:10289000C36B43F00103C36311685369880703F0F6
:1028A000010304D51BB1E16B41F00401E163116840
:1028B000490704D51BB1E16B41F00201E1631168E6
:1028C000080704D51BB1E36B43F00803E363116809
:1028D000D368890633D5980631D594F8393003F09A
:1028E000EF03222B2BD1A3682169B3F5805FA36A84
:1028F00076D1526800296FD1C2F3080223F8022B67
:10290000A362E38D013B9BB2E385C3B923682046F4
:10291000DA6822F02002DA6094F83920322A17BFF0
:10292000DA68122322F48072DA601FBF5A6922F03B
:1029300001025A61012384F8393002F023FB236835
:102940001968DA68090622D5100620D594F83920CE
:1029500002F0DF02122A1AD1A268B2F5805F226A61
:102960004CD11188C1F3080159602169002943D174
:1029700002322262E28C013A92B2E2843AB9DA6817
:1029800022F08002DA60DA6842F04002DA60196808
:10299000DA68490610D552060ED5DA68204622F0CC
:1029A0004002DA6094F83930322B0CBF2223012325
:1029B00084F83930FFF761FFE36B5BB12368204691
:1029C0001A6801925B680193019B012384F83930F6
:1029D000FFF754FF02B010BDD2B223F8012B8FE7EE
:1029E00021B9591C5268A1621A708AE75268591CB1
:1029F000A16202F07F02F7E70132BAE7511C2162BF
:102A000012785A60B6E7000010B53D231E4A7521C2
:102A1000D02001F0EBFA712803D03E211A4801F0D2
:102A20001BFF012380226B21D02001F0BFFA01237C
:102A30006B211A46D02001F0B9FA012300226C2143
:102A4000D02001F0B3FA012300221921D02001F097
:102A5000ADFA012303221D21D02001F0A7FA0123A2
:102A600003221A21D02001F0A1FA012310221B21F8
:102A7000D02001F09BFABDE81040012308221C2160
:102A8000D02001F093BA00BF587600087FB500232C
:102A90000293ADF80C305A230193234B02AA009302
:102AA0003B210623D02001F0D7FA9DF80A209DF89B
:102AB0000B509DF808309DF8090045EA02259DF865
:102AC0000D409DF80C2040EA032044EA0224174BF5
:102AD0002DB224B200B218805D809C80FEF7B2F85F
:102AE0004FF08141FEF702F94FF06051FEF7FEF81A
:102AF0000F4E30602846FEF7A5F84FF08141FEF7F3
:102B0000F5F84FF06051FEF7F1F870602046FEF7DF
:102B100099F84FF08141FEF7E9F84FF06051FEF768
:102B2000E5F8B06004B070BD58760008F0020020EF
:102B3000CC0200200023F0B585B00293ADF80C3034
:102B40007C230193264B02AA009343210623D02025
:102B500001F082FA9DF80A209DF80B509DF808308C
:102B60009DF8090045EA02259DF80D409DF80C20CE
:102B700040EA032044EA02241A4B2DB224B200B2E8
:102B800018805D809C80FEF75DF8174F1749FEF7AF
:102B9000ADF84FF06051FEF7A9F83968FDF79CFFDA
:102BA000134E30602846FEF74DF81049FEF79EF8A8
:102BB0004FF06051FEF79AF87968FDF78DFF70606D
:102BC0002046FEF73FF80949FEF790F84FF06051B4
:102BD000FEF78CF8B968FDF77FFFB06005B0F0BD77
:102BE00058760008BA0200200000002000007A4455
:102BF000C00200201FB5012322223721D02001F07E
:102C0000D5F901236A211A46D02001F0CFF9AD236E
:102C10002F4A0021182001F0E9F948282C4C03D054
:102C2000AE21204601F018FE01230B211A46182080
:102C300001F0BCF9012300220A21182001F0B6F9A5
:102C400001230F220A21182001F0B0F9B62303AAAC
:102C50000193009403231021182001F0FDF99DF841
:102C60000C001C4C8038FDF7EDFF4FF06E51FEF765
:102C70003DF84FF07E51FDF731FF20609DF80D00CB
:102C80008038FDF7DFFF4FF06E51FEF72FF84FF061
:102C90007E51FDF723FF60609DF80E008038FDF740
:102CA000D1FF4FF06E51FEF721F84FF07E51FDF746
:102CB00015FF0123A06000220A21182001F076F9F7
:102CC000012316220A21182001F070F904B010BD6A
:102CD00058760008E40200202DE9FF4700233C4C11
:102CE00002932246CDF80B300221D723182001F0A1
:102CF0007DF9C20763D5DA230094019302AA072362
:102D00000321182001F0A8F99DF80E301B0759D4B3
:102D10009DF80B209DF80A509DF8093045EA0225E0
:102D20009DF808009DF80D209DF80C4040EA032016
:102D300044EA0224274B00B22DB224B218805D80F1
:102D40009C80254BDFF8A090D3F800A0DFF89C8092
:102D5000FDF778FF5146FDF7C9FF204FD9F8001065
:102D6000FDF7C4FFD8F80010FDF7B6FE3968FDF78F
:102D7000BDFF1B4E30602846FDF764FF5146FDF74E
:102D8000B5FFD9F80410FDF7B1FFD8F80410FDF72E
:102D9000A3FE7968FDF7AAFF70602046FDF752FF99
:102DA0005146FDF7A3FFD9F80810FDF79FFFD8F8AB
:102DB0000810FDF791FEB968FDF798FFB06004B008
:102DC000BDE8F087074A538801335380F7E700BF17
:102DD00058760008B40200201C0000202C000020BF
:102DE000D802002035140020E4020020200000203A
:102DF00008B5FFF709FEFFF7FDFE044800F032FAC0
:102E0000BDE80840002000F033BA00BF9A99193F8E
:102E1000024B0348596801F033B800BF4802002054
:102E20000C000020024B0348196801F029B800BFCC
:102E300048020020140000200B4B10B59C680B4981
:102E40002046FEF705F948B109492046FEF7ECF89F
:102E500020B107492046FDF741FE10BD0549204637
:102E6000FDF73AFE10BD00BF48020020000034C349
:102E70000000B4420000874330B587B0FFF706FE7C
:102E8000FFF758FEFFF728FF02F014FA304C314DDF
:102E900023682860C01AFDF7D1FE2F49FDF7DAFF3D
:102EA00000F0E6F92B682D4A23602D4C116850681C
:102EB00005942C4C2C4BA56801F1004104956568E4
:102EC00000F100400395246802949C6804F10044DA
:102ED00001941C6800945B68926800F0D1F9642149
:102EE000224A234BB2F90000224C90FBF1F01880EB
:102EF000B2F90200B2F9042090FBF1F092FBF1F27A
:102F00009A801D4A58801188D980518892881981E9
:102F10005A811A4A1188998151889288D9811A82D6
:102F2000FFF780FF1649FDF7E1FEFEF7A5F82080C8
:102F3000FFF76EFF1249FDF7D9FEFEF79DF860809E
:102F4000FFF77AFFFEF798F8A08007B030BD00BF0A
:102F5000540200205802002000007A44CC020020D5
:102F600048020020D8020020C0020020F002002009
:102F7000A614002011140020BA020020B402002080
:102F8000000020411FB55B2301930A4B03AA009365
:102F900000210323EE2001F047F89DF80D009DF875
:102FA0000E3043EA00239DF80C0043EA004005B0D0
:102FB0005DF804FB69760008014B1868704700BF94
:102FC000F8020020000000002DE9F047744E33782D
:102FD000002B00F0AD80734B1A789A46002A00F05F
:102FE000A780714A7149538909689089A1EB032E22
:102FF00080FB0E01C30D108943EA412380FB0E01C3
:10300000B2F80680C40988FB0E8944EA4164CD11F8
:103010009188528809044FEA1820641840EA096030
:103020004FEAC23203F5FA6745F100054FEA29215C
:10303000801841F10001B7F5FA6FA7BF00239E4643
:103040005B4303EB8303BCBF4FEA630E9B10C01AC4
:1030500061EBE371564BB4EB0E041B6865EBEE7548
:10306000A0FB038903FB01994FEA585242EAC922A7
:10307000121B4FEA695363EB0503D00B40EA434050
:10308000FDF7E0FD4B49FDF7E5FE4B4B04461860AC
:103090003846FDF7D7FD4749FDF7DCFE474B484969
:1030A00018602046FDF7D6FEFDF7BEF938A3D3E938
:1030B000002302F0CFFD02460B4600204149FDF7F8
:1030C00053F835A3D3E90023FDF702FAFDF7B0FC6E
:1030D0003D4C3E4B054618602746002304F14C0842
:1030E00054F8041F184644F8041CFDF7F7FCA045EB
:1030F0000346F5D12946FD64FDF7F0FC3449FDF7A0
:10310000A9FE344B1860FDF7B7FF64235843324BD8
:10311000324A186000231178EE20012250313370BA
:103120008AF8003000F042FF02F0C2F82C4B186021
:1031300002F0BEF82A4B2B4C1B68C01A0A2814D97F
:10314000337893B9174B1D787DB9FFF71BFF012228
:10315000164B32701860214BEE2019782B46403107
:1031600000F024FF02F0A4F8206002F0A1F8236828
:10317000C01A0A280AD9337843B10A4C23782BB9EC
:10318000FFF700FF0A4B186001232370BDE8F087AA
:1031900000000060955BC83F0000000040A5E540CE
:1031A00075020020740200205C02002070020020E2
:1031B0006C0200200000C84250030020540300208D
:1031C00000507D440000F03FFC0200204C03002032
:1031D0000000A041F8020020271500203800002040
:1031E0007C020020780200200123F0B500241A465A
:1031F00085B01E21EE2000F0D9FE0A2002F05CF816
:1032000008222546134B144F144E1A70542304F110
:10321000A001019303AA0223009789B2EE208DF842
:103220000C508DF80D5000F017FF9DF80C209DF804
:103230000D3043EA0223A3530234102CE6D10023BD
:103240000021074A42F823100133142BFAD105B0AC
:10325000F0BD00BF38000020697600085C02002045
:10326000FC020020014B1860704700BF580300208B
:10327000014B1860704700BF5C0300200000000095
:103280002DE9F04F9846A84B99B01B680E91029318
:10329000A54B01465B6810920193A34B0D909D686E
:1032A000DC68FDF723FD0E9906460846FDF71EFD76
:1032B00001463046FDF712FC109906460846FDF718
:1032C00015FD01463046FDF709FCFDF7ADF802F0AB
:1032D00025FEFDF7ADFB00210746FDF79BFE00280C
:1032E00040F0828524990846FDF700FD25990646A1
:1032F0000846FDF7FBFC01463046FDF7EFFB26993B
:1033000006460846FDF7F2FC01463046FDF7E6FBAF
:10331000FDF78AF802F002FEFDF78AFB002106465F
:10332000FDF778FE002840F05F854046FDF77CF809
:103330007BA3D3E90023FDF7CBF8FDF779FB0890D9
:103340002298FDF771F876A3D3E90023FDF7C0F8C2
:10335000FDF76EFB09902398FDF766F870A3D3E99B
:103360000023FDF7B5F8FDF763FB02990A900846C4
:10337000FDF7B4FB019903900846FDF7AFFB294622
:1033800005902846FDF7AAFB214606902046FDF74A
:10339000A5FB029914900846FDF7A8FC0199804608
:1033A0000298FDF7A3FC29460F900298FDF79EFCBA
:1033B000019912900846FDF799FC21460790019863
:1033C000FDF794FC29460B902846FDF78FFC21461B
:1033D00004902046FDF78AFC39460C904FF07E5051
:1033E000FDF738FD314611904FF07E50FDF732FD6C
:1033F000064601462498FDF779FC31468246259819
:10340000FDF774FC314607462698FDF76FFC5146E0
:1034100081460398FDF76AFC394613900398FDF73F
:1034200065FC494683460398FDF760FC5146064615
:103430000598FDF75BFC514615904046FDF756FC9C
:10344000594616902046FDF751FC169B014618463A
:10345000FDF742FB314616902846FDF747FC169BC8
:1034600001461846FDF73AFB514616900798FDF7BE
:103470003DFC169B01461846FDF730FB3946169079
:103480000598FDF733FC2946FDF730FC169B0146F5
:103490001846FDF723FB494616900598FDF726FCD4
:1034A0002146FDF723FC169B01461846FDF716FB47
:1034B000514616900498FDF719FC169B01461846D4
:1034C000FDF70AFB514616900C98FDF70FFC169B72
:1034D00001461846FDF700FB139917902046FDF7AB
:1034E00005FC394616904046FDF700FC169B014648
:1034F0001846FDF7F3FA314616900198FDF7F6FBF2
:10350000169B01461846FDF7E7FA15990646284628
:10351000FDF7ECFB0146304608E000BFAFF300804A
:10352000399D52A246DF913F3C000020FDF7D6FABC
:10353000394606460798FDF7D9FB01463046FDF7A8
:10354000CBFA394606460498FDF7D0FB01463046D3
:10355000FDF7C4FA494606460698FDF7C7FB214623
:10356000FDF7C4FB01463046FDF7B8FA394606467A
:103570000C98FDF7BBFB01463046FDF7ADFA179AF4
:10358000169011461046FDF7B1FB169B06461946EC
:103590001846FDF7ABFB01463046FDF79FFAFCF7F6
:1035A00043FF02F0BBFCFDF743FA139B0646294696
:1035B00003F10040FDF79AFB594613900198FDF77F
:1035C00095FB139B01461846FDF788FA494683464A
:1035D0004046FDF78BFB01465846FDF77FFA1599EB
:1035E00080462046FDF782FB01464046FDF776FA0D
:1035F000494680460798FDF779FB01464046FDF7AE
:103600006BFA394680460698FDF770FB2146FDF7B8
:103610006DFB01464046FDF761FA49468046049835
:10362000FDF764FB01464046FDF756FA49468046E1
:103630000C98FDF75BFB01464046FDF74FFA01464B
:103640008046FDF74BFA0B9915900846FDF746FAB0
:10365000039983462846FDF749FB01465846FDF786
:103660003BFA119983460D98FDF740FB01465846F9
:10367000FDF732FA06990D902046FDF737FB0F99BA
:1036800083460846FDF72AFA01465846FDF726FA12
:10369000119983460E98FDF729FB01465846FDF720
:1036A0001BFA41460E902846FDF720FB0499169020
:1036B0004FF07C50FDF710FA0C99FDF70DFA3146EA
:1036C000FDF714FB129983460B98FDF705FA414666
:1036D000FDF70CFB01465846FDF700FA5146FDF791
:1036E000FBF906F1004341460C9001981393FDF756
:1036F000FDFA294617900198FDF7F8FA214682460F
:103700000298FDF7F3FA01465046FDF7E5F9314618
:10371000FDF7ECFA214682462846FDF7E7FA0F99B5
:10372000FDF7DCF94146FDF7E1FA01465046FDF7A9
:10373000D5F93946FDF7D0F931460F902846FDF707
:10374000D5FA079907464FF07C50FDF7C5F9049963
:10375000FDF7C2F94146FDF7C9FA0B998246129866
:10376000FDF7BCF93146FDF7C1FA01465046FDF7B9
:10377000B5F94946FDF7B0F9069B0D990B9003F199
:103780000040FDF7B3FA0E9981460598FDF7AEFAB1
:1037900001464846FDF7A2F90C9981461698FDF7B7
:1037A000A5FA01464846FDF797F913998146204648
:1037B000FDF79CFA1799FDF791F90F99FDF796FA25
:1037C00001464846FDF78AF90B9981463846FDF7D0
:1037D0008DFA01464846FDF781F90799129008468F
:1037E000FDF77CF901464FF07E50FDF775F904991D
:1037F00081460846FDF772F901464846FDF76CF927
:10380000119981461098FDF771FA01464846FDF777
:1038100063F9414683462046FDF768FA41468146F2
:103820000298FDF763FA0D9982461498FDF75EFA47
:103830000E9980460398FDF759FA01464046FDF778
:103840004DF94FF0814180460198FDF74FFA5946F6
:10385000FDF74CFA01464046FDF73EF949468046E1
:103860000C98FDF743FA01464046FDF737F95146FB
:1038700080463846FDF732F90F99FDF737FA0146D1
:103880004046FDF72BF9314607462046FDF72EFA54
:10389000159980460198FDF729FA01464046FDF743
:1038A0001BF90B99FDF722FA01463846FDF716F988
:1038B000314604903046FDF711F9314600F10048D9
:1038C0000198FDF713FA039B07460D9903F1004099
:1038D000FDF70CFA0E9903901498FDF707FA039B75
:1038E00001461846FDF7FAF84FF08141039028464B
:1038F000FDF7FCF95946FDF7F9F9039B0146184617
:10390000FDF7EAF8414683462846FDF7EFF95146B0
:10391000FDF7E2F80C99FDF7E9F901465846FDF785
:10392000DDF8394682464846FDF7D8F80F99FDF78D
:10393000DDF901465046FDF7D1F83146814602983F
:10394000FDF7D4F9159906462846FDF7CFF901464B
:103950003046FDF7C1F80B99FDF7C8F90146484616
:10396000FDF7BCF80D9983460598FDF7BFF90E9950
:1039700006460698FDF7BAF901463046FDF7AEF85F
:10398000414606462046FDF7B1F91799FDF7A6F81E
:103990000C99FDF7ABF901463046FDF79FF81399F6
:1039A00006460298FDF7A2F91699FDF797F80F99C8
:1039B000FDF79CF901463046FDF790F8394606467A
:1039C0000B98FDF793F901463046FDF787F81299F9
:1039D00082460846FDF78AF9049906460846FDF72F
:1039E00085F901463046FDF779F8594606465846AE
:1039F000FDF77CF901463046FDF770F85146064662
:103A00005046FDF773F901463046FDF767F8FCF7BD
:103A10000BFD02F083FAFDF70BF801464FF07E50E4
:103A2000FDF718FAAA4906460B680A6806930B6860
:103A3000079203930B6808990593019BA54F03F127
:103A40000040FDF753F9099981462846FDF74EF9E4
:103A500001464846FDF740F80A9981462046FDF7A1
:103A600045F901464846FDF737F84FF07C51FDF720
:103A70003DF9314681461298FDF738F9069BD7F893
:103A800000801946FDF732F901464846FDF724F853
:103A90004146FDF72BF90299FDF720F80899814678
:103AA0000298FDF723F90A9906902846FDF71EF9BA
:103AB000069B01461846D7F80080FDF70FF80999D4
:103AC00006902046FDF712F9069B01461846FDF7C1
:103AD00003F84FF07C51FDF709F931460690049840
:103AE000FDF704F9079A1146FDF700F9069B014618
:103AF0001846FCF7F1FF4146FDF7F8F80199FCF78D
:103B0000EDFF3B688046099902980693FDF7EEF8B1
:103B10000A9904900198FDF7E9F8049A01461046C5
:103B2000FCF7DAFF089904902046FDF7DFF8049AC5
:103B300001461046FCF7D2FF4FF07C51FDF7D6F856
:103B4000314604905846FDF7D1F80399FDF7CEF8B9
:103B5000049A01461046FCF7BFFF069B1946FDF785
:103B6000C5F82946FCF7BAFF0A9983460298FDF783
:103B7000BDF8099902900198FDF7B8F8029B01463B
:103B80001846FCF7ABFF089901902846FDF7AEF800
:103B9000019B01461846FCF79FFF4FF07C51FDF753
:103BA000A5F8314605465046FDF7A0F80599FDF702
:103BB0009DF83F6801462846FCF78EFF3946FDF721
:103BC00095F82146FCF78AFF494606464846FDF728
:103BD0008DF8414604464046FDF788F801462046E8
:103BE000FCF77CFF594604465846FDF77FF801462E
:103BF0002046FCF773FF314604463046FDF776F861
:103C000001462046FCF76AFFFCF70EFC02F086F93D
:103C1000FCF70EFF01464FF07E50FDF71BF90546FD
:103C200001464846FDF762F82B4C074620602946BE
:103C30004046FDF75BF82946814660605846FDF72F
:103C400055F829468046A0603046FDF74FF80146FA
:103C5000E0604846FDF74AF8414605463846FDF71C
:103C600045F801462846FCF737FF0146FCF736FFCA
:103C7000FCF7DAFB01F098FF01F100470022174B37
:103C80003946FCF725FC10A3D3E90023FCF74AFDD5
:103C9000FCF7CEFE279B1860D4F80090D4F804A05F
:103CA00049464846FDF722F8514606465046FDF77C
:103CB0001DF801463046FCF70FFFA5680646294669
:103CC00028460DE0AFF30080182D4454FB21094035
:103CD000580300205C0300203C0000200080664068
:103CE000FDF704F801463046FCF7F6FED4F80C80E8
:103CF000064641464046FCF7F9FF01463046FCF7D0
:103D0000EDFEFCF791FB06460F4648465146FCF790
:103D1000EDFF414681462846FCF7E8FF014648464C
:103D2000FCF7DCFE0146FCF7D9FEFCF77DFB3246D2
:103D30003B4601F08DFF00222F4BFCF7C9FB2CA363
:103D4000D3E90023FCF7EEFCFCF772FE279B5860DA
:103D50002568D4F8048029462846FCF7C7FF414669
:103D600006464046FCF7C2FF01463046FCF7B6FE69
:103D7000D4F80890064649464846FCF7B7FF014686
:103D80003046FCF7A9FEE468064621462046FCF7CB
:103D9000ADFF01463046FCF79FFEFCF745FB0646AB
:103DA0000F4640464946FCF7A1FF2146804628467B
:103DB000FCF79CFF01464046FCF790FE0146FCF7ED
:103DC0008DFEFCF731FB32463B4601F041FF0022FD
:103DD000094BFCF77DFB06A3D3E90023FCF7A2FC0B
:103DE000FCF726FE279B986019B0BDE8F08F00BF56
:103DF000182D4454FB21094000806640B0F8043877
:103E0000B0F8043801339BB2A0F80438B0F8023897
:103E10009BB2C154B0F802380133C3F30A03A0F8CF
:103E2000023801207047B0F804389BB2A3B1B0F853
:103E30000438013B9BB2A0F80438B0F800389BB2BC
:103E4000C35CDBB20B70B0F800380133C3F30A0374
:103E5000A0F800380120704718467047B0F80408F1
:103E600080B2704700231A46A0F80038A0F8023844
:103E7000A0F80438C2540133B3F5006FFAD170478B
:103E800070B50E464568044629464FF07E50FCF753
:103E900023FE3146FCF72AFF064621682846FCF738
:103EA00025FF3146FCF71AFE206070BD70B515463F
:103EB000B0FA80F20E460C4C520920464FF40041F5
:103EC000FDF79AFAB6FA86F2204652094FF480417D
:103ED000FDF792FAB5FA85F22046BDE87040520926
:103EE0004FF40051FDF788BA0010014010B50324CB
:103EF000002201201146FFF7D9FF642001F0DCF910
:103F0000002201211046FFF7D1FF642001F0D4F90F
:103F1000002101220846FFF7C9FF642001F0CCF917
:103F2000013CE5D1BDE81040012211461046FFF7E3
:103F3000BDBF0000014B1B6818647047441500208A
:103F4000014B1B68D863704744150020014B1B6868
:103F50009863704774160020014B1B68D863704744
:103F6000BC15002010B50421084C0948FEF7A6FA3C
:103F700008210848FEF7A2FA08212046FEF79EFA1B
:103F80002046BDE810400C21FEF798BA44150020E9
:103F900074160020BC15002008B500F0DBFCFFF70C
:103FA000E1FFBDE80840FFF7A1BF000030B51D46A6
:103FB000C82387B006AC04F8042D029301230A46F7
:103FC0000193014600940748FDF734FC18B11B210A
:103FD000054800F041FC15B1322001F06DF907B041
:103FE00030BD00BF801500207976000830B51D4631
:103FF000002387B0144606AA02F8043DC8230293A2
:1040000001238DE80C000A4601460648FDF78AFCAC
:1040100018B12946204600F01FFC9DF8140007B097
:1040200030BD00BF801500207FB5C8268DE84C004C
:104030000A46012301460748089C099DFDF772FCCA
:1040400030B12946204604B0BDE8704000F004BC01
:1040500004B070BD801500202DE9F84380460F465E
:104060001E460024DFF82090551E3919B44289B24B
:1040700001DBBDE8F8834C234A464046FFF7B6FF14
:10408000013405F8010FF0E7797600082DE9F041D9
:10409000634CDFF8B481E078FCF7B4F90022614B9F
:1040A000FCF740FBFCF7C4FCC8F804002079FCF7DF
:1040B000A9F900225C4BFCF735FBFCF7B9FCC8F80A
:1040C00008006079FCF79EF90022584BFCF700FAD3
:1040D000FCF7AEFCC8F80C002078FCF793F900223E
:1040E000504BFCF71FFBFCF7A3FC514F514D786080
:1040F0006078FCF787F900224B4BFCF713FBFCF7C9
:1041000097FCB860A078FCF77DF90022474BFCF7DC
:10411000DFF9FCF78DFCF860A079FCF773F9002259
:10412000404BFCF7FFFAFCF783FC6860E079FCF792
:1041300069F900223C4BFCF7F5FAFCF779FCA86022
:10414000207AFCF75FF90022384BFCF7C1F9FCF745
:104150006FFC394BE860607AEB61FCF753F90022A1
:10416000304BFCF7DFFAFCF763FC344E7060A07A4A
:10417000FCF748F900222C4BFCF7D4FAFCF758FC6A
:10418000B060E07AFCF73EF90022284BFCF7A0F97A
:10419000FCF74EFCF060D8F81C00D8F82410FCF7AF
:1041A0009DFC274CD8F8043020606360D8F80830B4
:1041B000A360D8F80C30F869E360796AFCF78EFCEC
:1041C0007B6820616361BB68A361FB68E361E869A8
:1041D000696AFCF783FC6B6820626362AB68A36268
:1041E000EB68F069E362716AFCF778FC736820633E
:1041F0006363B36804F14002A363F368E363114BA4
:104200001D4654F8041B944243F8041BF9D10024C2
:10421000285D013400F09CFE402CF9D1BDE8F0810E
:10422000F31300200000244000006940000010400B
:104230000401002060010020000034434C000020F5
:104240006C130020AC130020A80000202DE9F041E1
:10425000334C344D2389B3F5C86F8CBF0123002341
:104260002B706389B3F5C86F8CBF012300236B707B
:10427000B4F90200FCF7E6FC2B49FCF72DFC2B49B6
:104280000646FCF7D1FE002842D127493046FCF70C
:10429000E9FE00283ED1DFF8A480B4F90000C8F898
:1042A0001C60FCF7CFFC2049FCF716FC1F490746B1
:1042B000FCF7BAFE80BB1C493846FCF7D3FE68BB4E
:1042C0001B4EF761B4F90400FCF7BCFC1949FCF77C
:1042D00003FC194BD8616B781BB9E088FCF7AEFC86
:1042E0006860A089FCF7AAFC0F49FCF7B3FD0E49F2
:1042F000FCF7F2FBC8F82400E089FCF79FFC0A49B0
:10430000FCF7A8FD0849FCF7E7FB7062BDE8F08107
:10431000064EC0E7044EBEE7044FD1E7024FCFE799
:10432000491400208002002000002041000020C12C
:10433000040100200000344360010020A800002098
:1043400010B500F0B5FF134C2368C01A012804D93A
:1043500000F0AEFF2060FEF78FFD00F0A9FF0E4CCD
:104360002368C01A022804D900F0A2FF206000F0E0
:1043700073FD00F09DFF094C2368C01A642802D920
:1043800000F096FF2060FEF71FFEBDE8104000F031
:10439000E9B900BF88020020900200208C020020B2
:1043A00008B5FFF7F9FD00F00DFEFEF721FDFEF761
:1043B0001BFFBDE8084000F0C3BC08B5FFF7F0FFE5
:1043C000FFF7BEFFFCE70000094A0A4B116801F540
:1043D0007A711980516801F57A7159809168D268B3
:1043E00001F57A7102F57A729980DA80704700BF20
:1043F000940200205914002010B5084C2068FFF7E3
:1044000099FD6068FFF79CFDA068FFF79FFDE068DD
:10441000FFF7A2FDBDE81040FFF7D6BF94020020D1
:1044200008B50020FFF786FD0020FFF789FD00207A
:10443000FFF78CFDBDE808400020FFF78DBD0000B0
:10444000B0F57A7FA8BF4FF47A70B1F57A7FA8BF34
:104450004FF47A71B2F57A7FA8BF4FF47A72B3F550
:104460007A7FA8BF4FF47A7310B4084C20EAE0704A
:1044700021EAE17122EAE27223EAE37320606160DB
:10448000A260E36010BCFFF7B7BF00BF940200203A
:104490002DE9F04715461C4606468846FCF71CFBEE
:1044A000414607463046FCF719FB29460646384682
:1044B000FCF712FB2146FCF711FB1949FCF70CFB3A
:1044C000FCF7DAFD294681463046FCF705FB21461C
:1044D000FCF702FB1249FCF7FFFAFCF7CDFD294679
:1044E00080463846FCF7FAFA2146FCF7F5FA0C4903
:1044F000FCF7F2FAFCF7C0FD074631462846FCF708
:10450000EDFA2146FCF7EAFA0549FCF7E5FAFCF773
:10451000B3FD4B4642463946BDE8F047FFF790BF32
:1045200000007A442DE9F041164605460F460E4834
:10453000F4B200F055FD204600F00AFD28466C401C
:1045400000F006FD3D46EB1B9E4204DC2046BDE824
:10455000F04100F0FDBCA84615F8010B00F0F8FC96
:1045600098F800305C40EEE78676000807B5E9224F
:104570000C4B04211A7003225A700022D9709A70D1
:1045800018681A715A719A719B8800908DF80620EC
:10459000694607226420ADF80430FFF7C3FF03B07B
:1045A0005DF804FB9F1400201FB507220B4B00246D
:1045B0001A712A225C719A71DC711868596801AA13
:1045C00003C21C725C729C721B899470138001A9D7
:1045D0000B226520FFF7A6FF04B010BD35140020A4
:1045E00070B586B001AA1546094B03F110061446B2
:1045F00018685968083303C4B3422246F7D11B88B0
:104600001222238029466620FFF78CFF06B070BD7A
:10461000A614002007B56B46054A106851680822A9
:1046200003C369466820FFF77DFF03B05DF804FB14
:10463000591400207FB56A466D46094B03F11006F8
:10464000144618685968083303C4B3422246F7D1A8
:10465000102229466920FFF765FF04B070BD00BF36
:104660003415002007B5074B062218689B88009078
:1046700069466C20ADF80430FFF754FF03B05DF8D5
:1046800004FB00BF1114002007B5074B0622186871
:104690009B88009069466D20ADF80430FFF742FF1B
:1046A00003B05DF804FB00BF27150020692808B59A
:1046B0002AD00AD8652818D002D8642810D008BD9E
:1046C000662817D068281AD008BD6D2826D002D8D1
:1046D0006C281ED008BDC82825D0CA282FD008BDF8
:1046E000D2B3BDE80840FFF741BFAAB3BDE8084018
:1046F000FFF75ABF82B3BDE80840FFF771BF5AB356
:10470000BDE80840FFF786BF32B3BDE80840FFF7B9
:1047100091BF0AB3BDE80840FFF7A4BFE2B1BDE80E
:104720000840FFF7B1BF0D4B01F1100251F8040B27
:10473000914243F8040BF9D1FFF788FD08BD084BFF
:1047400001F11C0251F8040B914243F8040BF9D11A
:104750000A881A80FFF79AFC08BD00BF49140020A0
:10476000F313002070B5394C394800F039FC20783B
:1047700000F046FC374800F033FC00F0E1FB00F0AD
:104780003FFC00F0DDFB2546B8B123785BB96380C0
:1047900023716371A37100F0E7FBA0F12403584279
:1047A0005841207070BD012B08D100F0DDFB4D2871
:1047B00008BF022318BF0023237070BD022B05D150
:1047C00000F0D2FB3C2808BF0323F3E7032B0AD1F8
:1047D00000F0CAFB80B2608008B90123A3712B7876
:1047E00001332B7070BD042B08D100F0BDFBA37802
:1047F00020715840237860710133DDE7052B14D117
:10480000A6790EB10623D7E700F09AFB6388984299
:10481000D3DB6B889E42E2DA00F0A6FBAB19D871BD
:104820006B79013658406871F3E7062B04D166793D
:1048300000F09AFB864201D00023D2E7A279E11D65
:104840002079FFF733FF0023B6E700BFB81400203C
:104850008A7600089476000880B5012207460D4646
:104860001B484FF48041FCF7C7FD00224FF4004184
:104870001748FCF7C1FD00224FF400511448FCF723
:10488000BBFD134CDFF85080124E20464FF48041A0
:10489000FCF7B7FD20464FF40041FCF7B2FD4FF4A2
:1048A00000512046FCF7ADFD404600F099FB38462C
:1048B00000F096FB304600F093FB284600F0A0FB8A
:1048C0000A2000F045FB4FF4FA7000F0F5FCDCE73D
:1048D00000100140BE760008B2760008012310B532
:1048E00090B00A9310230B93002302240E934FF4ED
:1048F000601306A806940D940F93FDF7F7F818B10E
:104900003C211348FFF7A8FF0F2301934FF4806366
:1049100003900590214601A802940493FDF788FBBB
:10492000044608B14921ECE7FDF736FC4FF47A73F1
:10493000B0FBF3F0FCF758FC0420FCF76BFC2246BC
:1049400021464FF0FF30FCF70FFC10B010BD00BF48
:104950009D7600082DE9F04194B0FCF7C5FBFFF708
:10496000BDFF984B4FF460419A69974842F010029E
:104970009A619A69012402F010020192019A9A69DF
:10498000022542F004029A619A69904F02F00402F3
:104990000292029A9A6942F008029A619B69002287
:1049A00003F008030393039BFCF726FD002220215C
:1049B0008748FCF721FD4FF460430DA982480D9311
:1049C0000E941095FCF738FC202381480DA90D9317
:1049D0000E941095FCF730FC7E487F4B4FF48042DC
:1049E00080E88800002302618360C36043618361C3
:1049F000C3610362FCF7B4FE18B16B217748FFF77F
:104A00002BFF4FF4E1324FF00C08754B754998605D
:104A1000D86018619861D861184683E80600C3F829
:104A20001480FDF771FE10B140F25111E6E74FF42A
:104A30007A766D4C6D4BA06020616061204684E801
:104A40002800E660FDF786FC08B18821D6E70490CF
:104A5000059004A92046FDF767FD08B18F21CDE739
:104A60006027079008900A900B900C90424606A988
:104A700020460697FDF7B4FC08B19A21BEE74FF433
:104A800000530D900E900F901090119013900DA95F
:104A900020461293FDF728FD804608B1A621ADE718
:104AA000204600F061FB4FF08043514C204684E8E3
:104AB0002801E660C4F81080FDF74CFC08B1C32162
:104AC0009CE70690079006A92046FDF72DFD08B14A
:104AD000CA2193E70E900F90119004220DA9204651
:104AE0000D97FDF77DFC074608B1D32186E72046E8
:104AF00000F03AFB3F48404BC66080E8A8000761E1
:104B0000FDF728FC08B1F02178E7002306A9394811
:104B100006930793FDF708FD08B1F7216EE76026BD
:104B20000E900F90119008220DA932480D96FDF7B6
:104B300057FC10B14FF4807160E70C220DA92D488D
:104B4000FDF74EFC054610B140F2051156E7294825
:104B500000F00AFB0223294C294A204684E80C0075
:104B60004FF47A73A560E3602561FDF7F3FB10B1A4
:104B70004FF4917142E70690079006A92046FDF791
:104B8000D3FC10B140F2291138E70E900F9011902C
:104B900008220DA920460D96FDF722FC10B14FF416
:104BA00099712BE70C220DA92046FDF719FC10B1D5
:104BB00040F2371122E7204600F0D6FA14B0BDE8E3
:104BC000F08100BF0010024000100140801A060072
:104BD0000008014080150020005400409D76000828
:104BE000F81500200038014038160020002C014044
:104BF00074160020BC15002000040040441500205D
:104C0000000800402DE9F0410446C069616A256B47
:104C1000FBF764FF2946FBF75FFF2368A062032BC5
:104C200024D1A06A0021FCF71DFA00286CD0A06AEC
:104C30003E494FF00105FCF715FA00B90546EDB203
:104C4000A5B1A56A3A49A06AFCF750F800210646CA
:104C5000A06AFCF707FAA16A00285CD03046FCF78E
:104C6000F9F801462846FBF737FFA0626068D4F8E0
:104C70000880E668A16AFCF739F8A063A06AE16BD6
:104C8000FBF72CFFE063E06B2A49FCF7CDF9002825
:104C900044D1E06B2849FCF7E5F9002840D1E36BEB
:104CA000E363206B616BFBF717FF2064A56B404645
:104CB000E16BFCF71BF82946FBF710FF276C054654
:104CC00039463046FCF712F801462846FBF704FF48
:104CD000A064E06CFBF7B6FF16490546A06CFCF734
:104CE000A3F9F8B9A06C1449FCF7BCF9E0B9A06CC1
:104CF0002946FBF7FBFFA064236B6363A36AE362AF
:104D0000236D6365BDE8F081A06A0C494FF0010591
:104D1000FCF78AF991E701F100419FE7054BBFE7F6
:104D2000054BBDE70348E3E70348E1E700003443F0
:104D30000000B4430000FAC30000FA43000034C38B
:104D400001224FF0FF33F0B51C481D4C1D49E264B1
:104D5000C364CB641C4B1D4DDA640522A2658265D9
:104D60008A659A651A4A1B4E22621B4A1B4F0262D1
:104D70001B4A0A6200221A6265601A4DA560E6604D
:104D80002761194F6561A761184C194F4460856010
:104D9000C7600461174C4561846117484860174833
:104DA0008860CE600A614A618A61154959609A60DB
:104DB000DA601A615A619A61F0BD00BF04010020F7
:104DC000A8000020600100204C000020CDCC8C40C9
:104DD0000080BB4400008C430040B544000090407C
:104DE0000000FA440AD7A33C0000B44333337340B5
:104DF000000082430000A043000040400AD7233C4B
:104E00000000204170B5104C63785BB10F4E104D1F
:104E100033788BB9FEF7D0F80E49FBF767FF012313
:104E2000E8613370627832B9084B197801B11A70B1
:104E30006268074B9A6470BDFEF7BEF80549FBF740
:104E400055FF2863EEE700BF80020020A402002087
:104E50004C0000200000C8422DE9F041FDF7D8FFCA
:104E60002F4D304C2863FDF7DDFF2063FDF7E4FF95
:104E70002D4FA8463863FFF7C5FF286B0021FCF7CC
:104E8000F1F8B8B1286B2949FCF7ECF848B9206B68
:104E90000021FCF7E7F890B1206B2449FCF7E2F819
:104EA00090B1FFF7BDFABDE8F041002201211046A4
:104EB000FEF7FCBF286B1E49FCF7B6F8E6E7206B4F
:104EC0001B49FCF7B1F8EBE7012210461146FEF74B
:104ED000EDFF1348FFF796FE164E1248FFF792FEBD
:104EE0001148FFF78FFE7378134D3BB12846FFF74B
:104EF00089FEA86C1149FBF7F1FDA8647368AB64E7
:104F0000337843B1A86CD8F84810A26CBB6CBDE8EC
:104F1000F041FFF7BDBABDE8F041FFF781BA00BF2D
:104F2000A800002004010020600100200000A04231
:104F30000000A0C2800200204C0000200080BB4482
:104F400008B50248FEF78AFF08BD00BF60030020D5
:104F500003490523087001220248FDF701BC00BF88
:104F6000B2160020F815002007B505480DF107011D
:104F7000FEF759FF9DF8070003B05DF804FB00BF82
:104F8000600300200268084B10B59A420BD1074C11
:104F900007482178FEF732FF2146BDE81040012284
:104FA0000448FDF738BC10BD00380140B0160020A1
:104FB00060030020F81500200148FEF753BF00BF32
:104FC0006003002008B5FFF7F7FFBDE808400122A5
:104FD00001490248FDF71FBCB0160020F81500205B
:104FE00038B5044605462046FBF7B2F82B1B98421D
:104FF00000D838BD15F8010BFFF7AAFFF3E7000052
:1050000010B5054C02460549204600F0A1F920469E
:10501000BDE81040FFF7E4BFB2160020C9760008D3
:105020001D4B07B59A69032042F001029A619B6902
:1050300003F001030193019BFCF784F800226FF059
:105040000B001146FCF790F800226FF00A001146A1
:10505000FCF78AF800226FF009001146FCF784F88B
:1050600000226FF004001146FCF77EF800226FF07A
:1050700003001146FCF778F800226FF0010011469A
:10508000FCF772F800224FF0FF301146FCF76CF885
:1050900003B05DF804FB00BF001002407FB502685A
:1050A0000C4B9A4213D1C023029312230393032380
:1050B00002A909480593FCF7BFF8084BDA6942F4E6
:1050C0000012DA61DB6903F400130193019B07B05E
:1050D0005DF804FB00540040000C01400010024049
:1050E00003681D4A84B093420BD11C4B9A6942F469
:1050F00000629A619B6903F400630093009B04B013
:105100007047B3F1804F0BD103F50433DA6942F0F5
:105110000102DA61DB6903F001030193019BEEE711
:105120000F4A93420AD10D4BDA6942F00202DA616A
:10513000DB6903F002030293029BE0E7094A934212
:10514000DDD1064BDA6942F00402DA61DB6903F073
:1051500004030393039BD2E7002C0140001002409C
:1051600000040040000800401FB50368134A934242
:105170000CD14FF400630093022369461048019359
:105180000393FCF759F805B05DF804FBB3F1804FC9
:1051900002D102230093F0E70A4A934207D1032386
:1051A000009302236946019303930748E9E7074AFE
:1051B0009342E8D14FF44073F2E700BF002C014066
:1051C0000008014000040040000C014000080040BD
:1051D00010B50268164B86B09A4227D103F55843A2
:1051E0009A6902A942F480429A619B69114803F4CA
:1051F00080430193019B4FF40073029302230393B6
:10520000032300240593FCF717F84FF4806302A9E9
:105210000848029303940494FCF70EF825202246D4
:105220002146FBF7A1FF2520FBF7D2FF06B010BDFA
:1052300000380140000801407047FEE7FEE7FEE746
:10524000FEE770477047704708B5FBF75FFFBDE8A2
:105250000840FBF7ECBF00000148FDF710BB00BFA2
:10526000F81500200F4B1A6842F001021A605968C5
:105270000D4A0A405A601A6822F0847222F4803281
:105280001A601A6822F480221A605A6822F4FE0218
:105290005A604FF41F029A604FF00062034B9A600D
:1052A000704700BF001002400000FFF800ED00E072
:1052B000FBF734BFFBF732BFFBF736BF002103E03B
:1052C0000B4B5B58435004310A480B4B42189A422F
:1052D000F6D30A4A02E0002342F8043B084B9A4204
:1052E000F9D3FFF7BFFF00F00FF8FFF766F870473C
:1052F000B0770008000000202802002028020020CB
:105300001C170020FEE7000070B500250C4E0D4C68
:10531000A41BA410A54209D102F088F900250A4E69
:105320000A4CA41BA410A54205D170BD56F8253027
:1053300098470135EEE756F8253098470135F2E7F2
:10534000A8770008A8770008A8770008AC770008BD
:105350000EB44FF4027100B59CB0ADF814106FF0AC
:105360000041049107914FF6FF711DAB029006902A
:10537000084853F8042BADF81610006802A90193F1
:1053800000F066F80022029B1A701CB05DF804EB76
:1053900003B07047C00100202DE9F0478E688246B7
:1053A0009E420C469146984635D88A8912F4906FF1
:1053B00031D00223256809696F1A656905EB450537
:1053C00095FBF3F508F101033B449D4238BF1D46B0
:1053D000530531D5294600F047FB064650B90C234A
:1053E000CAF80030A3894FF0FF3043F04003A38197
:1053F000BDE8F0873A46216900F0C4FAA38923F496
:10540000906343F08003A38126613E4426604646B4
:105410006561ED1BA560464528BF464649463246B4
:10542000206800F0BAFAA36800209B1BA3602368E1
:105430001E442660BDE8F0872A4600F073FB06464E
:105440000028E1D12169504600F0C2FAC7E7000008
:105450002DE9F04F9DB003938B8980461C060D46C5
:1054600016460FD50B696BB9402100F0FDFA286094
:10547000286128B90C23C8F800304FF0FF30C4E091
:1054800040236B610023099320238DF829303023BA
:105490004FF0010B8DF82A3037463C4614F8013B9B
:1054A000002B3CD1B7EB060A0BD0534632462946B7
:1054B0004046FFF771FF013000F0A280099B534482
:1054C00009933B78002B00F09B8000234FF0FF32C4
:1054D00004930793059206938DF853301A9305228F
:1054E0002178504800F040FA671C049BD8B9D906CF
:1054F00044BF20228DF853201A0744BF2B228DF879
:10550000532022782A2A16D000210A20079A2746FB
:105510003B780134303B092B50D9C9B111E0252B20
:10552000C0D02746B9E73F4A3C46801A0BFA00F044
:1055300018430490D3E7039A111D12680391002ABF
:1055400001DB079204E0524243F002030792049306
:105550003B782E2B0DD17B78791C2A2B32D1039BE3
:1055600002371A1D1B680392002BB8BF4FF0FF33A0
:1055700005932D4C03223978204600F0F5F938B117
:105580004023001B03FA00F0049B013703430493FC
:105590003978062225487E1C8DF8281000F0E4F9A1
:1055A000002835D0224BFBB9039B073323F00703B8
:1055B00008330393099B4B4409936DE700FB0232C8
:1055C0000121A4E700230A24184605930F463A78E0
:1055D0000131303A092A03D9002BCAD00590C8E717
:1055E00004FB00200123F1E703AB00932A46114B93
:1055F00004A94046AFF30080B0F1FF3F8146D9D106
:10560000AB895B063FF539AF09981DB0BDE8F08F57
:1056100003AB00932A46074B04A9404600F084F8E8
:10562000EAE700BFE4760008EA760008EE760008B4
:1056300000000000995300082DE9F04791461F46ED
:105640008A680B6906469342B8BF1346C9F8003012
:1056500091F843200C46DDF8208012B10133C9F8DF
:1056600000302368990642BFD9F800300233C9F8E8
:105670000030256815F0060507D104F1190AE36822
:10568000D9F800209B1A9D422ADB94F84330226807
:10569000003318BF012392062FD404F14302394688
:1056A0003046C047013022D02368E56803F0060386
:1056B000042B18BF0025D9F800204FF0000908BFBF
:1056C000AD1AA368226908BF25EAE5759342C4BFF5
:1056D0009B1AED181A344D451BD10020BDE8F08708
:1056E0000123524639463046C047013003D14FF0BE
:1056F000FF30BDE8F0870135C1E73020E11881F8BF
:1057000043005A1C94F845102244023382F8431097
:10571000C3E70123224639463046C0470130E6D070
:1057200009F10109D7E700002DE9F04317460A7E89
:1057300085B06E2A984606460C460C9B01F1430E36
:1057400000F0BC801AD8632A2ED00AD8002A00F0B4
:10575000C880582A00F08A8004F1420584F842206B
:105760002AE0642A01D0692AF6D121681A6811F06A
:10577000800F23D0111D1960136827E0732A00F0F1
:10578000B48008D86F2A2AD0702AE5D10A6842F07E
:1057900020020A6003E0752A21D0782ADCD1782221
:1057A0006F4984F8452064E01A6801F14205111D33
:1057B0001960136884F842300123A3E011F0400F10
:1057C00002F104011960D7D0B2F90030002B03DADE
:1057D0002D225B4284F8432062490A2217E02068A8
:1057E000196810F0800F03D0081D18600B6806E0E0
:1057F00010F0400F01F104001860F7D00B886F2AF9
:1058000014BF0A2208225749002084F84300656823
:10581000002DA560C0F29C80206820F0040020606C
:10582000002B3FD1002D40F095807546082A0BD102
:105830002368DA0708D5236962689A42DEBF3023FD
:1058400005F8013C05F1FF35AEEB05032361CDF80A
:1058500000803B4603AA21463046FFF7EDFE0130AB
:1058600055D14FF0FF3005B0BDE8F08381F84520F9
:105870003C492268186812F0800F00F104051D6091
:1058800001D0036802E05506FBD50388D00744BF6A
:1058900042F0200222601BB9226822F0200222601E
:1058A0001022B1E77546B3FBF2F002FB1033CB5C7C
:1058B00005F8013D03460028F5D1B7E708681A68E6
:1058C00010F0800F496904D0101D1860136819602A
:1058D00007E010F0400F02F1040018601368F6D0E2
:1058E0001980002375462361B1E71A68111D1960FC
:1058F000156800216268284600F036F808B1401BA0
:10590000606063682361002384F843309FE7236964
:105910002A4639463046C0470130A2D023689B074B
:1059200007D5002504F11909E368039A9B1A9D42E3
:1059300005DBE068039B9842B8BF184693E7012354
:105940004A4639463046C04701308AD00135EBE738
:10595000002BA7D10B7804F1420584F8423065E7AB
:1059600006770008F576000810B5C9B202449042E7
:10597000034601D1002010BD1C7801308C42F6D1C5
:10598000184610BD10B5431E0A44914200D110BD07
:1059900011F8014B03F8014FF7E7884210B501EB0E
:1059A000020303D8421E99420CD110BD9842F9D28D
:1059B0008118D21AD34200D110BD13F8014D01F85D
:1059C000014DF7E711F8014B02F8014FEBE700003A
:1059D00038B50546002943D051F8043C0C1F002B74
:1059E000B8BFE41800F0D4F81E4A1368104633B963
:1059F000636014602846BDE8384000F0CAB8A3428E
:105A00000BD921686218934201BF1A685B6852186B
:105A1000226063600460EDE713465A680AB1A2424F
:105A2000FAD919685818A0420BD1206801445818B7
:105A300082421960DED110685268014419605A60D0
:105A4000D8E702D90C232B60D4E7206821188A42BA
:105A500001BF116852680918216062605C60C9E783
:105A600038BD00BFA802002070B5CD1C25F003058D
:105A700008350C2D38BF0C25002D064601DBA94248
:105A800003D90C233360002070BD00F081F8234A55
:105A90001468214691B9224C23681BB9304600F0A6
:105AA00067F820602946304600F062F8431C26D192
:105AB0000C233046336000F06CF8E4E70B685B1BA6
:105AC0001AD40B2B0FD90B60CC18CD50304600F0F8
:105AD00060F804F10B00231D20F00700C31A1BD04F
