:020000040800F2
:100000000050002029140008B1130008B3130008A1
:10001000B5130008B7130008B9130008000000006A
:10002000000000000000000000000000BB130008FA
:10003000BD13000800000000BF130008C113000832
:10004000711400087114000871140008711400087C
:10005000711400087114000871140008711400086C
:10006000711400087114000871140008711400085C
:10007000711400087114000871140008711400084C
:10008000711400087114000871140008711400083C
:10009000711400087114000871140008711400082C
:1000A000711400087114000871140008711400081C
:1000B000711400087114000871140008711400080C
:1000C00071140008711400087114000871140008FC
:1000D0007114000871140008D1130008711400088D
:1000E0007114000871140008711400080000000069
:1000F0000000000000000000000000000000000000
:0C01000000000000000000005FF808F1A3
:10010C0010B5054C237833B9044B13B10448AFF345
:10011C0000800123237010BD0400002000000000AB
:10012C00CC14000808B5034B1BB103490348AFF3CB
:10013C00008008BD0000000008000020CC1400085E
:10014C00034613F8012B002AFBD1181A013870470B
:10015C0010B5044600F060FD4FF47A73B0FBF3F079
:10016C0000F088F8002221464FF0FF3000F042F8F2
:10017C00002010BD074A08B51368032043F0100394
:10018C00136000F025F80020FFF7E2FF01F076F88D
:10019C00002008BD00200240024A1368013313609E
:1001AC00704700BF20000020014B1868704700BF4B
:1001BC002000002013B50190FFF7F6FF0446FFF76F
:1001CC00F3FF019B001B9842F9D302B010BD000055
:1001DC00074A0002D36800F4E06023F4E0631B04D8
:1001EC001B0C43F0BF6343F400330343D3607047ED
:1001FC0000ED00E0174B30B5DC68C4F30224C4F109
:10020C000703251D042B28BF0423062D4FF00105E1
:10021C0098BF002405FA03F303F1FF3388BF033CB6
:10022C001940A14005FA04F4013C2240002842EA9E
:10023C0001024FEA0212AFBF00F16040064B00F022
:10024C000F00D2B2A5BFD2B200F561401A5480F8AB
:10025C00002330BD00ED00E014ED00E00123420965
:10026C0000F01F0003FA00F0014B43F82200704726
:10027C0000E100E00138B0F1807F0AD2F021064B9A
:10028C00064A586082F823100020072298601A60F2
:10029C0070470120704700BF10E000E000ED00E067
:1002AC00044B04281A680CBF42F0040222F004022A
:1002BC001A60704710E000E0704708B5FFF7FCFFCC
:1002CC0008BD00002DE9F74F00221646654BDFF8FC
:1002DC00A4E1DFF8A4C14FF001080C6808FA06F895
:1002EC0008EA0404A0457FD14D68122D00F0AF80C0
:1002FC0000F28880022D00F0A7807CD8002D00F041
:10030C008E80012D00F09E804FF00F09FF2C93BFC3
:10031C00824606F18045083DD0F800B092BFB5008A
:10032C00D0F804B0AD0009FA05F82BEA080802FA77
:10033C0005F588BF00F1040A48EA0505CAF8005023
:10034C00D1F804A01AF0805F4ED0474D464FAD69EE
:10035C0026F0030845F00105BD61BD6908F1804830
:10036C0005F00105019508F5803806F0030B019D99
:10037C004FEA8B0BD8F8085009FA0BF925EA090952
:10038C003A4DA84268D005F58065A84266D005F5BF
:10039C008065A84264D005F58065A8420CBF032592
:1003AC00042505FA0BF545EA0905C8F808501D683F
:1003BC001AF4803F14BF2543A5431D605D681AF4F1
:1003CC00003F14BF2543A5435D609D681AF4801F50
:1003DC0014BF2543A5439D60DD681AF4001F14BFAC
:1003EC002C4325EA0404DC600136102E7FF473AF35
:1003FC0003B0BDE8F08F032D22D0112D84D1CA6833
:10040C00043281E71A4FBD4209D012D8DFF86C9044
:10041C004D4504D009F580394D457FF475AF8A6898
:10042C00C2B1012A0CBFC0F81080C0F81480082299
:10043C006AE77545F3D06545F1D0DFF84490EBE7FA
:10044C00002261E7CA685FE7CA6808325CE7CA68DD
:10045C000C3259E7042257E70025A2E70125A0E753
:10046C0002259EE7000401400010024000080140F4
:10047C00000021100000311000003210000011109B
:10048C00000022100AB1016170470904FBE7C36840
:10049C005940C1607047000070B5044600285FD019
:1004AC0090F8353003F0FF021BB980F8342000F0CF
:1004BC0023FF2423226884F835301368294E23F057
:1004CC000103136000F0AEFB6368274DB342B0FB31
:1004DC00F5F588BF4FF49671226888BF6943556063
:1004EC0085BF4FF47A75B1FBF5F1691C0131B3424C
:1004FC00116220D85B00B0FBF3F0C0F30B03032BAD
:10050C0098BF0420216AE369D0610B431360E16852
:10051C00236900200B439360A16963690B43D3608B
:10052C00136843F0010313602023A06384F8353073
:10053C0084F8360070BDA16859B903EB4303B0FBD6
:10054C00F3F040F40040C0F30B03002B08BF012074
:10055C00D8E719214B43B0FBF3F040F44040F2E7ED
:10056C00012070BDA086010040420F0003682DE9F8
:10057C00F743DE07054634D42B689C0700F1A780AF
:10058C002B681A0723D5AA69BE4C0123BE49002A41
:10059C0000F0158193FAA3F2B2FA82F241F82230FC
:1005AC00FFF702FE0226074696FAA6F396FAA6F382
:1005BC00626A96FAA6F3B3FA83F303F01F0322FAE6
:1005CC0003F3DB0740F1F4800120FFF7F3FD2B6808
:1005DC00590700F11481EA69002A40F09381002048
:1005EC0020E0A84C636803F00C03042B07D063686D
:1005FC0003F00C03082B18D16368D80315D54FF4FE
:10060C00003393FAA3F2226893FAA3F3B3FA83F3B9
:10061C0003F01F0322FA03F3D907ADD56B68002B47
:10062C00AAD1012003B0BDE8F0836B68B3F5803F1D
:10063C001CD1236843F480332360FFF7B5FD4FF4DE
:10064C000036074696FAA6F3226896FAA6F3B3FA92
:10065C0083F303F01F0322FA03F3DA078CD4FFF7BA
:10066C00A3FDC01B6428EDD90320DBE703BB236883
:10067C004FF4003623F480332360236823F4802363
:10068C002360FFF791FD074696FAA6F3226896FAC7
:10069C00A6F3B3FA83F303F01F0322FA03F3DB0789
:1006AC007FF56AAFFFF780FDC01B6428ECD9DBE750
:1006BC00B3F5A02F236803D143F480232360B8E75C
:1006CC0023F480332360236823F48023B4E76D4C38
:1006DC00636813F00C0F07D0636803F00C03082B4E
:1006EC0020D16368DF031DD4022393FAA3F222689E
:1006FC0093FAA3F3B3FA83F303F01F0322FA03F381
:10070C00DE0702D52B69012B8BD12168F82393FAD4
:10071C00A3F3B3FA83F26B69934021F0F80213430D
:10072C0023602DE72A69012302B393FAA3F2B2FAEC
:10073C0082F2920002F1844202F584021360FFF708
:10074C0033FD0226074696FAA6F3226896FAA6F31C
:10075C00B3FA83F303F01F0322FA03F3D807D4D4BC
:10076C00FFF722FDC01B0228EDD97DE793FAA3F316
:10077C00B3FA83F39B0003F1844303F584031A60FB
:10078C00FFF712FD0226074696FAA6F3226896FAA0
:10079C00A6F3B3FA83F303F01F0322FA03F3D9078A
:1007AC007FF5EEAEFFF700FDC01B0228ECD95BE72E
:1007BC00FFF7FAFCC01B02287FF6F6AE54E793FA5B
:1007CC00A3F3B3FA83F341F82320FFF7EDFC0226E1
:1007DC00074696FAA6F396FAA6F3626A96FAA6F379
:1007EC00B3FA83F303F01F0322FA03F3D8077FF560
:1007FC00EEAEFFF7D9FCC01B0228EAD934E7214C36
:10080C00224EE36943F08053E361E36903F08053C4
:10081C000193019B336843F480733360FFF7C4FC8E
:10082C0007463368DA0526D5EB68012B30D1236AED
:10083C0043F001032362FFF7B7FC02268146B04662
:10084C0041F2883796FAA6F396FAA6F3002B55D008
:10085C00226A98FAA8F3B3FA83F303F01F0322FA7F
:10086C0003F3DB073FF5B7AEFFF79EFCA0EB0900E7
:10087C00B842E7D9F8E6FFF797FCC01B6428D0D93B
:10088C00F2E600BF001002408004424200700040BB
:10089C0033BB236A022623F001032362236A374603
:1008AC0023F004032362FFF77FFC41F28839804672
:1008BC0096FAA6F396FAA6F313B3226A97FAA7F35D
:1008CC00B3FA83F303F01F0322FA03F3D8077FF57F
:1008DC0082AEFFF769FCA0EB08004845E8D9C3E6F7
:1008EC00052B236A03D143F0040323629FE723F013
:1008FC0001032362236A23F004039BE7626AA8E7DF
:10090C00626ADBE7444C636803F00C03082B3FF48A
:10091C0088AE022A4FF0807359D193FAA3F3B3FA3D
:10092C0083F300229B0003F1844303F584031A60D4
:10093C00FFF73AFC4FF00076074696FAA6F32268CA
:10094C0096FAA6F3B3FA83F303F01F0322FA03F328
:10095C00D90736D42B6AB3F5803F05D16268A968F4
:10096C0022F400320A4362606268696A22F47412EB
:10097C000B43134363604FF0807393FAA3F3B3FA02
:10098C0083F301229B0003F1844303F584031A6073
:10099C00FFF70AFC4FF00075064695FAA5F322689E
:1009AC0095FAA5F3B3FA83F303F01F0322FA03F3CA
:1009BC00DA073FF514AEFFF7F7FB801B0228ECD9E2
:1009CC0052E6FFF7F1FBC01B0228B6D94CE693FAAE
:1009DC00A3F3B3FA83F300229B0003F1844303F5E2
:1009EC0084031A60FFF7E0FB4FF00075064695FA9A
:1009FC00A5F3226895FAA5F3B3FA83F303F01F036A
:100A0C0022FA03F3DB077FF5EAADFFF7CDFB801B82
:100A1C000228ECD928E600BF0010024030B5204B6C
:100A2C0087B002AC03F110052246186859680833E8
:100A3C0003C2AB421446F7D101238DF804300223D4
:100A4C00184C8DF80530616801F00C03082B24D18B
:100A5C004FF4701393FAA3F3B3FA83F201F4701307
:100A6C00D34006AA134413F8100CCB0313D56368B8
:100A7C004FF4003292FAA2F2B2FA82F203F400338B
:100A8C00D34006AA134413F8142C074BB3FBF2F310
:100A9C00584307B030BD054BFAE70348F9E700BFF0
:100AAC00E41400080010024000127A0000093D0016
:100ABC00554A2DE9F0411368064603F007038B42B3
:100ACC000D4630D3326894073AD4D00740D44E4AFE
:100ADC00136803F007039D42C0F0848032684B4CCE
:100AEC0012F0040F40F08980130706D56368326951
:100AFC0023F4605343EAC2036360FFF78FFF63681C
:100B0C00F02292FAA2F2B2FA82F203F0F003D3408E
:100B1C003F4AD35CD8403F4B18600020FFF718FBCE
:100B2C000020BDE8F081136823F007030B4313602A
:100B3C00136803F007039942C4D00120BDE8F0818B
:100B4C003249B0684B6823F0F00303434B60BCE7B9
:100B5C0072682E4C012A28D14FF4003393FAA3F17A
:100B6C00216893FAA3F3B3FA83F303F01F0321FA7A
:100B7C0003F3D907E1D5636841F2883823F0030306
:100B8C001A436260FFF710FB73680746012B12D102
:100B9C00636803F00C03042B99D0FFF705FBC01B13
:100BAC004045F5D90320BDE8F081022A0CBF4FF077
:100BBC0000730223D2E7022B0FD1636803F00C03FE
:100BCC00082B84D0FFF7F0FAC01B4045F5D9E9E7B4
:100BDC00FFF7EAFAC01B4045E4D8636813F00C0F2A
:100BEC00F6D174E7136823F007032B4313601368E3
:100BFC0003F007039D42A0D170E76368F16823F40A
:100C0C00E0630B4363606FE700200240001002407A
:100C1C00FC14000800000020014B1868704700BF4E
:100C2C0000000020084B4FF4E0625B6892FAA2F2DD
:100C3C00B2FA82F203F4E063D340044AD35C044A70
:100C4C001068D840704700BF001002400C15000817
:100C5C0000000020084B4FF460525B6892FAA2F23D
:100C6C00B2FA82F203F46053D340044AD35C044AD0
:100C7C001068D840704700BF001002400C150008E7
:100C8C00000000202DE9F0470568C2682B69016956
:100C9C0023F4405313432B618368EA680B43416987
:100CAC0022F4B05222F00C020B431343EB606B693D
:100CBC00826923F4407313436B61404B81469D4220
:100CCC004FF0190446D1FFF7C5FF04FB00F3D9F828
:100CDC0004604FF06408B600B3FBF6F3B3FBF8F313
:100CEC001E01FFF7B7FF6043D9F804309B00B0FB3F
:100CFC00F3F7FFF7AFFF6043D9F804309B00B0FB6C
:100D0C00F3F3B3FBF8F308FB13731B013233B3FBA0
:100D1C00F8F303F0F007FFF79DFF6043D9F80420C8
:100D2C009200B0FBF2FAFFF795FF6043D9F804305C
:100D3C009B00B0FBF3F3B3FBF8F308FB13A31B010D
:100D4C003233B3FBF8F303F00F033B433344AB6094
:100D5C00BDE8F087FFF766FF04FB00F3D9F80460E9
:100D6C004FF06408B600B3FBF6F3B3FBF8F31E01C7
:100D7C00FFF758FF6043D9F804309B00B0FBF3F742
:100D8C00FFF750FF6043D9F804309B00B0FBF3F33E
:100D9C00B3FBF8F308FB13731B013233B3FBF8F30B
:100DAC0003F0F007FFF73EFF6043D9F804209200F0
:100DBC00B0FBF2FAFFF736FFB7E700BF003801408F
:100DCC00F8B504460E461546FFF7EEF907462268BD
:100DDC00136836EA030301D10020F8BD6B1CF7D071
:100DEC00C5B923680320DA6822F08002DA60DA6879
:100DFC0022F02002DA60DA6822F48072DA605A6932
:100E0C0022F001025A61012384F83930002384F85E
:100E1C003830F8BDFFF7C8F9C01B8542D7D2E0E7E0
:100E2C0010B5044630B390F8393003F0FF021BB90B
:100E3C0080F8382000F082FA0223226884F83930D6
:100E4C00D368204623F40053D360FFF71BFF2368BD
:100E5C0000201A6922F490421A615A6922F02A027F
:100E6C005A61DA6842F40052DA600123E06384F8D4
:100E7C00393010BD012010BD70B50D4690F83910F9
:100E8C000446C9B201291E4601D022294DD1002D9C
:100E9C0049D0002A47D094F83830012B45D0012393
:100EAC0084F838300023E36394F83930A284222B81
:100EBC000CBF32231223E28484F83930E28C8AB9D5
:100ECC00324640212046FFF77BFFC0B994F83930F9
:100EDC00322B0CBF2223012384F83930002384F8F1
:100EEC00383070BDA368013AB3F5805FE2844FF0EF
:100EFC008001324620460DD1FFF762FF08B1032076
:100F0C0070BD2B882268C3F308035360236943B96F
:100F1C000235D3E7FFF754FF0028F0D123682A7875
:100F2C005A600135CAE7012070BD022070BD7047C0
:100F3C0070477047026813B511680446C907D36837
:100F4C0005D5DB0542BFC36B43F00103C3631168D6
:100F5C005369880703F0010304D51BB1E16B41F021
:100F6C000401E1631168490704D51BB1E16B41F041
:100F7C000201E1631168080704D51BB1E36B43F070
:100F8C000803E3631168D368890633D5980631D515
:100F9C0094F8393003F0EF03222B2BD1A36821698D
:100FAC00B3F5805FA36A76D1526800296FD1C2F382
:100FBC00080223F8022BA362E38D013B9BB2E3856D
:100FCC00C3B923682046DA6822F02002DA6094F86C
:100FDC003920322A17BFDA68122322F48072DA60C1
:100FEC001FBF5A6922F001025A61012384F839307B
:100FFC00FFF79EFF23681968DA68090622D51006E8
:10100C0020D594F8392002F0DF02122A1AD1A268F6
:10101C00B2F5805F226A4CD11188C1F30801596086
:10102C002169002943D102322262E28C013A92B248
:10103C00E2843AB9DA6822F08002DA60DA6842F0C7
:10104C004002DA601968DA68490610D552060ED5E6
:10105C00DA68204622F04002DA6094F83930322BFC
:10106C000CBF2223012384F83930FFF760FFE36BB8
:10107C005BB1236820461A6801925B680193019B5F
:10108C00012384F83930FFF754FF02B010BDD2B2FF
:10109C0023F8012B8FE721B9591C5268A1621A70F1
:1010AC008AE75268591CA16202F07F02F7E701320D
:1010BC00BAE7511C216212785A60B6E708B500F005
:1010CC00B9F8044C204600F0C3F86420FFF772F81E
:1010DC00F8E700BFF414000808B5044C20462021A2
:1010EC00FFF7D5F9C820FFF765F8F7E700080140CE
:1010FC00012310B590B00A9310230B930023022404
:10110C000E934FF4601306A806940D940F93FFF7FB
:10111C002DFA08B1FFF7E0FF0F2301934FF4806322
:10112C0003900590214601A802940493FFF7C0FC9C
:10113C0004460028EED1FFF76FFD4FF47A73B0FB35
:10114C00F3F0FFF797F80420FFF7AAF822462146A0
:10115C004FF0FF30FFF74EF810B010BD08B50B483C
:10116C000B4BDFF830E04FF4804280E8084000235E
:10117C0002618360C36043618361C3610362FFF7F3
:10118C008BF908B1FFF7A8FF08BD00BF24000020B1
:10119C0000540040801A060008B54FF4165E09484A
:1011AC00094B0C2280E80840002342618360C36035
:1011BC0003618361C361FFF733FE08B1FFF78CFF56
:1011CC0008BD00BF6000002000440040174B10B564
:1011DC009A6988B042F020029A619A69144C02F024
:1011EC0020020192019A9A69204642F004029A6107
:1011FC009A69202102F004020292029A9A6942F042
:10120C0008029A619B69002203F008030393039B75
:10121C00FFF738F92023049301230593022304A933
:10122C0020460793FFF74EF808B010BD001002409F
:10123C000008014008B5FEF79DFFFFF759FFFFF7C7
:10124C00C5FFFFF78BFFBDE80840FFF7A5BF000007
:10125C0010B5084C0146204600F02AF92046FEF74E
:10126C006FFF2146BDE8104082B264230248FFF7AD
:10127C0003BE00BFA0000020600000201D4B07B57E
:10128C009A69032042F001029A619B6903F0010301
:10129C000193019BFEF79CFF00226FF00B0011469F
:1012AC00FEF7A8FF00226FF00A001146FEF7A2FF1E
:1012BC0000226FF009001146FEF79CFF00226FF030
:1012CC0004001146FEF796FF00226FF00300114652
:1012DC00FEF790FF00226FF001001146FEF78AFF27
:1012EC0000224FF0FF301146FEF784FF03B05DF88B
:1012FC0004FB00BF001002407FB502680C4B9A4201
:10130C0013D1C023029312230393032302A9094888
:10131C000593FEF7D7FF084BDA6942F40012DA6145
:10132C00DB6903F400130193019B07B05DF804FB28
:10133C0000540040000C01400010024010B502683F
:10134C00164B86B09A4226D103F5E633DA6902A928
:10135C0042F40032DA61DB69114803F40033019383
:10136C00019B042302930223039303230593FEF7AB
:10137C00A9FF082300240DEB0301094802930394F1
:10138C000494FEF79FFF262022462146FEF732FFEB
:10139C002620FEF763FF06B010BD00BF00440040DE
:1013AC00000801407047FEE7FEE7FEE7FEE77047E6
:1013BC007047704708B5FEF7EFFEBDE80840FEF732
:1013CC007CBF00000148FFF7B5BD00BF60000020E6
:1013DC000F4B1A6842F001021A6059680D4A0A4014
:1013EC005A601A6822F0847222F480321A601A68E9
:1013FC0022F480221A605A6822F4FE025A604FF4DA
:10140C001F029A604FF00062034B9A60704700BF56
:10141C00001002400000FFF800ED00E0002103E0A6
:10142C000B4B5B58435004310A480B4B42189A4201
:10143C00F6D30A4A02E0002342F8043B084B9A42D6
:10144C00F9D3FFF7C5FF00F00FF8FFF737FE704731
:10145C001C150008000000200400002004000020DF
:10146C0004010020FEE7000070B500250C4E0D4C69
:10147C00A41BA410A54209D100F022F800250A4EA5
:10148C000A4CA41BA410A54205D170BD56F82530FA
:10149C0098470135EEE756F8253098470135F2E7C5
:1014AC001415000814150008141500081815000868
:1014BC00034611F8012B03F8012B002AF9D17047D0
:1014CC00F8B500BFF8BC08BC9E467047F8B500BF25
:0814DC00F8BC08BC9E467047F5
:1014E40002030405060708090A0B0C0D0E0F101061
:1014F40048656C6C6F210A000000000000000000C9
:1015040001020304060708090000000001020304A5
:041514003101000899
:041518000D010008B9
:04151C0000A24A04DB
:0400000508001429B2
:00000001FF
