:020000040800F2
:1000000000500020650D0008F90C0008FB0C0008EA
:10001000FD0C0008FF0C0008010D000800000000A6
:10002000000000000000000000000000030D0008B8
:10003000050D000800000000070D0008090D00086C
:10004000AD0D0008AD0D0008AD0D0008AD0D0008A8
:10005000AD0D0008170D0008AD0D0008AD0D00082E
:10006000AD0D0008AD0D0008AD0D0008AD0D000888
:10007000AD0D0008AD0D0008AD0D0008AD0D000878
:10008000AD0D0008AD0D0008AD0D0008AD0D000868
:10009000AD0D0008AD0D0008AD0D0008AD0D000858
:1000A000AD0D0008AD0D0008AD0D0008AD0D000848
:1000B000AD0D0008AD0D0008AD0D0008AD0D000838
:1000C000AD0D0008AD0D0008AD0D0008AD0D000828
:1000D000AD0D0008AD0D0008AD0D0008AD0D000818
:1000E000AD0D0008AD0D0008AD0D000800000000CA
:1000F0000000000000000000000000000000000000
:0C01000000000000000000005FF808F1A3
:10010C0010B5054C237833B9044B13B10448AFF345
:10011C0000800123237010BD0400002000000000AB
:10012C00F80D000808B5034B1BB103490348AFF3A6
:10013C00008008BD0000000008000020F80D000839
:10014C0010B5044600F0F6FC4FF47A73B0FBF3F0F4
:10015C0000F088F8002221464FF0FF3000F042F802
:10016C00002010BD074A08B51368032043F01003A4
:10017C00136000F025F80020FFF7E2FF00F070FD9F
:10018C00002008BD00200240024A136801331360AE
:10019C00704700BF20000020014B1868704700BF5B
:1001AC002000002013B50190FFF7F6FF0446FFF77F
:1001BC00F3FF019B001B9842F9D302B010BD000065
:1001CC00074A0002D36800F4E06023F4E0631B04E8
:1001DC001B0C43F0BF6343F400330343D3607047FD
:1001EC0000ED00E0174B30B5DC68C4F30224C4F119
:1001FC000703251D042B28BF0423062D4FF00105F2
:10020C0098BF002405FA03F303F1FF3388BF033CC6
:10021C001940A14005FA04F4013C2240002842EAAE
:10022C0001024FEA0212AFBF00F16040064B00F032
:10023C000F00D2B2A5BFD2B200F561401A5480F8BB
:10024C00002330BD00ED00E014ED00E00123420975
:10025C0000F01F0003FA00F0014B43F82200704736
:10026C0000E100E00138B0F1807F0AD2F021064BAA
:10027C00064A586082F823100020072298601A6002
:10028C0070470120704700BF10E000E000ED00E077
:10029C00044B04281A680CBF42F0040222F004023A
:1002AC001A60704710E000E0704708B5FFF7FCFFDC
:1002BC0008BD00002DE9F74F00221646654BDFF80C
:1002CC00A4E1DFF8A4C14FF001080C6808FA06F8A5
:1002DC0008EA0404A0457FD14D68122D00F0AF80D0
:1002EC0000F28880022D00F0A7807CD8002D00F051
:1002FC008E80012D00F09E804FF00F09FF2C93BFD4
:10030C00824606F18045083DD0F800B092BFB5009A
:10031C00D0F804B0AD0009FA05F82BEA080802FA87
:10032C0005F588BF00F1040A48EA0505CAF8005033
:10033C00D1F804A01AF0805F4ED0474D464FAD69FE
:10034C0026F0030845F00105BD61BD6908F1804840
:10035C0005F00105019508F5803806F0030B019DA9
:10036C004FEA8B0BD8F8085009FA0BF925EA090962
:10037C003A4DA84268D005F58065A84266D005F5CF
:10038C008065A84264D005F58065A8420CBF0325A2
:10039C00042505FA0BF545EA0905C8F808501D684F
:1003AC001AF4803F14BF2543A5431D605D681AF401
:1003BC00003F14BF2543A5435D609D681AF4801F60
:1003CC0014BF2543A5439D60DD681AF4001F14BFBC
:1003DC002C4325EA0404DC600136102E7FF473AF45
:1003EC0003B0BDE8F08F032D22D0112D84D1CA6843
:1003FC00043281E71A4FBD4209D012D8DFF86C9055
:10040C004D4504D009F580394D457FF475AF8A68A8
:10041C00C2B1012A0CBFC0F81080C0F814800822A9
:10042C006AE77545F3D06545F1D0DFF84490EBE70A
:10043C00002261E7CA685FE7CA6808325CE7CA68ED
:10044C000C3259E7042257E70025A2E70125A0E763
:10045C0002259EE700040140001002400008014004
:10046C0000002110000031100000321000001110AB
:10047C00000022100AB1016170470904FBE7C36850
:10048C005940C1607047000003682DE9F743DE074F
:10049C00054634D42B689C0700F1A7802B681A07FB
:1004AC0023D5AA69BE4C0123BE49002A00F0158150
:1004BC0093FAA3F2B2FA82F241F82230FFF76CFE03
:1004CC000226074696FAA6F396FAA6F3626A96FAFD
:1004DC00A6F3B3FA83F303F01F0322FA03F3DB074B
:1004EC0040F1F4800120FFF75DFE2B68590700F105
:1004FC001481EA69002A40F09381002020E0A84C86
:10050C00636803F00C03042B07D0636803F00C033F
:10051C00082B18D16368D80315D54FF4003393FA20
:10052C00A3F2226893FAA3F3B3FA83F303F01F0345
:10053C0022FA03F3D907ADD56B68002BAAD10120A1
:10054C0003B0BDE8F0836B68B3F5803F1CD1236822
:10055C0043F480332360FFF71FFE4FF40036074649
:10056C0096FAA6F3226896FAA6F3B3FA83F303F08D
:10057C001F0322FA03F3DA078CD4FFF70DFEC01B1E
:10058C006428EDD90320DBE703BB23684FF4003666
:10059C0023F480332360236823F480232360FFF744
:1005AC00FBFD074696FAA6F3226896FAA6F3B3FA71
:1005BC0083F303F01F0322FA03F3DB077FF56AAF23
:1005CC00FFF7EAFDC01B6428ECD9DBE7B3F5A02FDD
:1005DC00236803D143F480232360B8E723F48033EA
:1005EC002360236823F48023B4E76D4C636813F015
:1005FC000C0F07D0636803F00C03082B20D1636841
:10060C00DF031DD4022393FAA3F2226893FAA3F317
:10061C00B3FA83F303F01F0322FA03F3DE0702D5C8
:10062C002B69012B8BD12168F82393FAA3F3B3FA2E
:10063C0083F26B69934021F0F802134323602DE79A
:10064C002A69012302B393FAA3F2B2FA82F292005E
:10065C0002F1844202F584021360FFF79DFD02262D
:10066C00074696FAA6F3226896FAA6F3B3FA83F332
:10067C0003F01F0322FA03F3D807D4D4FFF78CFD41
:10068C00C01B0228EDD97DE793FAA3F3B3FA83F3E9
:10069C009B0003F1844303F584031A60FFF77CFD90
:1006AC000226074696FAA6F3226896FAA6F3B3FA40
:1006BC0083F303F01F0322FA03F3D9077FF5EEAEA1
:1006CC00FFF76AFDC01B0228ECD95BE7FFF764FD5E
:1006DC00C01B02287FF6F6AE54E793FAA3F3B3FAE5
:1006EC0083F341F82320FFF757FD0226074696FABD
:1006FC00A6F396FAA6F3626A96FAA6F3B3FA83F314
:10070C0003F01F0322FA03F3D8077FF5EEAEFFF7D1
:10071C0043FDC01B0228EAD934E7214C224EE36981
:10072C0043F08053E361E36903F080530193019B31
:10073C00336843F480733360FFF72EFD074633684C
:10074C00DA0526D5EB68012B30D1236A43F001037F
:10075C002362FFF721FD02268146B04641F288371D
:10076C0096FAA6F396FAA6F3002B55D0226A98FABD
:10077C00A8F3B3FA83F303F01F0322FA03F3DB07A6
:10078C003FF5B7AEFFF708FDA0EB0900B842E7D97B
:10079C00F8E6FFF701FDC01B6428D0D9F2E600BFD4
:1007AC0000100240800442420070004033BB236AB8
:1007BC00022623F001032362236A374623F0040345
:1007CC002362FFF7E9FC41F28839804696FAA6F3DA
:1007DC0096FAA6F313B3226A97FAA7F3B3FA83F344
:1007EC0003F01F0322FA03F3D8077FF582AEFFF75D
:1007FC00D3FCA0EB08004845E8D9C3E6052B236AD7
:10080C0003D143F0040323629FE723F00103236227
:10081C00236A23F004039BE7626AA8E7626ADBE7BA
:10082C00444C636803F00C03082B3FF488AE022A97
:10083C004FF0807359D193FAA3F3B3FA83F30022E8
:10084C009B0003F1844303F584031A60FFF7A4FCB7
:10085C004FF00076074696FAA6F3226896FAA6F3AE
:10086C00B3FA83F303F01F0322FA03F3D90736D448
:10087C002B6AB3F5803F05D16268A96822F4003277
:10088C000A4362606268696A22F474120B43134370
:10089C0063604FF0807393FAA3F3B3FA83F30122EE
:1008AC009B0003F1844303F584031A60FFF774FC87
:1008BC004FF00075064695FAA5F3226895FAA5F354
:1008CC00B3FA83F303F01F0322FA03F3DA073FF5BD
:1008DC0014AEFFF761FC801B0228ECD952E6FFF73F
:1008EC005BFCC01B0228B6D94CE693FAA3F3B3FA0F
:1008FC0083F300229B0003F1844303F584031A6005
:10090C00FFF74AFC4FF00075064695FAA5F32268EE
:10091C0095FAA5F3B3FA83F303F01F0322FA03F35A
:10092C00DB077FF5EAADFFF737FC801B0228ECD91B
:10093C0028E600BF0010024030B5204B87B002AC57
:10094C0003F11005224618685968083303C2AB42FC
:10095C001446F7D101238DF804300223184C8DF87E
:10096C000530616801F00C03082B24D14FF470138F
:10097C0093FAA3F3B3FA83F201F47013D34006AAEB
:10098C00134413F8100CCB0313D563684FF40032E7
:10099C0092FAA2F2B2FA82F203F40033D34006AA1E
:1009AC00134413F8142C074BB3FBF2F3584307B062
:1009BC0030BD054BFAE70348F9E700BF100E0008FD
:1009CC000010024000127A0000093D00554A2DE942
:1009DC00F0411368064603F007038B420D4630D3F3
:1009EC00326894073AD4D00740D44E4A136803F0C7
:1009FC0007039D42C0F0848032684B4C12F0040F08
:100A0C0040F08980130706D56368326923F460537C
:100A1C0043EAC2036360FFF78FFF6368F02292FA28
:100A2C00A2F2B2FA82F203F0F003D3403F4AD35C55
:100A3C00D8403F4B18600020FFF782FB0020BDE838
:100A4C00F081136823F007030B431360136803F062
:100A5C0007039942C4D00120BDE8F0813249B06847
:100A6C004B6823F0F00303434B60BCE772682E4CD9
:100A7C00012A28D14FF4003393FAA3F1216893FA99
:100A8C00A3F3B3FA83F303F01F0321FA03F3D9079B
:100A9C00E1D5636841F2883823F003031A4362609E
:100AAC00FFF77AFB73680746012B12D1636803F0DA
:100ABC000C03042B99D0FFF76FFBC01B4045F5D9F5
:100ACC000320BDE8F081022A0CBF4FF00073022313
:100ADC00D2E7022B0FD1636803F00C03082B84D0F0
:100AEC00FFF75AFBC01B4045F5D9E9E7FFF754FB6C
:100AFC00C01B4045E4D8636813F00C0FF6D174E7C3
:100B0C00136823F007032B431360136803F00703E8
:100B1C009D42A0D170E76368F16823F4E0630B4356
:100B2C0063606FE70020024000100240200E0008B6
:100B3C0000000020014B1868704700BF0000002027
:100B4C00012310B590B00A9310230B9300230224B9
:100B5C000E934FF4601306A806940D940F93FFF7B1
:100B6C0093FC00B1FEE70F2301934FF480630390D5
:100B7C000590214601A802940493FFF727FF044631
:100B8C0000B1FEE7FFF7D6FF4FF47A73B0FBF3F03A
:100B9C00FFF768FB0420FFF77BFB224621464FF052
:100BAC00FF30FFF71FFB10B010BD000000B589B07F
:100BBC00FFF7D8FAFFF7C4FF264B4FF480419A6930
:100BCC00254842F020029A619A69244C02F02002D6
:100BDC000192019A9A6942F004029A619A6902F0B0
:100BEC0004020292029A9A6942F010029A619B697D
:100BFC00002203F010030393039BFFF73BFC00223E
:100C0C004FF400511448FFF735FC00224FF400411B
:100C1C001148FFF72FFC4FF4604304930123059315
:100C2C00022304A90D480793FFF744FB20464FF419
:100C3C008041FFF724FC20464FF40051FFF71FFCC6
:100C4C0020464FF40041FFF71AFCC820FFF7AAFA20
:100C5C00ECE700BF0010024000080140001001400A
:100C6C00214B07B59A69032042F001029A619B69F6
:100C7C0003F001030193019BFFF7A2FA00226FF02E
:100C8C000B001146FFF7AEFA00226FF00A00114676
:100C9C00FFF7A8FA00226FF009001146FFF7A2FA3D
:100CAC0000226FF004001146FFF79CFA00226FF04F
:100CBC0003001146FFF796FA00226FF0010011466F
:100CCC00FFF790FA00224FF0FF301146FFF78AFA37
:100CDC00002205201146FFF785FA0520FFF7B6FA2A
:100CEC0003B05DF804FB00BF001002407047FEE744
:100CFC00FEE7FEE7FEE770477047704708B5FFF761
:100D0C0043FABDE80840FFF7D0BA70470F4B1A689A
:100D1C0042F001021A6059680D4A0A405A601A687A
:100D2C0022F0847222F480321A601A6822F4802233
:100D3C001A605A6822F4FE025A604FF41F029A603D
:100D4C004FF00062034B9A60704700BF00100240E6
:100D5C000000FFF800ED00E0002103E00B4B5B58B6
:100D6C00435004310A480B4B42189A42F6D30A4AB4
:100D7C0002E0002342F8043B084B9A42F9D3FFF7F8
:100D8C00C5FF00F00FF8FFF711FF7047380E000891
:100D9C00000000200400002004000020240000209B
:100DAC00FEE7000070B500250C4E0D4CA41BA410E2
:100DBC00A54209D100F01AF800250A4E0A4CA41BD2
:100DCC00A410A54205D170BD56F8253098470135C1
:100DDC00EEE756F8253098470135F2E7300E00085B
:100DEC00300E0008300E0008340E0008F8B500BFB5
:100DFC00F8BC08BC9E467047F8B500BFF8BC08BCF0
:040E0C009E46704747
:100E100002030405060708090A0B0C0D0E0F10103B
:100E2000000000000000000001020304060708099A
:040E30003101000884
:040E34000D010008A4
:040E380000A24A04C6
:0400000508000D657D
:00000001FF
